:020000040800F2
:1000000000040020010400080105000801050008A3
:1000100001050008010500080105000801050008A8
:100020000105000801050008010500081105000888
:100030000105000801050008010500080105000888
:100040000105000801050008010500080105000878
:100050000105000801050008010500080105000868
:100060000105000801050008010500080105000858
:100070000105000801050008010500080105000848
:100080000105000801050008010500080105000838
:100090000105000801050008010500080105000828
:1000A0000105000801050008010500080105000818
:1000B00011160008010500080105000801050008E7
:1000C00001050008010500080105000801050008F8
:1000D0000105000801050008811600080105000857
:1000E00001050008010500080105000801050008D8
:1000F00001050008010500080105000801050008C8
:1001000001050008010500080105000801050008B7
:1001100001050008010500080105000801050008A7
:100120000105000801050008010500080105000897
:100130000105000801050008010500080105000887
:100140000105000801050008010500080105000877
:100150000105000801050008010500080105000867
:100160000105000801050008010500080105000857
:100170000105000801050008010500080105000847
:100180000105000801050008010500080105000837
:100190000105000801050008010500080105000827
:1001A0000105000801050008010500080105000817
:1001B0000105000801050008010500080105000807
:1001C00010B586B001F05CFE204B1B68002B33D1CC
:1001D0001F4801F0EDFC1F4A1F491D4801F038FE81
:1001E00002A801F065FD0A2102A801F069FD322193
:1001F00002A801F065FD642102A801F061FD02A8DA
:1002000001F0CEFD1421012202A801F0A1FD02A8F7
:1002100001F0C6FD00F0ECFF00F0C2F900230093EE
:100220000E480F4B4FF4A471402200F031FC41F214
:10023000883000F06DFCFAE70A4C532001F040FED4
:1002400014F8010F0028F9D1C2E700BF781300208D
:100250007C1300203C2A0008282A000830120020C5
:10026000111E00082C2A0008AFF30080AFF30080B5
:100270002DE9F04FC1F80CD0D0F80CD0BDE8F08FCC
:10028000002383F311882846A04700F071FC00F09A
:1002900067FB00DFFEE70000000000000000000038
:1002A000844641EA000313F003036DD1403A41D381
:1002B00051F8043B40F8043B51F8043B40F8043B40
:1002C00051F8043B40F8043B51F8043B40F8043B30
:1002D00051F8043B40F8043B51F8043B40F8043B20
:1002E00051F8043B40F8043B51F8043B40F8043B10
:1002F00051F8043B40F8043B51F8043B40F8043B00
:1003000051F8043B40F8043B51F8043B40F8043BEF
:1003100051F8043B40F8043B51F8043B40F8043BDF
:1003200051F8043B40F8043B51F8043B40F8043BCF
:10033000403ABDD2303211D351F8043B40F8043B6F
:1003400051F8043B40F8043B51F8043B40F8043BAF
:1003500051F8043B40F8043B103AEDD20C3205D37F
:1003600051F8043B40F8043B043AF9D2043208D077
:10037000D2071CBF11F8013B00F8013B01D30B88E9
:1003800003806046704700BF082A13D38B078DD0C7
:1003900010F003038AD0C3F10403D21ADB071CBF99
:1003A00011F8013B00F8013B80D331F8023B20F803
:1003B000023B7BE7043AD9D3013A11F8013B00F83C
:1003C000013BF9D20B7803704B7843708B788370C4
:1003D00060467047000000000000000000000000C0
:1003E000704700BFAFF30080AFF30080AFF3008031
:1003F000FEE700BFAFF30080AFF30080AFF30080F3
:1004000072B6314C84F30988022383F31488BFF356
:100410006F8F01F0D5F92D4B2D4A93420BD2D94362
:100420000A4422F0030204321A444FF0553143F8D3
:10043000041B9342FBD1274BA3420CD2264A191D21
:10044000521A22F0030204321A444FF0553143F895
:10045000041B9342FBD1214A214B9A420CD2D04338
:10046000184420F003001F4B0430184453F8041BB9
:1004700042F8041B8342F9D11B4B1C4A93420AD217
:10048000D9430A4422F0030204321A44002143F8FB
:10049000041B9342FBD1164D164CFFF7A1FFAC4253
:1004A00004D254F8043B9847AC42FAD3124D134C93
:1004B000FFF786FEAC4204D254F8043B9847AC42A6
:1004C000FAD3FFF795FF00BF0008002000000020CE
:1004D0000004002000040020030800200008002081
:1004E0003C100020582A00083C100020B4130020C3
:1004F000C0010008C0010008C0010008C0010008D8
:10050000FEE700BFAFF30080AFF30080AFF30080E1
:10051000EFF30983203383F30988002383F31188E1
:10052000704700BFAFF30080AFF30080AFF30080EF
:10053000202383F311880F4B5B6813F4006302D10F
:1005400083F31188704710B5EFF309844FF080737F
:1005500044F8043CA4F1200383F3098800F0D0F9A7
:1005600018B1054B44F8083C10BD044B44F8083C56
:1005700010BD00BF00ED00E08F02000892020008ED
:10058000024B034A9B699A61FEE700BF40100020BE
:10059000A0270008AFF30080AFF30080AFF3008026
:1005A0001E4B1F4A1F48F0B500249C60DF681E4E9A
:1005B0001E4D4FF6FF0139400A43DA60F26842F0FF
:1005C0008072F2600268202142F00102102602606F
:1005D00083B0DE7783F8221000F0FAF800F0C8F953
:1005E00000F09EF800F00CFD00F05AFD2846402176
:1005F00000F02EFAA5F1300301229861027784F30E
:10060000118862B69B690A49996105F14800009416
:10061000D821084B00F03CFA03B0F0BD00ED00E03B
:100620000003FA05001000E0F0ED00E0701000207B
:10063000B027000881050008AFF30080AFF3008009
:100640002DE9F0411B4C4FF08045E369A26A696ACD
:1006500098688E1A864204F11C0619D34FF00008E0
:1006600020271968D3F80CC00244A2624E60E161F1
:10067000C3F80C8088F311881869E04787F3118864
:10068000E369696AA26A9868C2EB010E8645E8D2FE
:10069000B3420BD0012804D00844BDE8F04100F07B
:1006A0006FBE881CBDE8F04100F06ABEBDE8F041B5
:1006B00000F05EBE40100020AFF30080AFF300807A
:1006C000014B5B6883607047001000E0AFF300806F
:1006D0000F4B10495A688368F0B44F6FC668416881
:1006E000D0E90445D31ADB1BE41845F100050136B7
:1006F0008B42C6608360C0E9044505D80268934216
:1007000038BF0360F0BC70474360F0BC704700BF67
:10071000001000E040100020AFF30080AFF3008035
:10072000D0B50C4C86B000234FF0FF32684600264F
:10073000002763670193029303930092CDE9046756
:10074000FFF7BEFF6846FFF7C3FF029B636706B073
:10075000D0BD00BF40100020AFF30080AFF3008099
:1007600010B4202383F31188037F072B0ED8DFE812
:1007700003F0270D0D2308040D08026A9368013366
:10078000936090E80C001A60026853604FF0FF34E9
:10079000002281680D4B046202771B689A688A42C6
:1007A000FBD25A684260036000215860106081F3F8
:1007B00011885DF8044B7047036A00221A60E5E770
:1007C000002383F311885DF8044B7047401000202C
:1007D000034B00225B601B605B611B619A6070478A
:1007E00040100020AFF30080AFF30080AFF3008033
:1007F00000228168084B10B4044602771B689A688F
:100800008A42FBD25A686260236020465C601460B2
:100810005DF8044B704700BF40100020AFF300802C
:10082000074B30B41A68996914680877012563602A
:1008300015771C60104630BC9A61FFF719BD00BFE8
:1008400040100020AFF30080AFF30080AFF30080D2
:1008500030B54B1C87B012D00C4C0D4AA36905462D
:1008600001A800F095F82846FFF7DAFF049B13B1C2
:1008700001A800F0C5F8A369186A07B030BD034CA1
:10088000FFF7CEFFA369186A07B030BD4010002003
:1008900061070008AFF30080AFF30080AFF3008082
:1008A000144BF0B49E6984680546B068296284429E
:1008B0004FF000020BD82A771B689A689442FBD944
:1008C0005A686A602B605D601560F0BC70473277D3
:1008D0001A46126891688842FBD9546874600127EF
:1008E0003260566026602F77314628469D61F0BC05
:1008F000FFF7BEBC40100020AFF30080AFF30080D4
:10090000044B1A689B6990689B68984294BF0020CA
:100910000120704740100020AFF30080AFF300804B
:100920000D4A106870B403689469136001260025AD
:10093000A1685A6006779061257700E01B689A6885
:100940008A42FBD85A686260236021465C6014606A
:1009500070BCFFF78DBC00BF40100020AFF30080DB
:10096000FFF7DEBFAFF30080AFF30080AFF300808E
:10097000054B4FF0FF3003F11C02002158629962D1
:100980001A62DA61704700BF40100020AFF30080A8
:10099000F8B51A4FBE4601298CBF0D4602255EF8F8
:1009A0001C4F03614FF080437445C26006465A6A8B
:1009B0001DD0B86AA368121A15449D4203D211E0F3
:1009C0002468ED1AA368AB42FAD36368736034609D
:1009D00066601E60B560A1684FF0FF33491BA160DF
:1009E0007B62F8BD284400F0CBFCA368EBE7A818B5
:1009F000BA6200F0B5FC7B6AE5E700BF401000205A
:100A000002688368916830B4104C456819442346E5
:100A100091602A60016853F81C2F4D609A424FF094
:100A200000054FF0FF31C56061620BD09368A06A8A
:100A3000012B03D9184430BC00F0A2BC023030BCFA
:100A400000F09EBC30BC00F093BC00BF4010002002
:100A5000F0B50E4CC16366694661002200F12805BD
:100A60004FF0020C4FF0010E00F124078160046189
:100A700080F81CC0606180F81EE0427782634263A8
:100A8000826130614762C5628562F0BD401000201E
:100A90002DE9F04799460446202383F311881A4E26
:100AA0001A4B7769243900EB010AC0F80CA0002525
:100AB00040F801904FF0010C00F128090899CAF89C
:100AC000041000F1240E4FF00208CAF82030294625
:100AD000826006614761C26380F81C8080F81EC096
:100AE000457770618563456385613861C0F824E0AE
:100AF000C0F82C90C0F82890FFF7D2FE85F311883B
:100B00002046BDE8F08700BF4010002081020008A9
:100B100008B50146202383F311880820FFF798FECB
:100B2000002383F3118808BDAFF30080AFF300808A
:100B300038B50E4B9C69636A206204F124059D421E
:100B400007D01A6862621846FFF752FE636AAB422A
:100B5000F7D1637F9B0704D1636922691A61226917
:100B600053610F20BDE83840FFF75ABE4010002007
:100B7000202383F31188FFF7DBBF00BFAFF30080B2
:100B800069B1084B10B4024644689B69042083E8AD
:100B90001400536023605DF8044BFFF759BE4FF01B
:100BA000FF30704740100020AFF30080AFF30080AB
:100BB00002689042034609D010B414680460636070
:100BC000116210465DF8044BFFF712BE704700BF7C
:100BD0000023406000608360704700BFAFF3008077
:100BE000304B826870B59C69002A55D0A168936823
:100BF0009942054606D9137F9160062B33D0072B07
:100C00001DD09BB12B4603E09968A268914202D3A4
:100C10001B689D42F8D15A68626023605C60146072
:100C200025620620BDE87040FFF7FABD92E80A0091
:100C30001960116810464B60FFF7DAFDE2E792E8B1
:100C400009001860166A10684360334602E098682D
:100C5000884202D31B689E42F9D1596851601360E3
:100C60005A600A60CEE792E809001860166A1068B8
:100C70004360334602E09868884202D31B689E4274
:100C8000F9D15968516013605A600A60B268A1686E
:100C900093688B42AFD3B5E7A36BC3608460A06356
:100CA00070BD00BF40100020AFF30080AFF30080A4
:100CB00008B5202383F31188FFF792FF002383F305
:100CC000118808BDAFF30080AFF30080AFF3008060
:100CD000164B70B59D69202383F311880468C3689F
:100CE000AB63A0421CD0E96B4BB11A68934203D0AE
:100CF0009268914238BF1146DB68002BF5D103465C
:100D00002268A66BA96020461A60002153609C608F
:100D1000DE60A363FFF7C4FD002383F3118870BD79
:100D200000238360002383F3118870BD40100020EE
:100D3000436B027F19430A2A41630AD00B2A00D071
:100D40007047036A19408B42FAD100230362FFF710
:100D50004FBD036A1942F8D1704700BFAFF300805E
:100D600070B50468A04206460D460DD0E3682B43DB
:100D7000E36015B12269134203D06068A168FFF7F0
:100D8000D7FF2468A642F1D170BD00BFAFF3008049
:100D900030B4029C046200250A4485600261406010
:100DA000006041618161C160C36130BC704700BFB8
:100DB000836942699A4210B583680FD00133541C8D
:100DC000836044611170426903699A4201D3C36828
:100DD00043610021FFF7ECFE002010BD002BEDD099
:100DE0006FF0030010BD00BFAFF30080AFF30080D1
:100DF00070B520230E46044683F31188C3692BB1D6
:100E0000984703E0FFF7BCFE002815DBA5682046E5
:100E10003146002DF6D0A2692169531C8B4205F1A1
:100E2000FF35A361A56028BFE368107828BFA361E0
:100E3000002383F3118870BD85F3118870BD00BF56
:100E40002DE9F04F044683B0894693461D46D0F8FD
:100E50001C80202787F3118800260197B246B8F13D
:100E6000000F05D02046C04702E0FFF789FED8B941
:100E7000A76820462946002FF7D0A2697B1E511C87
:100E8000A161A360137809F8013B2369A2699A4222
:100E900024BFE368A3618AF311880136B34505D006
:100EA000019B83F31188DAE787F31188304603B09A
:100EB000BDE8F08FAFF30080AFF30080AFF30080A8
:100EC00030B4029C04628D1805614060006082604D
:100ED00041618161C160C36130BC7047AFF3008084
:100EE000F8B504460F461646202383F3118803E025
:100EF000FFF746FE002818DBA56820463146002D86
:100F0000F6D06369013D5A1C6261A5601F702369B8
:100F100062699A4224BFE3686361E3690BB12046CA
:100F20009847002080F31188F8BD85F31188F8BD3B
:100F300038B582694369934283680ED00569511CB4
:100F4000013383608161A942147801D3C36883614E
:100F50000021FFF72DFE204638BD002BEED06FF0AC
:100F6000020038BDAFF30080AFF30080AFF3008024
:100F70002DE9F04F83B004468B4616460193D0F816
:100F80001C804FF0200989F311880027CDF80090CC
:100F9000BA46A5680BF101096A1E20460DB36369C4
:100FA000A2605A1C62619BF800201A702369626972
:100FB0009A4224BFE3686361B8F1000F00D0C047D4
:100FC0008AF31188013E07F1010712D0009B83F3D9
:100FD0001188A568CB466A1E0BF101092046002D39
:100FE000DDD120460199FFF7CBFD0028D1D085F354
:100FF0001188384603B0BDE8F08F00BFAFF3008022
:10100000054A064B0648074922F0070223F007036A
:1010100002600B60704700BFBB13002000800120FE
:101020009411002090110020AFF30080AFF30080F6
:1010300010B4202383F31188094C0A4B22681968E5
:10104000C31D23F00703891A8B429DBF9B182360A1
:1010500010460020002383F311885DF8044B70478D
:101060009411002090110020AFF30080AFF30080B6
:101070000EB400B582B003AA054852F8041B0192D1
:1010800000F0E6FB02B05DF804EB03B0704700BF70
:101090007C130020AFF30080AFF30080AFF300803B
:1010A000044B054A1A6003F1100000229A60DA60CE
:1010B000FFF78EBD9811002031100008AFF30080BB
:1010C000F8B5334E334A002818BF06460D4632485D
:1010D0003249FFF7CDFF3149314A2F48FFF7C8FFAA
:1010E00006F110072D492F4A2B48FFF7C1FF38465C
:1010F000FFF7DEFD073529492B4A274825F007056C
:1011000006F10804FFF7B4FF06E0FFF7B1FF20681F
:1011100043689D421ED9044623681F4823491A4646
:10112000002BF2D11D49224AFFF7A2FF3846FFF7F4
:10113000CFFD194819491F4AFFF79AFF33682BB3AF
:1011400005F10800984708B30660456000F10804FF
:101150002046F8BD05F108029A4209D903682360C8
:101160000446384644F8086BFFF7B2FD2046F8BD48
:101170006FF00701491B00EB020E0B440168815020
:10118000CEF80430C4F800E04560E9E70024DFE76A
:1011900098110020E42700087C130020D0270008C5
:1011A000F4270008042800080C2800081828000864
:1011B0002C28000838280008AFF30080AFF3008027
:1011C0000EB400B582B004AB1A4605490548019338
:1011D00000F03EFB02B05DF804EB03B0704700BFC7
:1011E000502800087C130020AFF30080AFF300808C
:1011F00038B50C4D0C4C00F0EBF821460B4A284654
:10120000FFF7DEFF0A4800F07BF92146094A28462D
:10121000FFF7D6FF00F054F800F0DAFABDE83840E6
:1012200000F096B87C1300205028000854280008CD
:101230009028000864280008AFF30080AFF3008016
:101240000C30FFF7FDBD00BFAFF30080AFF30080AF
:101250000C304FF0FF33FFF7F3BD00BFAFF300805A
:101260003030FFF785BE00BFAFF30080AFF30080E2
:1012700030304FF0FF33FFF77BBE00BFAFF300808D
:101280000C30FFF7B5BD00BFAFF30080AFF30080B7
:101290000C304FF0FF31FFF7ABBD00BFAFF3008064
:1012A0003030FFF71DBE00BFAFF30080AFF300800A
:1012B00030304FF0FF32FFF713BE00BFAFF30080B6
:1012C00000F06EBAAFF30080AFF30080AFF30080A0
:1012D00070B50E4B044682B040F8043B01260094E2
:1012E0000B461546606004F1540104F10C002672AF
:1012F0001022FFF74DFD00942B4604F1300004F15D
:1013000064011022FFF7DCFD02B070BD70280008F8
:1013100038B5436904460D463BB1294604F10C003B
:10132000FFF746FD00280BDB38BD04300421FFF732
:1013300017FD294604F10C00FFF73AFD0028F3DA07
:10134000201D8021BDE83840FFF70ABDAFF30080C3
:1013500000F06EB9AFF30080AFF30080AFF3008010
:101360004FF080430021022258631961DA60704710
:101370004FF080430022DA60704700BFAFF3008077
:101380004FF0804358637047AFF30080AFF30080A5
:1013900043099B0010B403F1604300F1604404F57D
:1013A000614403F56143090100F01F0001228240FE
:1013B000C9B284F80013C3F880211A605DF8044BA9
:1013C000704700BFAFF30080AFF30080AFF3008041
:1013D000164B4FF0FF311A69002210B419611A61DF
:1013E000586959615A61186A114C60F0805018624E
:1013F0001A62586A59625A62196C41F08051196434
:10140000216841F480712160196F01F44071B1F5D8
:10141000007F03D04FF4803119671A67044A5DF8E2
:10142000044B536823F40073536070470038024044
:1014300000700040AFF30080AFF30080AFF3008096
:101440002849294B4FF080504FF4004208641A603D
:101450000B6843F001030B600A68224B9207FBD52F
:101460009A6822F003029A609A689A6019468B681B
:101470001C4A13F00C03FAD1116801F0F901116054
:101480009360536F43F001035367536F15499807F7
:10149000FBD5164B4B600B68134A43F080730B600F
:1014A00053685904FCD50F490A680E4B9201FBD5CD
:1014B0000F4A1049996040F2027111609A6842F037
:1014C00002029A601A469368064903F00C03082B3F
:1014D000F9D14B6C43F480434B644B6E43F480432F
:1014E0004B667047003802400070004010540107FE
:1014F000003C024000100838AFF30080AFF30080DA
:10150000F0B5394F394ED7F830E0394D394C3A49BA
:101510003A4A3B4B4EF01F0EC7F830E0D7F850E088
:101520004EF01F0EC7F850E0476877608768B760D5
:10153000C768F760076977614769376287697762CB
:1015400007683760066A6E60466AAE60866AEE605B
:10155000C66A6E61066B2E62466B6E62C6692E604D
:10156000C56B6560056CA560456CE560856C656163
:10157000C56C2562056D6562856B2560846D4C6068
:10158000C46D8C60046ECC60446E4C61846E0C62E1
:10159000C46E4C62446D0C60416F5160816F91600C
:1015A000C16FD160D0F880105161D0F88410116201
:1015B000D0F888105162016F1160D0F890205A6005
:1015C000D0F894209A60D0F89820DA60D0F89C2067
:1015D0005A61D0F8A0201A62D0F8A4205A62D0F83C
:1015E0008C201A60F0BD00BF0038024000000240AD
:1015F0000004024000080240000C024000100240BB
:10160000001C0240AFF30080AFF30080AFF3008016
:101610004FF0804310B500241C61202383F3118810
:10162000FFF70EF884F31188BDE81040FEF780BF85
:1016300070B40D48016C4FF080430022012441F04A
:10164000010142F2CF064FF0FF3501649E621C207B
:10165000DD6208219A615A63DA605A605C611C603D
:1016600070BCFFF795BE00BF00380240AFF30080AA
:10167000024AD36843F08003D360704700440040BF
:10168000F8B5434E756FEF682B68DA059CB24FD4FE
:10169000202383F3118814F02F0F08D129E0A0062E
:1016A00069681DD42C68A4B214F02F0F21D0230731
:1016B000F5D014F0080F0CBF00218021E00748BFCF
:1016C00041F02001A20748BF41F04001630748BF35
:1016D00041F480712F48FFF743FBA0066968E1D50C
:1016E000C9B22B48FFF714FE2C68A4B214F02F0FD8
:1016F000DDD1002383F31188390601D5220626D4D3
:10170000630611D5202383F31188726CB36C2048D3
:101710009A4229D04FF6BF733B406FF04002EB6016
:1017200000232A6083F31188BDE8F840FEF700BF6C
:10173000202383F311884FF40071301DFFF710FB55
:101740006FF480732B60002383F31188A0E72023BC
:1017500083F311881048FFF7EBFB00280CDB68606F
:10176000002383F31188CBE7836B002BD2D00430A6
:101770001021FFF7F5FACDE706480821FFF7F0FA48
:101780004FF63F733B4043F04003EB60E8E700BF98
:10179000B8110020BC110020E8110020AFF3008038
:1017A00010B5044C044A20460021FFF791FD034B7D
:1017B000636710BDB8110020711600080044004096
:1017C000FFF73EBEAFF30080AFF30080AFF30080C1
:1017D000704700BFAFF30080AFF30080AFF300802D
:1017E00010B504460846FFF723FC00B110BD0C23DA
:1017F00023604FF0FF3010BDAFF30080AFF30080E7
:10180000F0B400F10B073C460D46B1FBF2F602FBCB
:10181000161101F13003392BC8BF01F13703DBB2D8
:1018200004F8013DB5FBF2F53146002DEDD13A1B30
:10183000024401E014F8013F00F8013B9042F9D165
:10184000F0BC7047AFF30080AFF30080AFF30080CF
:101850002DE9F04F87B015460DF10D0303AA9B1A31
:1018600081468A4601934FF000088B469BF8001092
:101870000BF1010379B1252911D0D9F800209B463D
:101880009268484690479BF8001008F101080BF158
:1018900001030029EFD1404607B0BDE8F08F9BF867
:1018A00001202D2A03BF9BF802200BF102034FF009
:1018B000010A4FF0000A302A03BF5A78013330275B
:1018C0002027591C002606E02B7804359BF80020C1
:1018D00003EB40060131A2F13003DBB2092B8B464A
:1018E00006EB8600F2D92A2AEED02E2A4FF000010C
:1018F00043D002F0DF034C2B4ED0A2F14400342839
:1019000000F2F780DFE810F0EA00F500F500F500DE
:10191000F500EA00F500F500F500F500F500E80037
:10192000F500F500F500F500F500DD00F500F50027
:10193000F200F500F500F500F500F500F500F50002
:10194000F500F500F500A100EA00F500F500F5004E
:10195000F500EA00F500F500F500F500F500E800F7
:10196000F500F500F5007100F500DD00F500F5006B
:10197000F2002B78043503EB40011BF8012BA2F198
:101980003003DBB2092B01EB8100F4D92A2AF0D015
:1019900002F0DF034C2BB0D19BF80030002B00F09D
:1019A000A880A3F144020BF1010B342A00F2A080BD
:1019B000DFE802F0949E9E9E9E949E9E9E9E9E9226
:1019C0009E9E9E9E9E879E9E9C9E9E9E9E9E9E9E50
:1019D0009E9E9E4B949E9E9E9E949E9E9E9E9E929A
:1019E0009E9E9E1B9E879E9E9C002C685A4B002CA0
:1019F00008BF1C4604352378002900F09480002B92
:101A000000F096800139204601E0013903D410F836
:101A1000013F002BF9D1001B361A431E202726EA6E
:101A2000E676BAF1000F1FD0002B009334DA002EB7
:101A30003FF41CAF3446D9F8003048469B6839461D
:101A40009847013CF7D1B04410E72B688DF80C3073
:101A5000019B043518462027013B03AC361A26EAC1
:101A6000E676BAF1000FDFD10093C6F1000ABAF1B1
:101A7000000F45D021782D2947D05646D9F800309F
:101A800048469B68394698470136F7D1009B002BA2
:101A9000CAEB0808FFF6EAAEDDF800A0D9F800307E
:101AA00014F8011B9B680AF1FF3A48469847BAF1BF
:101AB000FF3FF3D1009B08F10108002BA8BF984419
:101AC000B5E70A22296803A80435FFF799FE03AB9E
:101AD000C01A431E03ACC1E70822F3E729680029B6
:101AE00005F104052EDB03A80A22EEE71022E9E740
:101AF0001A46019B8DF80C20184603AC013BADE75C
:101B0000009B002B5646C7DAB0E6302FB5D1D9F886
:101B1000003048469B689847009B013B013408F120
:101B200001080093A9E747F6FE71002B7FF46BAF25
:101B300026EAE676BAF1000F0BD14FF0FF3300939F
:101B4000202792E72D2349428DF80C300DF10D002E
:101B5000CAE720276BE700BF40290008AFF30080E9
:101B600004207047AFF30080AFF30080AFF3008034
:101B700000207047AFF30080AFF30080AFF3008028
:101B800008B5084600F09CF9002008BDAFF30080BE
:101B900070B516463AB10D46144615F8010B00F023
:101BA0008FF9013CF9D1304670BD00BFAFF3008022
:101BB000014B0360704700BF50290008AFF300805D
:101BC0002DE9F0470A9C089DDDF824E08242164684
:101BD00005FB04F504FB01F704FB03F807D002EB57
:101BE000080138442A46BDE8F047FEF759BB47458F
:101BF0000EFB04F00CDC01DBBDE8F087C8EB000253
:101C000006EB0801F0190132BDE8F047FEF748BBCA
:101C1000214602EB070AC7EB000900F069F94A46C2
:101C200051460446FEF73CFB06EB08012A465046A7
:101C3000FEF736FB78194A4630442146FEF730FB62
:101C40002046BDE8F04700F08BB900BFAFF300803D
:101C50000EB400B582B003AA054852F8041B0192E5
:101C6000FFF7F6FD02B05DF804EB03B0704700BF6C
:101C70007C130020AFF30080AFF30080AFF300804F
:101C800010B504468260416089000020FFF718FA11
:101C90000449E06002460448FFF7DAFF4FF0FF33E3
:101CA000236010BD602900087C130020AFF3008082
:101CB00010213222FFF7E4BFAFF30080AFF30080C2
:101CC0002DE9F04190E860000135B54284B004464A
:101CD0000F4605601CDB83681E44466031460420C5
:101CE00000F006F900210423E268029301960B46F6
:101CF00000958046FFF764FFE06800F031F9236843
:101D0000C4F80C80012048F8237004B0BDE8F081CD
:101D10002A460B490B48FFF79BFF3A460A490948F8
:101D2000FFF796FF2268E368084943F822700548E8
:101D30003A46FFF78DFF012004B0BDE8F08100BFF7
:101D4000742900087C1300208829000894290008C1
:101D5000F0B50468944285B004DB436801349C42CA
:101D6000046002DB002005B0F0BD0546C0680194A8
:101D70001646012404230F4602460293009433467C
:101D80003119FFF71DFFEB68204643F8267005B0B8
:101D9000F0BD00BFAFF30080AFF30080AFF3008071
:101DA00070B50546026814491448FFF751FF2B68C7
:101DB000002BA8BF002418DBEB68114953F824302E
:101DC0000E482246FFF744FFEB680E4953F82460A3
:101DD0000A483246FFF73CFF324608480A49FFF7F7
:101DE00037FF2B680134A342E6DA04480749BDE80F
:101DF0007040FFF72DBF00BFB82900087C130020FA
:101E0000D4290008F4290008082A0008482A0008F4
:101E100008B5094B094A9B69094C9A6120252E4651
:101E2000668341F28830FEF773FE258341F28830E5
:101E3000FEF76EFEF4E700BF40100020202A0008E5
:101E400000000240AFF30080AFF30080AFF30080EA
:101E50000EB400B582B004AB1A460549054801939B
:101E6000FFF7F6FC02B05DF804EB03B0704700BF6B
:101E7000282A00087C130020AFF30080AFF3008015
:101E8000084A0949136843F0270313600B68DA070F
:101E900006D5064B1B68DB0702D5054B01221A60ED
:101EA000704700BF042004E0F0ED00E0000E00E009
:101EB00078130020AFF30080AFF30080AFF3008011
:101EC000074B1B685BB1074B1B68DB0107D54FF065
:101ED00060410B684FF06042002BFAD010707047E1
:101EE00078130020FCED00E0AFF30080AFF300803A
:101EF000024B0A460146186800F002B8280C002080
:101F000010B502FB01F100F033F8044668B150F857
:101F1000042C22F00302043A242A18D8132A06D8E3
:101F2000034600221A605A609A60204610BD0023C2
:101F30001B2A036043600FD9242A8360C36005BF56
:101F40000361436100F1100300F11803E9E7002188
:101F500000F09EFA204610BD00F10803E1E700BF43
:101F6000024B0146186800F043BB00BF280C00205C
:101F70002DE9F04F01F10B05162D83B0064627D948
:101F800035F0070500F1B680A94200F2B38000F0F9
:101F9000CFFAB5F5FC7F22D2C24FE80807EBC003A9
:101FA000DC689C4200F0C9816368E168A56823F0A1
:101FB0000303234430465A68E96042F001028D6011
:101FC0005A6000F0BDFA0834204603B0BDE8F08F37
:101FD000102900F28F8000F0ABFA1025DCE7680AC8
:101FE00000F08F80042800F25481A80938304100A5
:101FF000AC4F07EB8101CC68A14206D10CE0002A6E
:1020000080F28280E468A14206D0636823F0030373
:102010005A1B0F2AF3DD01380130A2493C6901F156
:10202000080E744500F07E81636823F003035A1B99
:102030000F2A00F36481002AC1F814E0C1F810E00F
:1020400073DAB3F5007F80F03981DB0801EBC30858
:102050004FEAA30C4A68D8F80890C4F80890012306
:1020600003FA0CF31343C4F80C804B60C8F8084023
:10207000C9F80C408210012494409C4262D823424B
:1020800006D120F003006400234200F10400FAD0DE
:1020900007EBC008C4468146DCF80C309C4507D1EC
:1020A00042E1002980F25281DB689C4500F03C81CE
:1020B0005A6822F00302511B0F29F2DD1C46D3F8A7
:1020C0000CC054F8088F5A1945F0010941F0010578
:1020D000C3F804903046C8F80CC0CCF808807A6188
:1020E0003A61C2F80CE0C2F808E05560515000F0C7
:1020F00027FA69E700240C232046336003B0BDE8CB
:10210000F08F7E213F2073E72344E1685A68A56879
:1021100042F00102E96030468D605A6000F010FA2A
:102120000834204603B0BDE8F08F234430465A6897
:1021300042F001025A6000F003FA0834204603B06E
:10214000BDE8F08FBC68636823F00308454504D8F8
:10215000C5EB08030F2B00F38C80534BDFF858A11D
:102160001A68DAF8003001332A4404EB080B00F057
:10217000508102F580520F3222F47F6222F00F026A
:10218000114630460192FFF72BFBB0F1FF3F81462D
:10219000019A00F0F580834500F2EF80434B196807
:1021A000CB451144196000F03D81DAF80000DFF8FA
:1021B00008E101301BBFCBEB090B5944CEF800906E
:1021C000196019F0070100F00781C1F10800C1F59D
:1021D0008051814408314A44C2F30B02C2EB010A28
:1021E000514630460193FFF7FBFA431C019B00F078
:1021F0002781C9EB0002524442F001021968C7F876
:1022000008905144BC42C9F804201960DFF89CA032
:1022100016D0B8F10F0F40F2E2806268A8F10C030B
:1022200023F00703E01802F001024FF0050E1A43F5
:102230000F2B6260C0F804E0C0F808E000F20481EF
:102240001B4BBC681A68914288BF1960194B1A6809
:102250009142626888BF196022F003029542A2EBA6
:10226000050301D80F2B04DC304600F069F9002487
:10227000AAE6621943F0010345F0010565603046A6
:10228000BA60536000F05CF90834204603B0BDE842
:10229000F08F142869D9542800F29780280B6E30EB
:1022A0004100A5E62C0C0020881300208C13002090
:1022B0008413002080130020381000205A0A042ABA
:1022C00056D9142A00F2A7805B324FEA420C07EB82
:1022D0008C0CDFF8B481DCF80810614500F08580D3
:1022E0004A6822F00302934202D289688C45F7D1F2
:1022F000CA687B68E260A1609460CC60BAE663194A
:1023000042F0010745F00105656030464B610B6105
:10231000C3F80CE0C3F808E05F609A50083400F09E
:102320000FF951E64B68A5E609F1010919F0030F11
:102330000CF1080C7FF4B0AE2BE004F108036469E3
:10234000A34208BF02303FF468AE2DE61A441C4693
:102350005168DB6854F8085F41F001015160304674
:10236000EB609D6000F0ECF82EE65B3041003FE64C
:102370009A0938324FEA420CA9E7BC423FF40EAF4B
:10238000BC68626822F0030268E7D8F800809845CC
:1023900077D110F0030FA8F1080300F1FF30F4D15A
:1023A0007B6823EA04037B6064009C423FF6CAAE6C
:1023B000002C3FF4C7AE234248467FF469AE640068
:1023C000234200F10400FAD062E6B0F5AA7F18D8E3
:1023D000E80B773041000BE64FF48051FBE6012318
:1023E000C9F804304C46002238E7D8F8043092107F
:1023F0004FF0010C0CFA02F21343C8F804300A46FD
:1024000078E740F25453984217D8A80C7C3041002A
:10241000EEE51032B4E6542A1ED81A0B6E324FEA9B
:10242000420C54E7CBF30B0000287FF4BEAE4244CD
:10243000BB6842F001025A6002E7FC217E20D7E52A
:1024400001224FF0000AD9E604F10801304600F0FD
:10245000CFF8DAF80010F3E6B2F5AA7F04D8DA0B69
:1024600077324FEA420C32E740F254518A4204D8A4
:102470009A0C7C324FEA420C29E74FF0FC0C7E228A
:1024800025E77B6890E700BF2C0C002000000000CF
:1024900070B4840746D0541E002A41D0CDB2034602
:1024A00002E0621EE4B3144603F8015B9A07F8D118
:1024B000032C2ED9CDB245EA05250F2C45EA05455A
:1024C00019D903F110022646103E0F2E42F8105C77
:1024D00042F80C5C42F8085C42F8045C02F110021D
:1024E000F2D8A4F1100222F00F0204F00F0410320F
:1024F000032C13440DD91E462246043A032A46F8FB
:10250000045BFAD8221F22F003020432134404F0C1
:1025100003042CB1C9B21C4403F8011BA342FBD134
:1025200070BC704714460346C2E700BF00000000BD
:10253000704700BF00000000000000000000000025
:10254000704700BF00000000000000000000000015
:10255000F8B5234F0C460646FFF7EAFFBB685D68F7
:1025600025F00305291B01F6EF7121F47F6121F0AD
:102570000F01A1F58054B4F5805F07DB30460021E0
:10258000FFF72EF9BB682B44984204D03046FFF782
:10259000D7FF0020F8BD30466142FFF721F9013036
:1025A0000DD0104BBA6819682D1B45F00105304657
:1025B000091B55601960FFF7C3FF0120F8BD3046C5
:1025C0000021FFF70DF9BA68831A0F2BDEDD064CE8
:1025D0000449246843F00103001B53600860D5E7F9
:1025E0002C0C00208C13002038100020000000006C
:1025F00000294ED02DE9F0410C468046FFF798FFA8
:1026000054F8047C624927F00102A4F10805AB18D4
:102610008E6858689E4220F003005AD0FE0758602A
:102620000BD454F8087CED1B01F1080EAC6874451E
:102630003A4467D0EF68E760BC601C186468E40740
:102640000CD4544F9C68BC4202447CD0D868E060F3
:1026500042F0010384606B60AA5003E042F0010382
:102660006B60AA50B2F5007F14D2D20801EBC2030E
:1026700048689F68AF609210012404FA02F2104388
:10268000EB6048609D60FD604046BDE8F041FFF7AB
:1026900057BF7047530A042B47D8930903F13804F6
:1026A000600001EB80003A498368834243D0596857
:1026B00021F00301914202D99B689842F7D1DA6870
:1026C000EA60AB6040469560DD60BDE8F041FFF731
:1026D00037BFFF07024407D454F8083CED1A1A44E8
:1026E000A868EB68C36098602B4B1B6842F0010040
:1026F0009A4268608D60C7D3284B40461968FFF73F
:1027000027FFC1E719184968C90709D4D9689B6828
:10271000024442F00100D9608B606860AA50B3E7C0
:1027200042F001036B60AA50AEE7142B14D803F1FA
:102730005B046000B5E74A68A4100120A040024392
:102740004A601A46BCE742F001034D610D61EC603E
:10275000AC606B60AA5097E7542B04D8130B03F1BD
:102760006E0460009DE7B3F5AA7F04D8D30B03F194
:102770007704600095E740F25450834204D8930CEC
:1027800003F17C0460008CE7FC207E2489E700BF15
:102790002C0C0020340C0020341000208813002062
:1027A00069646C650000000000000000000000008B
:1027B0006D61696E00160018040444080C101418AA
:1027C000001C1D1E000000000000000000000000B2
:1027D000636848656170416C6C6F633A2025730AC9
:1027E000000000006D656D6F727920616C6C696727
:1027F0006E0000006D656D6F727920616C6C6967A9
:102800006E656400485F4C4F434B0000485F4C4F7F
:10281000434B20646F6E650071702D3E682E752EDF
:102820006E6578743A2025690A000000485F554EAD
:102830004C4F434B00000000485F554E4C4F434BFC
:1028400020646F6E650000000000000000000000C2
:1028500025730A0068616C5F6C6C645F696E6974F3
:102860000000000070616C496E6974000000000097
:102870007112000851120008B112000891120008EC
:10288000A11200088112000861120008411200081C
:10289000A004802A00000000AFFBFFFF0551156473
:1028A000DFFF00000077000000A00A0080000000A9
:1028B00000000000FFFFFFFF55555555FFFF0000CA
:1028C0000000000000000000000000000000000008
:1028D000FFFFFFFF55555551FFFF000000000000AE
:1028E000000000000000000000000000FFFFFFFFEC
:1028F00055555555FFFF0000000000000000000086
:102900000000000000000000FFFFFFFF4500000086
:10291000FFFF0000000000000000000000000000B9
:1029200000000000FFFFFFFF00000000FFFF0000AD
:102930000000000000000000000000000000000097
:10294000286E756C6C29000000000000000000007B
:10295000911B0008711B0008811B0008611B000807
:102960006C6973742D3E656C656D656E74733A2089
:1029700025690A006C6973742D3E63757272656E09
:10298000743A2025690A0000652E646174613A205A
:1029900025690A006C6973742D3E656C656D656E02
:1029A00074735B6C6973742D3E63757272656E74BB
:1029B0005D3A2025690A00007072696E74206C69A6
:1029C00073742D3E63757272656E743A2025690AC0
:1029D000000000007072696E74206C6973742D3E83
:1029E000656C656D656E74735B25645D3A20256961
:1029F0000A0000007072696E7420652E6461746153
:102A00003A2025690A0000007072696E7420652DF5
:102A10003E646174613A20256920000000000000D6
:102A2000626C696E6B657200257300005357562007
:102A3000456E61626C65640A00000000436869626B
:102A4000694F532056332E300A000000000000006A
:042A5000430000003F
:102A580000000000EC0A0020540B0020BC0B0020F2
:102A6800000000000000000000000000000000005E
:102A7800000000000000000000000000000000004E
:102A880000000000502A00080000000000000000BC
:102A9800000000000000000000000000000000002E
:102AA800000000000000000000000000000000001E
:102AB800000000000000000000000000000000000E
:102AC80000000000000000000000000000000000FE
:102AD80000000000000000000000000000000000EE
:102AE80000000000000000000000000000000000DE
:102AF80000000000000000000100000000000000CD
:102B08000E33CDAB34126DE6ECDE05000B00000091
:102B180000000000000000000000000000000000AD
:102B2800000000000000000000000000000000009D
:102B3800000000000000000000000000000000008D
:102B4800000000000000000000000000000000007D
:102E78000000000000000000000800200000000022
:102E8800000000002C0C00202C0C0020340C00202A
:102E9800340C00203C0C00203C0C0020440C00208A
:102EA800440C00204C0C00204C0C0020540C00203A
:102EB800540C00205C0C00205C0C0020640C0020EA
:102EC800640C00206C0C00206C0C0020740C00209A
:102ED800740C00207C0C00207C0C0020840C00204A
:102EE800840C00208C0C00208C0C0020940C0020FA
:102EF800940C00209C0C00209C0C0020A40C0020AA
:102F0800A40C0020AC0C0020AC0C0020B40C002059
:102F1800B40C0020BC0C0020BC0C0020C40C002009
:102F2800C40C0020CC0C0020CC0C0020D40C0020B9
:102F3800D40C0020DC0C0020DC0C0020E40C002069
:102F4800E40C0020EC0C0020EC0C0020F40C002019
:102F5800F40C0020FC0C0020FC0C0020040D0020C8
:102F6800040D00200C0D00200C0D0020140D002075
:102F7800140D00201C0D00201C0D0020240D002025
:102F8800240D00202C0D00202C0D0020340D0020D5
:102F9800340D00203C0D00203C0D0020440D002085
:102FA800440D00204C0D00204C0D0020540D002035
:102FB800540D00205C0D00205C0D0020640D0020E5
:102FC800640D00206C0D00206C0D0020740D002095
:102FD800740D00207C0D00207C0D0020840D002045
:102FE800840D00208C0D00208C0D0020940D0020F5
:102FF800940D00209C0D00209C0D0020A40D0020A5
:10300800A40D0020AC0D0020AC0D0020B40D002054
:10301800B40D0020BC0D0020BC0D0020C40D002004
:10302800C40D0020CC0D0020CC0D0020D40D0020B4
:10303800D40D0020DC0D0020DC0D0020E40D002064
:10304800E40D0020EC0D0020EC0D0020F40D002014
:10305800F40D0020FC0D0020FC0D0020040E0020C3
:10306800040E00200C0E00200C0E0020140E002070
:10307800140E00201C0E00201C0E0020240E002020
:10308800240E00202C0E00202C0E0020340E0020D0
:10309800340E00203C0E00203C0E0020440E002080
:1030A800440E00204C0E00204C0E0020540E002030
:1030B800540E00205C0E00205C0E0020640E0020E0
:1030C800640E00206C0E00206C0E0020740E002090
:1030D800740E00207C0E00207C0E0020840E002040
:1030E800840E00208C0E00208C0E0020940E0020F0
:1030F800940E00209C0E00209C0E0020A40E0020A0
:10310800A40E0020AC0E0020AC0E0020B40E00204F
:10311800B40E0020BC0E0020BC0E0020C40E0020FF
:10312800C40E0020CC0E0020CC0E0020D40E0020AF
:10313800D40E0020DC0E0020DC0E0020E40E00205F
:10314800E40E0020EC0E0020EC0E0020F40E00200F
:10315800F40E0020FC0E0020FC0E0020040F0020BE
:10316800040F00200C0F00200C0F0020140F00206B
:10317800140F00201C0F00201C0F0020240F00201B
:10318800240F00202C0F00202C0F0020340F0020CB
:10319800340F00203C0F00203C0F0020440F00207B
:1031A800440F00204C0F00204C0F0020540F00202B
:1031B800540F00205C0F00205C0F0020640F0020DB
:1031C800640F00206C0F00206C0F0020740F00208B
:1031D800740F00207C0F00207C0F0020840F00203B
:1031E800840F00208C0F00208C0F0020940F0020EB
:1031F800940F00209C0F00209C0F0020A40F00209B
:10320800A40F0020AC0F0020AC0F0020B40F00204A
:10321800B40F0020BC0F0020BC0F0020C40F0020FA
:10322800C40F0020CC0F0020CC0F0020D40F0020AA
:10323800D40F0020DC0F0020DC0F0020E40F00205A
:10324800E40F0020EC0F0020EC0F0020F40F00200A
:10325800F40F0020FC0F0020FC0F002004100020B9
:10326800041000200C1000200C1000201410002066
:10327800141000201C1000201C1000202410002016
:0C3288002410002000000200FFFFFFFFE8
:0400000508000401EA
:00000001FF
