:020000040800F2
:1000000000040020510A0008A11D0008A11D0008DD
:10001000A11D0008A11D0008A11D0008A11D0008C8
:10002000A11D0008A11D0008A11D0008F10900087C
:10003000A11D0008A11D0008A11D0008A11D0008A8
:10004000A11D0008A11D0008A11D0008A11D000898
:10005000A11D0008A11D0008A11D0008A11D000888
:10006000A11D0008A11D0008A11D0008A11D000878
:10007000A11D0008A11D0008A11D0008A11D000868
:10008000A11D0008A11D0008A11D0008A11D000858
:10009000A11D0008A11D0008A11D0008A11D000848
:1000A000A11D0008A11D0008A11D0008A11D000838
:1000B000311E0008A11D0008A11D0008A11D000897
:1000C000A11D0008A11D0008A11D0008A11D000818
:1000D000A11D0008A11D0008D11E0008A11D0008D7
:1000E000A11D0008A11D0008A11D0008A11D0008F8
:1000F000A11D0008A11D0008A11D0008A11D0008E8
:10010000A11D0008A11D0008A11D0008A11D0008D7
:10011000A11D0008A11D0008A11D0008A11D0008C7
:10012000A11D0008A11D0008A11D0008A11D0008B7
:10013000A11D0008A11D0008A11D0008A11D0008A7
:10014000A11D0008A11D0008A11D0008A11D000897
:10015000A11D0008A11D0008A11D0008A11D000887
:10016000A11D0008A11D0008A11D0008A11D000877
:10017000A11D0008A11D0008A11D0008A11D000867
:10018000A11D0008A11D0008A11D0008A11D000857
:10019000A11D0008A11D0008A11D0008A11D000847
:1001A000A11D0008A11D0008A11D0008A11D000837
:1001B000A11D0008A11D0008A11D0008A11D000827
:1001C000BB4BBC4C1A694FF0FF3100222DE980482F
:1001D00019611A61586959615A61186A60F0805052
:1001E00018621A62586A59625A62196C41F0805159
:1001F0001964216841F480712160196F01F4407124
:10020000B1F5007F8BB003D04FF4803119671A67C6
:10021000DFF8A0C2A64DDCF80440DFF8E0E2A64B10
:10022000A64FDFF8DCA2A648A64EA749A74ADFF8EA
:10023000D492DFF8D4B224F40074CCF804402C6BD0
:1002400044F09F042C63D5F850C000244CF09F0C60
:100250006FF48A68C5F850C0CEF80440CEF8088024
:100260004FF6DF78CEF80C30CEF814804FF4EE4322
:100270004FF42A28CEF82030CEF824804FF0FF33F8
:10028000CEF800A04FF055384FF6FF7E4FF0800AB1
:100290007C60BB60C7F80C80C7F814E03C627C62ED
:1002A000C7F800A045277460B360C6F80C90C6F884
:1002B00014E034627462346044608360C0F80C807F
:1002C000C0F814E00462446204604C608B60CF604C
:1002D000C1F814E00C624C620C6054609360D4600E
:1002E000C2F814E0146254621460794ADFF8E0C185
:1002F000784F4CF804BB02F15401A1F154004FF0C7
:10030000010B4FF0100E02F10C06A1F1240902F1CD
:10031000740801626432416281616F49C0F838E05B
:1003200044618462C0F84080C0F804C080F808B01E
:100330000661C660C26142648264C263C0F83490E0
:10034000C0F83090C062C1642E6C644900654FF003
:10035000804246EA0B062E6442F27F5C4FF08056E4
:10036000C2F828C0D36294615463D4605460C2F868
:1003700014B0C2F800B087F81CA3C7F880613E60D3
:100380008C60D1F80C90DFF88481DFF884C1544E82
:100390004FF6FF0209EA020242EA0808514AC1F890
:1003A0000C80D268DFF86C81C0F874804D4842F050
:1003B0008072C260DCF80000766040EA0B00CCF886
:1003C000000006F11C020DEB0E004FF0200A4FF06A
:1003D00000084FF0000981F81FE081F822A0736245
:1003E0003262F261B460366076613661B46274671D
:1003F0000493CDE9088905940694079405F038F82C
:1004000004A801F075FC384B384AD6F814E0384897
:10041000DFF804C1C6F844E003F1100822F0070237
:1004200006F13001C3F81480C3F8108002924FF037
:100430004008069A71619C61DFF8E09086F84D40B3
:1004400020F00700B466746686F84EB0B464366473
:100450007267C6F83880C6F86C80CEF81010DFF8E6
:10046000C0E09C60DC60CCF80000B16106F1540093
:1004700006F15801C3F800E0029B86F84CB07065A5
:10048000F165B165C9F8003084F3118862B6B369CB
:10049000184A9A6106F178005A460094D821164B02
:1004A00000F01EFE8AF31188094B1B7A3AE000BF68
:1004B00000380240007000400551156400040240FD
:1004C000000C02400008024000100240001C0240E4
:1004D0006C0A002000E100E0B11D000800ED00E022
:1004E000780B0020F0ED00E0E80A00200000022078
:1004F0007F130020005A0008D109000800000240C4
:10050000A004802A55555551405A00080003FA05A9
:10051000001000E000440040280A00201C0B0020CE
:10052000210900085B450AD12B6CC02243F400333B
:100530002B6487F82623C7F88481C7F80480164BFC
:10054000164A5B6F934200F0778102F58062934216
:1005500000F0728140F2E2429A6044F240010124CC
:1005600042F22C10002219615C61D8601A60186890
:100570005B68094B0221197282F31188084C0092C2
:100580000848094B094EDFF828A04FF4A471402217
:1005900000F0A6FDA34611E06C0A00200010014007
:1005A000E40A0020E0080020F11D0008080B0020EC
:1005B000400A002041F2883000F06AFFA04B1B691E
:1005C0009B04F7D49F4BA048236000F0B1FB9F48E9
:1005D0009F4D00F0ADFB9F4800F0AAFB2A21206848
:1005E00003689B68984715F8011F0029F7D19A48BE
:1005F0009A4D00F09DFB2A21206803689B6898476C
:1006000015F8011F0029F7D19548964D00F090FB91
:100610002A21206803689B68984715F8011F002964
:10062000F7D19148914D00F083FB2A21206803689F
:100630009B68984715F8011F0029F7D18C488D4D0C
:1006400000F076FB2A21206803689B68984715F81C
:10065000011F0029F7D18848884D00F069FB2A2145
:10066000206803689B68984715F8011F0029F7D197
:100670008348844D00F05CFB2A21206803689B6856
:10068000984715F8011F0029F7D17F487F4D00F0EA
:100690004FFB2A21206803689B68984715F8011FC3
:1006A0000029F7D17A4B7B480291039300F040FB7D
:1006B0006548DFF8149200F03BFB774B0299197004
:1006C000029B01330293002759F8273009EB870575
:1006D000002B00F08B80DFF8F48100F081FA2D21EF
:1006E000206803689B68984718F8011F0029F7D114
:1006F0000298DFF8DC8100F04BFBDBF800000368B8
:100700002E219B6801379847384600F041FB202195
:10071000206803689B68984718F8011F0029F7D1E3
:100720002B68D3F8008098F8001039B1206803686E
:100730009B68984718F8011F0029F7D1574800F027
:10074000F7FA4FF4FA6000F0A3FE554B2D683360C2
:100750000023CAF80030CAF80430CAF80830CAF8D2
:100760000C30CAF810304F496A680B7002B19047DC
:10077000EB689847AB6803B1984701F0F9F8494B2B
:100780001B78002B50D0484D2D21206803689B68B2
:10079000984715F8011F0029F7D1444B444D1868BC
:1007A00000F0F6FA2021206803689B68984715F846
:1007B000011F0029F7D13368394A934209D9384DCE
:1007C000206815F8011B03689B68984733689D42B1
:1007D000F6D3384800F0ACFA039BD3F8009059F8F0
:1007E000273009EB8705002B7FF475AF039B53F887
:1007F000049F0393B9F1000F7FF462AF00F0F0F9AA
:100800002D4D114800F094FA4621206803689B683A
:10081000984715F8011F0029F7D11F4B1B783BB9EA
:10082000264800F085FAC5E6254800F081FA4BE736
:10083000244800F07DFABDE640F6C4129A608CE6CA
:10084000000802406C0A002018650008F85E0008E5
:10085000185E0008145F00083C5F00082C5E00086A
:10086000485F0008405E0008605F0008545E0008B2
:10087000A85F0008685E0008B45F00087C5E00089E
:10088000C05F0008905E0008D85F0008A45E000802
:10089000B05B0008086000082C0A0020185F000800
:1008A0000C0B0020540A0020CC5E0008B808002081
:1008B000E45E00081C5F0008E85E00082C5F00088A
:1008C000205F0008345F0008405C0008B85E000844
:1008D000C85E0008AFF30080AFF30080AFF3008084
:1008E0002DE9F04FC1F80CD0D0F80CD0BDE8F08F56
:1008F000002383F311882846A04701F0D1F900F0C6
:100900003FFB00DFFEE700000000000000000000E9
:10091000014B01221A707047700B0020AFF300806A
:1009200010B4202383F31188094C0A4B22681968FC
:10093000C31D23F00703891A8B429DBF9B182360B8
:1009400010460020002383F311885DF8044B7047A4
:10095000280A00201C0B0020AFF30080AFF30080BA
:1009600010B4202383F31188037F072B0ED8DFE810
:1009700003F0270D0D2308040D08026A9368013364
:10098000936090E80C001A60026853604FF0FF34E7
:10099000002281680D4B046202771B689A688A42C4
:1009A000FBD25A684260036000215860106081F3F6
:1009B00011885DF8044B7047036A00221A60E5E76E
:1009C000002383F311885DF8044B7047780B0020F7
:1009D000024B034A9B699A61FEE700BF780B002037
:1009E00020590008AFF30080AFF30080AFF3008020
:1009F000EFF30983203383F30988002383F31188FD
:100A0000704700BFAFF30080AFF30080AFF300800A
:100A10000D4A106870B403689469136001260025BC
:100A2000A1685A6006779061257700E01B689A6894
:100A30008A42FBD85A686260236021465C60146079
:100A400070BCFFF74DBF00BF780B0020AFF30080F4
:100A500072B6524880F30988022383F31488BFF3E7
:100A60006F8F4F494F4B4FF080544FF440420C640E
:100A70001A600B6843F001030B600A68484B950746
:100A8000FBD59A6822F003029A609A689A60194628
:100A90008B68434A13F00C03FAD1116801F0F90195
:100AA00011609360536F43F001035367536F3C49E8
:100AB0009C07FBD53C4B4B600B683A4A43F0807374
:100AC0000B6053685904FCD535490A68344B9201D0
:100AD000FBD5364A3649996040F2037111609A6835
:100AE00042F002029A601A4693682D4903F00C0303
:100AF000082BF9D14C6C2F4B2F4A44F480444C64A2
:100B00004C6E934244F480444C660BD2D9430A4461
:100B100022F0030204321A444FF0553143F8041B0B
:100B20009342FBD1254B83420CD2254A191D521A00
:100B300022F0030204321A444FF0553143F8041BEB
:100B40009342FBD11F4A204B9A420CD2D043184407
:100B500020F003001D4B0430184453F8041B42F8E6
:100B6000041B8342F9D11A4B1A4A93420AD2D94341
:100B70000A4422F0030204321A44002143F8041B01
:100B80009342FBD1144C154DAC4204D254F8043BB3
:100B90009847AC42FAD3FFF713FB00BF00080020D0
:100BA000003802400070004010600108003C024024
:100BB000001008380000002000040020000400207D
:100BC0000308002000080020B80800206065000825
:100BD000B808002078130020C0010008C0010008F8
:100BE00070B5094E4C243068074D03682D219B6871
:100BF0009847013CF7D128680449036802221B6822
:100C0000BDE87040184700BFE40A002028590008DA
:100C10000A4B30B403F114002025002453F8042BB0
:100C20003AB185F31188517F41F00401517784F383
:100C300011888342F2D130BC704700BF400A0020C7
:100C400010B4202383F311884FF080440023646A9A
:100C500083F31188641A521A944206D3054C06494C
:100C6000064A012323700B70106018465DF8044B90
:100C7000704700BF540A00202C0A0020B80800204A
:100C8000F0B40E4E0E4F35683B4605E013F8014BAD
:100C900011F8012B944207D1AB42F7D30B781BB963
:100CA00037601846F0BC7047064C0749074A0123D5
:100CB000237010600B701846F0BC7047080B0020C2
:100CC0000C0B0020540A00202C0A0020B808002039
:100CD00059B910B40649074C074A01232370106024
:100CE0000B7018465DF8044B704700231846704798
:100CF0002C0A0020540A0020B8080020AFF300801E
:100D0000202383F31188044A1368591C11600022C0
:100D1000187082F311887047080B0020AFF3008031
:100D200008B50078FFF7ECFF002008BDAFF30080A6
:100D300070B50178094D044639B1286803689B688D
:100D4000984714F8011F0029F7D12868044903685F
:100D500002221B68BDE87040184700BFE40A00206B
:100D600028590008AFF30080AFF30080AFF3008094
:100D700038B50178044641B1044D286803689B6882
:100D8000984714F8011F0029F7D138BDE40A002064
:100D900010B370B5134A84B06D466C46A2FB0013C5
:100DA000DB0803EB8301A0EB410000F13001C9B285
:100DB00004F8011B1846002BF0D1AC420AD90A4EA8
:100DC000013C01E014F8011D306803689B689847F6
:100DD000AC42F7D104B070BD034B186803683021F2
:100DE0009B681847CDCCCCCCE40A0020AFF3008040
:100DF00008B52022034682F31188006828B10268F2
:100E00001A60002383F3118808BD9A68002AF8D07D
:100E100058689047002383F3118808BDAFF3008022
:100E2000202383F31188024602E08B4207D01A4642
:100E300013688342F9D1002383F3118870470B684C
:100E40001360002383F31188704700BFAFF3008065
:100E500070B5202383F31188114A10689469836860
:100E6000A1688B4203D2002383F3118870BD03680D
:100E70001360012600255A6006779061257700E00F
:100E80001B689A689142FBD95A68626023602146C8
:100E90005C601460FFF724FD002383F3118870BDAC
:100EA000780B0020AFF30080AFF30080AFF3008039
:100EB00002688368916830B4134C4568194423462E
:100EC00091602A60016853F81C2F4D609A424FF0E0
:100ED00000014FF0FF35C160656210D09368012BAF
:100EE00006D9A26A4FF0804113444B6330BC70476F
:100EF000A36A4FF080420233536330BC70474FF017
:100F00008043D960F2E700BF780B0020AFF3008088
:100F1000F0B51A4D2E464FF0804756F81C4FC26070
:100F2000012998BF0221B44203617A6A1BD0AE6ADC
:100F3000A368921B1144994203D211E02468C91A94
:100F4000A3688B42FAD363684360046060601860F2
:100F50008160A3684FF0FF32591AA1606A62F0BD48
:100F60000E447E63EDE78B18AA624FF0000E7B63A0
:100F700002266B6AC7F810E0FE60E2E7780B0020FB
:100F8000FFF746BDAFF30080AFF30080AFF3008002
:100F9000044B1A689B6992689B689A4200D8704714
:100FA000FFF736BD780B0020AFF30080AFF3008071
:100FB00010B5202383F31188084B9B69DC6B99687B
:100FC0008C4201D0814200D29860D863FFF7E0FFE5
:100FD000002383F31188204610BD00BF780B00204A
:100FE000144BF0B49E6984680546B0682962844257
:100FF0004FF000020BD82A771B689A689442FBD9FD
:101000005A686A602B605D601560F0BC704732778B
:101010001A46126891688842FBD9546874600127A7
:101020003260566026602F77314628469D61F0BCBD
:10103000FFF756BC780B0020AFF30080AFF30080C1
:10104000164B70B59D69202383F311880468C3682B
:10105000AB63A0421CD0E96B4BB11A68934203D03A
:101060009268914238BF1146DB68002BF5D10346E8
:101070002268A66BA96020461A60002153609C601C
:10108000DE60A363FFF7ACFF002383F3118870BD1C
:1010900000238360002383F3118870BD780B002048
:1010A00008B5202383F3118883680133002B836004
:1010B00003DD002383F3118808BD0346006802683E
:1010C0001A6000215360FFF78BFF002383F3118820
:1010D00008BD00BFAFF30080AFF30080AFF3008026
:1010E0002DE9F04799460446202383F311881A4ED0
:1010F0001A4B7769243900EB010AC0F80CA00025CF
:1011000040F801904FF0010C00F128090899CAF845
:10111000041000F1240E4FF00208CAF820302946CE
:10112000826006614761C26380F81C8080F81EC03F
:10113000457770618563456385613861C0F824E057
:10114000C0F82C90C0F82890FFF74AFF85F311886B
:101150002046BDE8F08700BF780B0020F1080008AA
:10116000074B30B41A6899691468087701256360E1
:1011700015771C60104630BC9A61FFF7B1BB00BF09
:10118000780B0020AFF30080AFF30080AFF3008056
:1011900010B5202383F311880B4CA269134653F832
:1011A000280F984208D0016891620D224B600023FD
:1011B000027783F3118810BD0E20FFF7D1FFA269DB
:1011C000906A02F12803EEE7780B0020AFF300806D
:1011D000202383F311888368013B002B836004DBA9
:1011E0000020002383F31188704710B5084CA269D2
:1011F000106241685160034610605A6005200A6021
:10120000FFF7AEFFA369186A002383F3118810BDAE
:10121000780B0020AFF30080AFF30080AFF30080C5
:1012200030B54B1C87B012D00C4C0D4AA369054653
:1012300001A8FFF76DFE2846FFF792FF049B13B14C
:1012400001A8FFF735FEA369186A07B030BD034C4B
:10125000FFF786FFA369186A07B030BD780B00203E
:1012600061090008AFF30080AFF30080AFF30080A6
:1012700003468068421E002A9A6001DB0020704706
:1012800010B461B1094A926913625C68052082E872
:1012900018005A6022605DF8044BFFF7C1BF9860E8
:1012A0005DF8044B4FF0FF30704700BF780B002013
:1012B00069B1084B10B4024644689B69042083E876
:1012C0001400536023605DF8044BFFF7A9BF4FF093
:1012D000FF307047780B0020AFF30080AFF3008041
:1012E0002DE9F04F83B004468B4616460193D0F8A3
:1012F0001C804FF0200989F311880027CDF8009059
:10130000BA46A5680BF101096A1E20460DB3636950
:10131000A2605A1C62619BF800201A7023696269FE
:101320009A4224BFE3686361B8F1000F00D0C04760
:101330008AF31188013E07F1010712D0009B83F365
:101340001188A568CB466A1E0BF101092046002DC5
:10135000DDD120460199FFF7ABFF0028D1D085F3FE
:101360001188384603B0BDE8F08F00BFAFF30080AE
:10137000F8B504460F461646202383F3118803E090
:10138000FFF796FF002818DBA56820463146002DA0
:10139000F6D06369013D5A1C6261A5601F70236924
:1013A00062699A4224BFE3686361E3690BB1204636
:1013B0009847002080F31188F8BD85F31188F8BDA7
:1013C0002DE9F04F044683B0894693461D46D0F878
:1013D0001C80202787F3118800260197B246B8F1B8
:1013E000000F05D02046C04702E0FFF761FFD8B9E3
:1013F000A76820462946002FF7D0A2697B1E511C02
:10140000A161A360137809F8013B2369A2699A429C
:1014100024BFE368A3618AF311880136B34505D080
:10142000019B83F31188DAE787F31188304603B014
:10143000BDE8F08FAFF30080AFF30080AFF3008022
:1014400070B520230E46044683F31188C3692BB17F
:10145000984703E0FFF72CFF002815DBA56820461E
:101460003146002DF6D0A2692169531C8B4205F14B
:10147000FF35A361A56028BFE368107828BFA3618A
:10148000002383F3118870BD85F3118870BD00BF00
:1014900008B50146202383F311880820FFF7C0FE1A
:1014A000002383F3118808BDAFF30080AFF3008001
:1014B00008B50120FFF7ECFF202383F311884FF0DC
:1014C00080420023506A83F3118808BDAFF3008087
:1014D00000228168084B10B4044602771B689A68A2
:1014E0008A42FBD25A686260236020465C601460C6
:1014F0005DF8044B704700BF780B0020AFF300800D
:10150000836942699A4210B583681CD00133541C28
:10151000836044611170426903699A420CD2036886
:1015200098420ED01A6802600024506018461C626F
:10153000FFF7CEFF204610BDC368436103689842A1
:10154000F0D1002010BD002BE0D06FF0030010BDE3
:1015500038B5826943699342836817D00569511C85
:10156000013383608161A94214780CD203689842E8
:1015700007D01A6802600021506018461962FFF710
:10158000A7FF204638BDC3688361EFE7002BE5D095
:101590006FF0020038BD00BFAFF30080AFF30080F2
:1015A0000E4B70B520229C6982F3118800F128054A
:1015B000067F2562C26A62600E2E21632560C462C6
:1015C000146007D00C20FFF7CBFD206A002383F3C3
:1015D000118870BDFFF77CFFF4E700BF780B002097
:1015E000436B027F19430A2A41630AD00B2A00D0B9
:1015F0007047036A19408B42FAD100230362FFF758
:1016000067BF036A1942F8D1704700BFAFF300808B
:1016100070B50468A04206460D460DD0E3682B4322
:10162000E36015B12269134203D06068A168FFF737
:10163000D7FF2468A642F1D170BD00BFAFF3008090
:10164000134A70B52023946983F31188A36BD3B137
:1016500000260AE01168956B19604B609A60DD60A6
:101660009363FFF735FFA36B4BB11A68D968A16389
:1016700093421046EED19E60A36B002BF5D1E36B35
:10168000A360FFF785FC002383F3118870BD00BFC2
:10169000780B0020AFF30080AFF30080AFF3008041
:1016A000124B30B4044605689869E3688363AC4222
:1016B00017D0C16B4BB11A68934203D09268914224
:1016C00038BF1146DB68002BF5D12B68AA6B81600F
:1016D000236028465C60A560E260AC6330BCFFF725
:1016E000F7BE0023A36030BC704700BF780B00201A
:1016F000304B826870B59C69002A55D0A168936808
:101700009942054606D9137F9160062B33D0072BEB
:101710001DD09BB12B4603E09968A268914202D389
:101720001B689D42F8D15A68626023605C60146057
:1017300025620620BDE87040FFF712BD92E80A005E
:101740001960116810464B60FFF7C2FEE2E792E8AD
:1017500009001860166A10684360334602E0986812
:10176000884202D31B689E42F9D1596851601360C8
:101770005A600A60CEE792E809001860166A10689D
:101780004360334602E09868884202D31B689E4259
:10179000F9D15968516013605A600A60B268A16853
:1017A00093688B42AFD3B5E7A36BC3608460A0633B
:1017B00070BD00BF780B0020AFF30080AFF3008056
:1017C00008B5202383F31188FFF792FF002383F3EA
:1017D000118808BDAFF30080AFF30080AFF3008045
:1017E00070B50F4C002818BF044604F110052846B8
:1017F0000E46FFF7E5FFA36873B100221446586850
:101800001B6801340244002BF9D106B1326028462E
:10181000FFF716FC204670BD1A461C46F5E700BFD0
:10182000E80A0020AFF30080AFF30080AFF3008040
:10183000F8B550F8085C05F110070646A0F1080459
:1018400008353846FFF7BCFF2B46AB4204D0A34215
:1018500002D31B68AB42FAD11A681AB1944201D381
:101860001346F2E756F8041C46F8082C1C6001F1F8
:10187000080256F8085CA018A8420AD0596801F17D
:1018800008021A44944212D03846BDE8F840FFF7E7
:10189000D7BB4068A25846F8082C0A18083246F808
:1018A000042C596801F108021A449442ECD116E95B
:1018B00005000A44083218605A603846BDE8F8400E
:1018C000FFF7BEBBAFF30080AFF30080AFF3008043
:1018D00030B40246202181F31188837F013BDBB2C3
:1018E0008377002484F3118813B9047F0F2C01D06F
:1018F00030BC7047447F04F00304012C0FD0022C4D
:10190000F6D14469006920611569106C6C6181F33E
:10191000118801681160026083F31188E8E7436968
:1019200001691961026930BC5361FFF781BF00BFD3
:1019300038B50446202383F31188037F0F2B07D08B
:10194000084B426A9B6909201A606362FFF708FC32
:10195000256A002383F311882046FFF7B9FF284644
:1019600038BD00BF780B0020AFF30080AFF30080DC
:1019700070B5074C002604F1140554F8040B18B197
:10198000FFF7D6FF44F8046CAC42F6D170BD00BF3F
:10199000400A0020AFF30080AFF30080AFF3008077
:1019A0002DE9F04F474E484DB369484F9A68484B70
:1019B000DFF8308183B0043A009328463B464FF469
:1019C000A471FFF78DFBB36942499A68C8F8040017
:1019D000A5F5A4743B460091053A20464FF4A47146
:1019E000FFF77EFBB3693C499A68C8F800003B46A4
:1019F0000091013A05F576704FF4A471FFF770FB82
:101A0000B36936499A68C8F810000091023A05F5A2
:101A100024703B464FF4A471FFF762FB2022C8F804
:101A20000C0082F31188B36971699868DFF8B8A077
:101A3000C4F8B473033805F5A473002705F51B7BC0
:101A4000C4F89802C4F8CC02DFF8A0C0C4F8A062C1
:101A500005F5B6704FF0020E05F5B8754FF00109A7
:101A6000C4F89CB2C4F8B8A3C4F8D4C384F8ACE2F8
:101A7000C4F8A412736184F8AD72C4F8C872C4F8D3
:101A8000C472C4F8A87284F8AE920B61C8F808302A
:101A9000C4F8B402C4F8BC52C4F8B85287F3118831
:101AA000D8F8080082F31188FFF712FD87F3118838
:101AB000FFF75EFF0A49484603B0BDE8F04FFFF765
:101AC000DFB800BF780B0020580E0020210D000861
:101AD0002C590008405900083059000834590008B2
:101AE0003C590008400A002038590008F108000855
:101AF000F0B5274F274EBB69274D9A68274B284CD6
:101B000083B0053A009330462B464FF4A471FFF79B
:101B1000E7FABB6923499A6820602B460091043A92
:101B200006F5A4704FF4A471FFF7DAFABB691E49F9
:101B30009A6860602B460091033A06F524704FF4D2
:101B4000A471FFF7CDFABB6918499A68A0602B46CB
:101B50000091023A06F576704FF4A471FFF7C0FACF
:101B6000BB6913499A68E060013A2B46009106F57B
:101B7000A4604FF4A471FFF7B3FA2061FFF7F8FEF9
:101B80000C49012003B0BDE8F040FFF779B800BF71
:101B9000780B0020100D0020210D0008405900088E
:101BA000400A00202C590008385900083459000810
:101BB000305900083C590008AFF30080AFF30080B3
:101BC000F8B5214E002818BF064606F11007073168
:101BD000384621F0070506F10804FFF7F1FD03E0A0
:101BE00043689D4212D9044620680028F8D138463F
:101BF000FFF726FA33682BB305F10800984708B3BE
:101C00000660456000F108042046F8BD05F10802B1
:101C10009A4209D9036823600446384644F8086BA1
:101C2000FFF70EFA2046F8BD6FF00701491B00EBE5
:101C3000020E0B4401688150CEF80430C4F800E075
:101C40004560E9E70024DFE7E80A0020AFF3008001
:101C500083680133002B836000DD704703681A68D6
:101C600002600021506018461962FFF731BC00BFC6
:101C700070B5856881600135002D0CDC04466FF07D
:101C800001066068436863601C60FFF721FC013552
:101C9000012D0662F5D170BDAFF30080AFF3008077
:101CA00038B52022034682F311880E4A9469606A8F
:101CB000236204F12405A84206D003686362FFF79B
:101CC00007FC606AA842F8D1637F9B0704D163696F
:101CD00022691A61226953610F20BDE83840FFF77D
:101CE0003FBA00BF780B0020AFF30080AFF3008055
:101CF0000E4B0F495A688368F0B44F6FC66841684D
:101D0000D0E90445D31ADB1BE41845F10005013680
:101D10008B42C6608360C0E9044505D802689342DF
:101D200038BF0360F0BC70474360FBE7001000E081
:101D3000780B0020AFF30080AFF30080AFF300809A
:101D4000202383F311880F4B5B6813F4006302D1E7
:101D500083F311887047EFF309834FF0807243F8E3
:101D6000042CA3F1200282F30988074A11689269C2
:101D70008968926891428CBF044A054A43F8082C4E
:101D8000704700BF00ED00E0780B0020FF0800085E
:101D900002090008AFF30080AFF30080AFF30080CA
:101DA000FEE700BFAFF30080AFF30080AFF3008029
:101DB000024AD36843F08003D36070470044004078
:101DC000024B00225B601B609A6070472C0B002066
:101DD000024B01225B601B609A607047200B002061
:101DE000704700BFAFF30080AFF30080AFF3008017
:101DF00008B5094B094A9B69094C9A6120252E4672
:101E0000668341F28830FFF743FB258341F2883037
:101E1000FFF73EFBF4E700BF780B0020205D0008D1
:101E200000000240AFF30080AFF30080AFF300800A
:101E30002DE9F8434FF0804400202061202585F3F0
:101E40001188DFF87C90616AD9F81C30D9F828E055
:101E50009A68CEEB0106964238BF09F11C061CD3E6
:101E6000804609F11C061968DF687244C9F8282009
:101E70004E60C9F81C10C3F80C8088F311881869EB
:101E8000B84785F31188D9F81C30616AD9F828E081
:101E90009A68CEEB01009042E5D2B3424FF0804306
:101EA0000BD0012A14BF52188A1C5A63002383F3F3
:101EB0001188BDE8F843FFF743BF0022DA60F5E779
:101EC000780B0020AFF30080AFF30080AFF3008009
:101ED0002DE9F0414B4F7D6FD5F80C802B68DE0566
:101EE0009CB25ED4202383F3118814F02F0F08D105
:101EF00031E0A0066E681DD42C68A4B214F02F0F38
:101F000029D02007F5D014F0080F0CBF0021802144
:101F1000E20748BF41F02001A30748BF41F040015C
:101F2000660748BF41F480713748FFF771FBA00690
:101F30006E68E1D57B697BB3F1B23448FFF7E0FA14
:101F40000028D9DA30488021FFF762FB2C68A4B260
:101F500014F02F0FD5D1002383F3118818F0800FD0
:101F600001D022062CD4630612D5202383F31188D6
:101F70007A6CBB6C23489A422FD04FF6BF7308EAA5
:101F800003036FF04002EB6000232A6083F31188A3
:101F9000BDE8F041FFF7D4BE1B480421FFF738FB32
:101FA000CAE7202383F311884FF40071381DFFF72F
:101FB0002FFB6FF480732B60002383F3118891E76C
:101FC000202383F311881248FFF7C2FA00280CDBA4
:101FD0006860002383F31188C5E7836B002BCCD0A6
:101FE00004301021FFF714FBC7E707480821FFF76B
:101FF0000FFB4FF63F7308EA030343F04003EB6027
:10200000E7E700BF6C0A0020700A0020780A002071
:102010009C0A0020AFF30080AFF30080AFF3008094
:102020000C30FFF7CDB900BFAFF30080AFF30080F5
:102030000C304FF0FF33FFF7C3B900BFAFF30080A0
:102040003030FFF74DB900BFAFF30080AFF3008031
:1020500030304FF0FF33FFF743B900BFAFF30080DC
:102060000C30FFF7EDB900BFAFF30080AFF3008095
:102070000C304FF0FF31FFF7E3B900BFAFF3008042
:102080003030FFF775B900BFAFF30080AFF30080C9
:1020900030304FF0FF32FFF76BB900BFAFF3008075
:1020A00010B52F482F4CFEF763FE4FF4A870FEF7D3
:1020B0006FFE2046FEF73CFE2B48FEF759FE4420FB
:1020C000FEF766FE2046FEF733FE2848FEF750FE78
:1020D0001420FEF75DFE2046FEF72AFE2448FEF798
:1020E00047FE0C20FEF754FE2046FEF721FE214855
:1020F000FEF73EFE0420FEF74BFE2046FEF718FEDC
:102100001D48FEF735FE1420FEF742FE2046FEF77E
:102110000FFE1A48FEF72CFE1020FEF739FE20466F
:10212000FEF706FE1648FEF723FE0820FEF730FEF7
:102130002046FEF7FDFD1348FEF71AFE2420FEF7A9
:1021400027FE2046FEF7F4FD0F48FEF711FE28207B
:10215000FEF71EFE2046BDE81040FEF7E9BD00BFB9
:10216000285D0008385D0008405D0008505D0008EB
:10217000605D0008705D0008805D0008905D0008EB
:10218000A05D0008B05D0008C05D0008AFF30080EE
:1021900038B5FFF78DF903F0A3FB144D0024144864
:1021A000FFF70EFB1248FEF74BFF1148FFF708FB45
:1021B0000F48FEF745FF0E48FFF702FB0C48FEF7FD
:1021C0003FFF0B48FFF7FCFA0948FEF739FF2B7871
:1021D0000134002BE3D00748FEF7CAFDA000FEF74C
:1021E000D7FD0548BDE83840FEF7A2BD700B0020C2
:1021F0002C0B0020D05D0008E05D0008AFF30080EC
:10220000F8B5264A264B274F5B60002402F11001E7
:102210001B6019615A619A61DA609C60DC611C6222
:10222000FFF746F903F05CFB2646202585F311886D
:1022300000211B48FFF764F901211948FFF760F9F5
:1022400002211748FFF75CF903211548FFF758F9F9
:1022500086F311884FF0FF311148FFF7F1F84FF086
:10226000FF310F48FFF7ECF84FF0FF310C48FFF754
:10227000E7F80B484FF0FF31FFF7E2F83B78013405
:10228000002BD3D00848FEF773FDA000FEF780FDB9
:102290000648BDE8F840FEF74BBD00BF300A0020FD
:1022A000BC080020700B0020D05D0008F05D000825
:1022B00038B5FFF7FDF803F013FB144D0024144864
:1022C000FEF786FF1248FEF7EBFE1148FEF780FF8F
:1022D0000F48FEF7E5FE0E48FEF77AFF0C48FEF7C2
:1022E000DFFE0B48FEF774FF0948FEF7D9FE2B7896
:1022F0000134002BE3D00748FEF73AFDA000FEF7BB
:1023000047FD0548BDE83840FEF712BD700B0020C0
:10231000200B0020D05D0008FC5D0008AFF30080BA
:1023200038B5FFF7C5F803F0DBFA154D002420237C
:1023300083F311881348144A01210023FEF7E8FDB6
:10234000114A124842F210710023FEF7E1FD0D48D8
:10235000FEF7AEFD0D48FEF7ABFD002383F31188B9
:102360002B780134002BE2D00948FEF701FD600014
:10237000FEF70EFD0748BDE83840FEF7D9BC00BFA8
:10238000700B0020580A0020E11D00083C0B0020C3
:10239000D05D00080C5E0008AFF30080AFF3008052
:1023A000024B00225B601B609A607047200B00208C
:1023B000704700BFAFF30080AFF30080AFF3008041
:1023C000704700BFAFF30080AFF30080AFF3008031
:1023D00030B4084A084B09485B60151D04240021ED
:1023E0001D619C601B605A619A61DA60D861196254
:1023F00030BC7047100D002000080020C1230008E9
:10240000084A094B094810B40021141D1C615B6087
:102410001B605A619A61DA60D861996019625DF84F
:10242000044B7047100D002024080020C123000831
:1024300009490A4B10B400224FF4CC6481E814001F
:1024400003F110009960DA60586118611A609A61AE
:102450005DF8044B704700BF100D0020D80C002021
:102460002DE9F04184B004ACDFF8CC802D4F2E4E26
:102470002E4D002344F8043DFFF71AF8D8F8183021
:102480009A6800943346013A38464FF4A471FEF737
:1024900027FED8F8183028609A6800943346013A2D
:1024A00007F5A4704FF4A471FEF71AFED8F818309F
:1024B00068609A6800943346013A07F524704FF437
:1024C000A471FEF70DFED8F81830A8609A68009441
:1024D0003346013A07F576704FF4A471FEF700FE1B
:1024E000D8F81830E8609A680094013A33464FF4FF
:1024F000A47107F5A460FEF7F3FD286142F21070A5
:10250000FEF7C6FFFEF784FBFFF732FA0848FEF736
:102510002FFC0398FEF73CFC0648FEF709FC04B0CC
:10252000BDE8F081100D002041250008400A002080
:10253000D05D0008F0640008780B0020AFF3008045
:1025400038B5094D0446FEF783FCFEF781FCFEF723
:102550007FFCFEF77DFC2368AA6904332360537F68
:102560005B07F0D5002038BD780B0020AFF300806A
:10257000F0B5124B124F9B6983B09D68FEF798FF30
:1025800003F0AEF90024013526460E4B00960E48A6
:102590004FF4A4712A46FEF7A3FD3B780134002BCB
:1025A000F3D00A48FEF7E4FB2046FEF7F1FB0848AB
:1025B00003B0BDE8F040FEF7BBBB00BF780B0020C6
:1025C000700B0020B1230008100D0020D05D000822
:1025D000FC640008AFF30080AFF30080AFF300802D
:1025E00010B5074CA3695B7F5A0706D40548FEF770
:1025F000EFFDA3695B7F5B07F8D5002010BD00BF2E
:10260000780B0020200B0020AFF30080AFF3008098
:102610002DE9F0433A4E3B4BB2693B4892683B4D43
:10262000DFF80C9183B0002405324FF4A4710094BC
:10263000FEF756FDB36928609A683548314B00941F
:1026400004324FF4A471FEF74BFDB36968609A68D9
:1026500030482C4B009403324FF4A471FEF740FD38
:10266000B369A8609A682C48264B009402324FF454
:10267000A471FEF735FDB369E8609A682748214BDD
:10268000009401324FF4A471FEF72AFD2861FEF791
:102690000FFF03F025F9A0462027202687F3118895
:1026A0001F480021FFF7E4FA0025FEF771FC88F3CC
:1026B000118899F800300134002BEED0FEF7A8FA0B
:1026C00086F3118816482946FFF7D2FAFEF760FC18
:1026D00085F31188FFF74CF91248FEF749FB2046B5
:1026E000FEF756FB1048FEF743FB04EB44004000A6
:1026F000FEF74EFB0D4803B0BDE8F043FEF718BBF4
:10270000780B0020E1250008100D0020400A002071
:10271000580E0020A00F0020E810002030120020EA
:10272000200B0020D05D000808650008F064000858
:10273000700B0020AFF30080AFF30080AFF3008098
:10274000F0B5134B134F9B6983B09D68FEF7B0FE45
:1027500003F0C6F80024013D26460F4B00964FF4C7
:10276000A4712A460D48FEF7BBFCFFF7E1F83B7861
:102770000134002BF1D00A48FEF7FAFA2046FEF7A2
:1027800007FB084803B0BDE8F040FEF7D1BA00BF30
:10279000780B0020700B0020B1230008100D0020E2
:1027A000D05D0008FC640008AFF30080AFF3008048
:1027B0002DE9F047254B26489A69264B9268DFF8A9
:1027C000A49082B0002501324FF4A4710095FEF769
:1027D00087FC214B04461860FEF76AFE03F080F880
:1027E000AA464FF02008202788F3118800212046B0
:1027F000FEF7F6FB20460021FEF7F2FB2046002103
:10280000FEF7EEFB20460021FEF7EAFB00268AF3E6
:10281000118899F800300435002BE4D087F3118833
:102820004FF0FF312046FEF7DBFB86F31188FFF700
:102830009FF80A48FEF79CFA6800FEF7A9FA0848D4
:1028400002B0BDE8F047FEF773BA00BF780B002076
:10285000100D002071280008400A0020D05D0008FB
:10286000F0640008700B0020AFF30080AFF300802D
:10287000074A10B52023946983F311880320FEF7DB
:102880006FFC236A002BF9D0002080F3118810BD63
:10289000780B0020AFF30080AFF30080AFF300802F
:1028A00070B520260025FEF773FC046B86F31188B3
:1028B0002146FEF795FB85F31188002CF3D12046C5
:1028C00070BD00BFAFF30080AFF30080AFF30080B6
:1028D00070B50546FEF7ECFD03F002F8074E002444
:1028E00028460121FEF75CFE33780134002BF7D037
:1028F00028460021FEF754FE204670BD700B0020D4
:102900002DE9F0412C4F2D4DBA692D4B92682D4C7D
:10291000DFF8C08082B000260132284600964FF4CE
:10292000A471FEF7DDFBBB6920609A680096434600
:10293000023A05F5A4704FF4A471FEF7D1FBBB6910
:1029400060609A6800964346033A05F524704FF498
:10295000A471FEF7C5FBBB69A0609A680096434668
:10296000043A05F576704FF4A471FEF7B9FBBB6924
:10297000E0609A680096053A43464FF4A47105F565
:10298000A460FEF7ADFB20612068FFF7A1FF0446BD
:10299000FEF7EEFF0C48FEF7EBF92046FEF7F8F9DC
:1029A0000A48FEF7E5F96000FEF7F2F9084802B0C0
:1029B000BDE8F041FEF7BCB9780B0020100D0020F7
:1029C000A1280008400A0020D05D00081C6500080E
:1029D000F0640008B1230008AFF30080AFF300807B
:1029E00010B5134B13489A69134B926882B00021BB
:1029F000013200914FF4A471FEF772FB0F4B186087
:102A0000FFF766FF0446FEF7B3FF0D48FEF7B0F987
:102A10002046FEF7BDF90B48FEF7AAF96000FEF765
:102A2000B7F9094802B0BDE81040FEF781B900BF10
:102A3000780B0020100D0020A1280008400A00207B
:102A4000D05D00081C650008F0640008AFF300804A
:102A500010B5134B13489A69134B926882B000214A
:102A6000013A00914FF4A471FEF73AFB0F4B186046
:102A7000FFF72EFF0446FEF77BFF0D48FEF778F9BF
:102A80002046FEF785F90B48FEF772F96000FEF765
:102A90007FF9094802B0BDE81040FEF749B900BF10
:102AA000780B0020100D0020A1280008400A00200B
:102AB000D05D00081C650008F0640008AFF30080DA
:102AC00008B500214FF4FA620248FEF751FC0020DD
:102AD00008BD00BF00080020AFF30080AFF3008006
:102AE0002DE9F047202382B083F311888F4F7A6954
:102AF000BB699A425DD000210120FEF7E9F8B8BB1E
:102B000080F311884124894D2146013428464FF035
:102B1000FF32E4B2FEF72CFC452CF4D1202686F3DC
:102B200011880220A968B1FA81F14909FEF7D0F8AD
:102B30008046E8B980F31188042482464FF02009CA
:102B400086F31188794D2846FEF702FD8AF3118835
:102B5000C0B2FEF7D5F8013CF0D189F311886A695B
:102B6000AB699A422AD041460320FEF7B1F828B15A
:102B7000002383F3118802B0BDE8F08780F3118849
:102B800004206B49FEF77CF804460028F3D1202688
:102B900086F31188654D2846FEF7DAFC033014BF32
:102BA000002101210520FEF793F870B184F311880C
:102BB000E1E7B968003118BF01219DE7AB6813F167
:102BC000000818BF4FF00108CDE780F3118859497C
:102BD000034608222846FEF783FBA0F104010620E5
:102BE000B1FA81F14909FEF773F804460028C2D111
:102BF00086F311880720A968B1FA81F14909FEF727
:102C000067F880460028D1D180F311884A4B4B48A1
:102C10009A694B4B9268CDF8008001324FF4A47151
:102C2000FEF75EFA474B186086F31188E9682B6956
:102C3000AA685B1A991AA1F104010820B1FA81F17E
:102C40004909FEF745F810B188F3118893E780F33E
:102C50001188FEF78DFE86F31188E9682A692B68D2
:102C60006961521AAB42A961AA6018BF6FF00104F2
:102C700009D01A683A60576018461C62FEF728FCB3
:102C80003B68BB42F5D1002585F31188202686F3E9
:102C9000118807F108010EC99B1A591A0920B1FAC7
:102CA00081F14909FEF714F8204C034610B185F371
:102CB000118860E780F311881E4902222046FEF742
:102CC0000FFB0238414241410A20FEF701F803465A
:102CD00000287FF450AF174902222046FEF700FB80
:102CE000821E514251410B20FDF7F2FF054600289C
:102CF0007FF441AF86F311880C20A168B1FA81F10D
:102D00004909FDF7E5FF01460028D0D180F311887D
:102D10000A222046FEF72CFB431C594259410D2044
:102D200002B0BDE8F047FDF7D3BF00BF00080020A8
:102D300028650008580E0020780B0020100D002098
:102D4000C12A0008400A0020AFF30080AFF30080E2
:102D500008B54FF4FA610248FEF772FB002008BD87
:102D600024080020AFF30080AFF30080AFF30080B1
:102D70002DE9F041202482B084F31188984F01207E
:102D8000B968B1FA81F14909FDF7A2FF0646E8B931
:102D900080F3118884F311884124914D2146013438
:102DA0002846E4B2FEF7ACFB452CF6D1002383F3B2
:102DB0001188202383F31188AA696B699A423AD05B
:102DC00031460220FDF784FF044628B1002383F337
:102DD000118802B0BDE8F08180F31188202383F3CD
:102DE00011887F482146FEF78BFB043014BF002179
:102DF00001210320FDF76CFFC0B980F31188042482
:102E0000774D4FF0FF312846FEF71AFBC0B2FDF7B1
:102E100077FF013CF4D1202686F311880420A968AD
:102E2000B1FA81F14909FDF753FF48B184F31188E4
:102E300002B0BDE8F081AE68003618BF0126BFE7DA
:102E400084F3118805206749FDF71AFF0028C0D1D7
:102E500086F311884124624D214601342846E4B2AC
:102E6000FEF74EFB452CF6D1002383F311885E4913
:102E700008222846FEF7A4FAA0F104010620B1FAC0
:102E800081F14909FDF724FF04460028A1D120263D
:102E900086F311880720A968B1FA81F14909FDF785
:102EA00017FF0028C2D180F3118886F311884124CE
:102EB0004B4D214601342846E4B2FEF721FB452C58
:102EC000F6D1002383F31188474928460222FEF7F2
:102ED00077FAA0F102010820B1FA81F14909FDF762
:102EE000F7FE00287FF475AF03463F4902222846CB
:102EF000FEF766FAA0F102010920B1FA81F1490951
:102F0000FDF7E6FE804600287FF463AF202686F3B7
:102F100011880A20A968B1FA81F14909FDF7D8FEA4
:102F2000044610B188F3118853E780F3118886F3C3
:102F3000118821462846FEF7E3FA2B68EA68AC6060
:102F4000AB426A61AA6118BF6FF0010409D01A6828
:102F50003A60576018461C62FEF7BAFA3B68BB42FB
:102F6000F5D14FF0000888F31188202686F31188E8
:102F70000B20B968B1FA81F14909FDF7A9FE184D96
:102F800004460028CED180F31188184B18489A695E
:102F9000184B9268009401324FF4A471FEF7A0F828
:102FA000154B186086F311880C20A968B1FA81F1DD
:102FB0004909FDF78DFE00287FF438AF80F31188B2
:102FC000FEF7D6FC28460A21FEF73AFA431C59427E
:102FD00059410D2002B0BDE8F041FDF779BE00BFB8
:102FE0002408002028650008580E0020780B0020D7
:102FF000100D0020512D0008400A0020AFF3008082
:103000002DE9F8438046202585F31188104E30695C
:10301000837F013383774FF0000989F311884F468E
:1030200000E02046404508BF49F0010985F31188BA
:103030000469B4421DBFA37F0133A377002487F343
:103040001188FEF745FC002CEBD14846BDE8F8831B
:10305000780B0020AFF30080AFF30080AFF3008067
:10306000464B47499B69986810B5013802F008FA49
:1030700004460120A17F091AB1FA81F14909FDF73F
:1030800027FE00B110BD202383F31188A37F0133F5
:10309000A37780F31188A17F0220091AB1FA81F188
:1030A0004909FDF715FE0028ECD12046FEF710FC7B
:1030B000A17F0320A1F10101B1FA81F14909FDF7D6
:1030C00007FE0028DED12046FFF79AFF01460420C4
:1030D000FDF7FEFD0028D5D12046FFF791FF014600
:1030E0000520FDF7F5FD0028CCD12046FEF7F0FBCA
:1030F000A17FB1FA81F106204909FDF7E9FD002819
:10310000C0D1217FB1FA81F107204909FDF7E0FD27
:103110000028B7D12046FFF773FF01460820FDF7CE
:10312000D7FD0028AED12046FFF76AFF01460920EF
:10313000FDF7CEFD0028A5D14FF4FA70FEF7A8F9EF
:10314000217FA1F10F03594259410A20FDF7C0FD2B
:10315000002897D12046FFF753FF01460B20FDF7CB
:10316000B7FD00288ED12046FFF74AFF80F001010D
:10317000C9B20C20BDE81040FDF7AABD780B0020B5
:1031800030590008AFF30080AFF30080AFF3008048
:10319000034B00224FF4A47159601A609A60704783
:1031A000C80C0020AFF30080AFF30080AFF30080C5
:1031B00009490A4B10B400224FF4CC6481E8140092
:1031C00003F110009960DA60586118611A609A6121
:1031D0005DF8044B704700BF100D0020D80C002094
:1031E00000207047AFF30080AFF30080AFF30080A2
:1031F000034B00224FF4A47159601A609A60704723
:103200004C080020AFF30080AFF30080AFF30080E4
:1032100009490A4B10B400224FF4CC6481E8140031
:1032200003F110009960DA60586118611A609A61C0
:103230005DF8044B704700BF100D0020500B0020BC
:1032400070B52F4B2F4C05222025002085F31188C7
:1032500021681960236080F311886168013A0B448A
:10326000F4D105252748FDF7C3FD011C18BF012136
:103270000120FDF72DFD90BB013DF3D12148FDF765
:10328000B7FDB0FA80F102204909FDF721FD30BBFE
:103290001D4B202003F1140653F8042B80F31188F2
:1032A00021681160226085F31188B342F4D10524AE
:1032B000144D2846FDF79CFD011C18BF0121032079
:1032C000FDF706FD58B9013CF2D12846FDF790FD07
:1032D000B0FA80F104204909FDF7FAFC00B170BD95
:1032E00010220A4B2C6028466A60AB60FDF780FD17
:1032F000BDE87040B0FA80F105204909FDF7E8BC4F
:10330000100D00204C080020D0640008E1310008B6
:103310002F4A30499269F8B52F4B956803F1100791
:103320002026002453F8042B86F3118808681060C7
:103330000A6084F31188BB42F4D12849284C681EE6
:1033400002F0EEF827492060A81E02F0E9F82649AD
:103350006060E81E02F0E4F82449A060281F02F033
:10336000DFF82349E060681F02F0DAF82168206185
:1033700041B1616831B1A16821B1E16811B1B0FA20
:1033800080F149090120FDF7A3FC00B1F8BDFEF76B
:10339000EFFA02201749FDF773FC0028F6D1042448
:1033A0000C48FDF725FD011C18BF01210320FDF786
:1033B0008FFC0028EAD1013CF2D10648FDF718FD48
:1033C000BDE8F840B0FA80F104204909FDF780BC5F
:1033D000780B0020C80C0020D06400083059000889
:1033E000400A002034590008385900082C590008B8
:1033F0004059000828650008AFF30080AFF3008053
:1034000008B50078FDF77CFC002008BDAFF3008014
:1034100070B52C4B2C489B692C4C9D6882B001A93F
:10342000FEF7DEF92A49681E02F02AF829492060D1
:10343000A81E02F025F8694660602348FEF7D0F91F
:1034400000992148FEF7BCFB23490646E81E02F01E
:1034500017F8A0603046FEF7EBF9216821B16168EA
:1034600011B1A16831B300210120FDF731FC08B191
:1034700002B070BDFEF77CFA02201849FDF700FC8F
:103480000028F5D169461048FEF7AAF9A0F101011C
:103490000320B1FA81F14909FDF71AFC0028E7D1B0
:1034A0009DE80A000420C91AB1FA81F14909FDF723
:1034B0000FFCDDE7E368002BD6D12169B1FA81F179
:1034C0004909D1E7780B0020D80C0020400A0020E1
:1034D0003059000834590008385900083065000890
:1034E00070B582B001A90020FEF77AF91021002002
:1034F000FEF766FB011C054618BF01210120FDF700
:10350000E7FB044608B102B070BD2846FEF790F90B
:103510006FF0FF012046FEF753FBB0FA80F1022066
:103520004909FDF7D5FB0028EDD101A97B48FEF73D
:1035300057F910217948FEF743FB102106467748DA
:10354000FEF73EFB102105467448FEF739FB0446A2
:103550003046FEF76DF92846FEF76AF92046FEF779
:1035600067F969466D48FEF73BF9A0F101010320B8
:10357000B1FA81F14909FDF7ABFB0028C3D1102155
:103580006648FEF71DFB102104466448FEF718FB51
:10359000102105466148FEF713FBFEF749F928465E
:1035A000FEF746F92046FEF743F969465B48FEF709
:1035B00017F9A0F101010420B1FA81F14909FDF7E1
:1035C00087FB00289FD111215448FEF7F9FA1021FA
:1035D00004465248FEF7F4FA05462046FEF728F95D
:1035E00069464E48FEF7FCF8A0F102010520B1FA49
:1035F00081F14909FDF76CFB002884D1102147486F
:10360000FEF7DEFA694604464448FEF7E9F8012869
:1036100000F0818069464148FEF7E2F8A0F102011E
:10362000B1FA81F149090620FDF752FB00287FF429
:103630006AAF2846FEF7FCF82046FEF7F9F869461F
:103640003648FEF7CDF8461E714271410720FDF75E
:103650003FFB00287FF457AF10213048FEF7B0FA47
:10366000102105462D48FEF7ABFA04462846FEF722
:10367000DFF869462948FEF7B3F8851E69426941BB
:103680000820FDF725FB00287FF43DAF20212348CB
:10369000FEF796FAFEF7CCF82046FEF7C9F8694621
:1036A0001E48FEF79DF80138414241410920FDF7CF
:1036B0000FFB00287FF427AF69461848FEF790F803
:1036C00000991648FEF77CFA694604461348FEF74F
:1036D00087F8B0FA80F10A204909FDF7F9FA0028C5
:1036E0007FF411AF2046FEF7A3F869460B48FEF7BA
:1036F00077F8421E514251410B20FDF7E9FA0028AC
:103700007FF401AF9DE80A00CB1A594259410C20C1
:10371000FDF7DEFAF7E6014685E700BF500B002013
:1037200070B5554C2023A26983F31188536B3BB9C4
:1037300083F3118801210120FDF7CAFA80B170BD21
:103740005942194023EA01035363002383F311888C
:103750000120B1FA81F14909FDF7BAFA0028EED14A
:10376000A369202282F311885A6B002A6FD0586314
:1037700080F3118801460220FDF7AAFA0028DED165
:10378000A369202282F311885A6B013263D080F33F
:103790001188012001460320FDF79AFA0028CED1B6
:1037A000A669202383F31188756B4DB94FF0FF3361
:1037B0000A2033620146FDF733FD00284FDB756BAD
:1037C0006942294025EA01057563002383F31188C6
:1037D000B1FA81F149090420FDF77AFA0028AED147
:1037E000A669202383F31188756B4DB94FF0FF3321
:1037F0000A2033620146FDF713FD002833DB756BA9
:103800000023736383F31188B5FA85F14909052014
:10381000FDF75EFA0546002891D1A469202383F3C1
:103820001188636B013308D04FF0FF3323620B2004
:103830000A21FDF7F5FC002819DB0023636383F3FD
:10384000118829460620BDE87040FDF741BA80F393
:10385000118801208EE7586380F311889AE785F379
:1038600011880121B7E785F311880121CFE785F39E
:1038700011880125E5E700BF780B0020AFF3008039
:1038800001F006BFAFF30080AFF30080AFF300801C
:1038900001F0FEBEAFF30080AFF30080AFF3008015
:1038A0002DE9F04F20258DB085F31188A74CA26932
:1038B000536B43F007035363002383F3118801F034
:1038C000F7FEA0F101010120B1FA81F14909FDF7EC
:1038D000FFF910B10DB0BDE8F08F01F0E9FEA0F1E5
:1038E00002010220B1FA81F14909FDF7F1F900283E
:1038F000F0D101F0DDFEA0F104010320B1FA81F165
:103900004909FDF7E5F90028E4D101F0C1FEB0FA5C
:1039100080F104204909FDF7DBF906460028D9D1DA
:10392000FDF7C6FD85F311884FF08048D8F8247064
:1039300086F31188A169864B8A6886480091013A0E
:103940004FF4A471FDF7CCFB834E306001F0B0FE64
:1039500007F5FA71814607F226220520FDF770F976
:103960000028B7D1A9F101010620B1FA81F1490976
:10397000FDF7AEF90028ADD101F08AFEB0FA80F172
:1039800007204909FDF7A4F907460028A2D1FDF751
:10399000EFFF85F31188A269536B43F0050353636E
:1039A00087F3118801F0A4FE471F7942794108206E
:1039B000FDF78EF900288DD101F06AFEB0FA80F192
:1039C00009204909FDF784F90746002882D1FDF74F
:1039D0006FFD85F31188D8F8245087F31188A16909
:1039E0005B4B8A685B480091013A4FF4A471FDF784
:1039F00077FB306001F07CFE05F5FA71074605F2B1
:103A000026220A20FDF71CF900287FF463AF781EF8
:103A1000414241410B20FDF75BF900287FF45AAF8A
:103A200001F036FEB0FA80F10C204909FDF750F99B
:103A3000074600287FF44EAFFDF79AFF474D484BED
:103A40002D601B604FF0200B8BF311880DF13009B6
:103A50002A6849F8282DA169059701204FF0FF3207
:103A600003910490C5F80090069287F311888BF3B8
:103A700011880DF13008196848F8141D0420A16957
:103A80000A970B9208910990C3F8008087F3118878
:103A9000FDF70EFD8BF311884FF08043D3F824A07F
:103AA00087F31188A2692F4B92682A480093013A44
:103AB0004FF4A4712C4BFDF713FB0AF5FA77306035
:103AC000A4698BF31188636B03F00502052A05D006
:103AD000052323620B20FDF743FB636B23F00503F3
:103AE0006363002383F311880D2039460AF22622EE
:103AF000FDF7A6F800287FF4EDAE01F0C9FDB0FA9D
:103B000080F10E204909FDF7E3F800287FF4E2AECA
:103B1000134CFDF72DFF49461048FDF781F941464A
:103B20002046FDF77DF929684A1B514251410F207B
:103B3000FDF7CEF800287FF4CDAE21680B1B59426B
:103B400059411020FDF7C4F8C4E600BF780B0020EF
:103B5000C13B0008100D0020400A0020480800204A
:103B60005808002030590008713B0008AFF300806E
:103B700038B5202585F311880C480021FDF748FD54
:103B80000024FDF705FA84F311884FF4FA70FDF76D
:103B90007FFC85F3118806482146FDF739FDFDF7C6
:103BA000F7F984F31188204638BD00BF480800208B
:103BB00058080020AFF30080AFF30080AFF300801F
:103BC00010B504464FF4FA70FDF762FC202383F32E
:103BD000118801212046FDF703FDFDF7D9F90020EA
:103BE00080F3118810BD00BFAFF30080AFF30080F9
:103BF000044B054A5B600021526012601B609960B3
:103C0000704700BF6C080020A4080020AFF30080BC
:103C1000024B00225B601B609A6070476C080020BA
:103C2000044A054B526000211260916099605B600C
:103C30001B6070476C0800205C080020AFF3008018
:103C4000024B00225B601B609A6070476C0800208A
:103C5000024B00225B601B609A607047AC0800203A
:103C6000024B00225B601B609A607047AC0800202A
:103C7000024B00225B601B609A607047AC0800201A
:103C80002DE9F0413B4DAA692023966883F3118802
:103C9000394CA3680021002B5ED0002383F31188E8
:103CA0000120FDF715F8014608B1BDE8F081202399
:103CB00083F31188A368304A002B54D001210023DC
:103CC00083F311880220FDF703F807460028ECD1A2
:103CD000202383F31188DFF8A0804046FDF7E0FC45
:103CE00087F3118821680320091BB1FA81F1490982
:103CF000FCF7EEFF0028D8D1D8F80810B1FA81F10E
:103D000004204909FCF7E4FF0028CED1AB6999688B
:103D10000520711AB1FA81F14909FCF7D9FF002891
:103D2000C3D14046FDF74CFDFDF78AFCD8F80010E2
:103D30000620C8EB0101B1FA81F14909FCF7C8FF7F
:103D40000028B2D1D8F80810B1FA81F1072049094A
:103D5000BDE8F041FCF7BCBFAB69A3609A6BE260C1
:103D60009C63012199E7AB699360986BD0609A637B
:103D7000A5E700BF780B00206C080020AFF300809F
:103D80002DE9F041884D894AAB6989489C68894B87
:103D9000894E82B0671C00924FF4A4713A46FDF739
:103DA0009FF904F10208854B30604FF4A47142463C
:103DB00000938348834BFDF793F970608248FDF7C9
:103DC000FFFCAB6999680120611AB1FA81F14909D8
:103DD000FCF77EFF10B102B0BDE8F0814FF47A70BD
:103DE000FDF756FBAB6999680220791AB1FA81F1A7
:103DF0004909FCF76DFF0028EDD17448FDF7E0FCA0
:103E0000AB6999680320791AB1FA81F14909FCF785
:103E10005FFF0028DFD14FF47A70FDF739FBAB6903
:103E200099680420C1EB0801B1FA81F14909FCF756
:103E30004FFF0028CFD16548FDF702F9AB699968BB
:103E40000520791AB1FA81F14909FCF741FF0028F0
:103E5000C1D14FF47A70FDF71BFBAB69996806205E
:103E6000791AB1FA81F14909FCF732FF0028B2D181
:103E7000FDF7E6FBAB6999680720611AB1FA81F199
:103E80004909FCF725FF0028A5D1FDF771FD504B2E
:103E900000934FF4A471474B45483A46FDF720F98B
:103EA0004C4B30604FF4A47100934246454B44485C
:103EB000FDF716F970604448FDF782FCAB6999681C
:103EC0000820611AB1FA81F14909FCF701FF0028C5
:103ED00081D14FF47A70FDF7DBFAAB6999687B1AF0
:103EE000594259410920FCF7F3FE00287FF473AFD3
:103EF0003648FDF765FCAB699968C1EB070CDCF14E
:103F0000000141EB0C010A20FCF7E2FE00287FF4DF
:103F100062AF4FF47A70FDF7BBFAAB699968C1EBF9
:103F2000080EDEF100014FF00B0041EB0E01FCF733
:103F3000CFFE064600287FF44EAF202383F311887E
:103F40002248FDF7ADFBFDF723F886F31188AB6936
:103F500099687E1A714271410C20FCF7B9FE002865
:103F60007FF439AF4FF47A70FDF792FAAB69996834
:103F70007A1A514251410D20FCF7AAFE00287FF425
:103F80002AAFFDF75DFBAB699968631A5942594145
:103F90000E20FCF79DFE00287FF41DAF02B0BDE8A7
:103FA000F041FDF7E5BC00BF780B00203459000854
:103FB000100D0020E13F0008400A002030590008A1
:103FC000580E0020014000085C0800206C0800200A
:103FD0002C59000838590008AFF30080AFF3008077
:103FE00010B5064C4FF4FA70FDF752FA2046FDF773
:103FF000E7FB2046FDF724F8002010BD5C080020F8
:1040000010B5064C40F2DC50FDF742FA2046FDF7B1
:10401000D7FB2046FDF714F8002010BD6C080020E7
:1040200070B5294E2948B369294D9C6882B0FDF7C7
:10403000C7FB284B0093621C274B28484FF4A47100
:10404000FDF74EF8264B2860A21C00934FF4A47194
:10405000214B2448FDF744F8234B6860E21C009391
:104060004FF4A4711C4B2148FDF73AF8204BA8608F
:10407000221D00934FF4A471174B1E48FDF730F832
:104080001D4BE8604FF4A471621D00931B48124B56
:10409000FDF726F828610D48FCF7D2FFFDF768FC14
:1040A000B36999680120611AB1FA81F14909FCF7F5
:1040B0000FFE08B102B070BD1149022002B0BDE888
:1040C0007040FCF7DDBD00BF780B00206C080020BD
:1040D000400A00204059000811410008100D00203E
:1040E0002C590008580E002038590008A00F002055
:1040F00034590008E8100020305900083012002020
:104100003C590008AFF30080AFF30080AFF30080AC
:1041100038B5064C05462046FDF752FB2878FCF7DB
:10412000EFFD2046FCF78CFF002038BD6C08002016
:1041300010B504460348FDF74BF82078FCF7E0FD86
:10414000002010BDAC080020AFF30080AFF300806A
:1041500008B5202282F311888368002B05DDFCF767
:1041600017FF002080F3118808BDFDF771FDFCF7F3
:104170000FFF002080F3118808BD00BFAFF300805F
:1041800008B54FF4FA70FDF783F9202383F3118803
:104190000448FDF75DFDFCF7FBFE002080F311886D
:1041A00008BD00BFAC080020AFF30080AFF3008073
:1041B000F0B587B003AD002404950395059420263F
:1041C00086F3118828462146FDF752FDFCF7E0FEF4
:1041D00084F3118886F311880599A1424FF00100FC
:1041E000CCBF00210121FCF773FD074618B184F311
:1041F000118807B0F0BD80F31188414B41489A699E
:10420000414B92680095013A4FF4A471FCF768FFA6
:104210003E4B18602846FCF7DBFF86F311880599B2
:104220000029CCBF002101210220FCF751FD18B16B
:1042300087F3118807B0F0BD80F3118886F31188E9
:10424000059B002B24DDFCF7A3FE002484F31188DA
:10425000202787F311880599A1424FF00300D4BFAE
:1042600000210121FCF734FD06460028BFD180F370
:10427000118887F3118805990420A1F10101B1FA91
:1042800081F14909FCF724FD30B186F31188B0E7CC
:104290002846FDF7DDFCD6E780F3118887F3118807
:1042A000059B002B24DDFCF773FE002484F31188AA
:1042B000202686F311880599A1424FF00300D4BF50
:1042C00000210121FCF704FD054600288FD180F371
:1042D000118886F3118805990520A1F10101B1FA31
:1042E00081F14909FCF7F4FC30B185F3118880E7CE
:1042F0002846FDF7ADFCD6E780F3118879E700BFCB
:10430000780B0020100D002051410008400A0020C9
:1043100010B51E4B1E489A691E4B92681E4C82B007
:104320000021013200914FF4A471FCF7D9FE1B4B20
:10433000186001F045F921680120091BB1FA81F1EB
:104340004909FCF7C5FC08B102B010BDA168B1FA7B
:1043500081F102204909FCF7BBFC0028F4D101F0EF
:104360002FF921680320091BB1FA81F14909FCF7F3
:10437000AFFC0028E8D1A168B1FA81F10420490915
:1043800002B0BDE81040FCF7A3BC00BF780B0020D2
:10439000100D0020A1430008AC080020400A0020B6
:1043A00010B5044C2046FCF713FF2046FCF778FEBE
:1043B000002010BDAC080020AFF30080AFF30080F8
:1043C000F0B5202583B085F31188544C0021204698
:1043D000FCF74EFF0023014683F311880120A1F171
:1043E000FF31B1FA81F14909FCF772FC08B103B061
:1043F000F0BD21680220091BB1FA81F14909FCF7DF
:1044000067FC0028F3D1A168B1FA81F103204909C2
:10441000FCF75EFC06460028E9D1414B41489A6909
:10442000414B92680096013A4FF4A471FCF758FE94
:104430003E4B186085F3118841F288312046FCF725
:1044400017FF074686F31188FDF792FAB7FA87F14E
:1044500004204909FCF73CFC0028C8D1216805204C
:10446000091BB1FA81F14909FCF732FC0028BED1E1
:10447000A168B1FA81F106204909FCF729FC06463A
:104480000028B4D1FDF714F885F311884FF080436C
:104490005F6A86F3118841263046FCF731FC85F3CC
:1044A00011884FF4FA711D48FCF7E2FE0023014623
:1044B00083F311880720A1F1FF31B1FA81F1490995
:1044C000FCF706FC002892D121680820091BB1FAEC
:1044D00081F14909FCF7FCFB002888D1A168B1FAF9
:1044E00081F109204909FCF7F3FB0136F6B20028F7
:1044F0007FF47DAF462ECFD10A200D49FCF7C0FBDB
:1045000000287FF474AF0B2007F6C41107F6D81209
:1045100003B0BDE8F040FCF793BB00BFAC0800203F
:10452000780B0020100D002081410008400A002077
:104530003C590008AFF30080AFF30080AFF3008078
:10454000F0B54B4D4B4FAB694B489A684B4B4C4CBD
:1045500083B005324FF4A4710097FCF7C1FDAB693D
:104560009A68484B2060013200934FF4A471434B8A
:104570004548FCF7B5FDAA69444B92686060033278
:1045800000934FF4A4713D4B4148FCF7A9FDAA6983
:10459000404B9268A060043200934FF4A471374BF3
:1045A0003D48FCF79DFDAA693C4B9268E0600232F1
:1045B0004FF4A47100933A48304BFCF791FD206111
:1045C0003848FCF76DFD3748FCF76AFD3548FCF7C5
:1045D00067FD3448FCF764FD3248FCF761FDFDF7E8
:1045E000C7F901203049FCF74BFB064608B103B080
:1045F000F0BDAB6920489A68204B009705324FF414
:10460000A471FCF76DFD2023206083F31188254CF5
:104610000225274602E0012D0ED00125A3680133B3
:10462000002BA360F7DC386803683B605F60FCF731
:104630004FFF012D0662F0D1FCF7AAFC002585F39F
:104640001188FDF795F9202383F31188A1680220D2
:10465000A1F10101B1FA81F14909FCF739FB18B95F
:1046600080F3118803B0F0BD85F3118803B0F0BD6D
:10467000780B002030590008100D0020314100084F
:10468000400A002034590008580E0020385900080C
:10469000A00F00202C590008E81000204059000805
:1046A00030120020AC0800203C590008AFF3008015
:1046B000F8B5FCF7FDFE202686F311884FF0804503
:1046C00000236C6A83F311884FF47A70FCF7E0FEE4
:1046D00004F57A7104F2EB320120FCF7B1FA00B173
:1046E000F8BD86F311886C6A80F311884FF47A70F4
:1046F000FCF7CEFE04F57A7104F2EB320220FCF7EF
:104700009FFA0028ECD186F311886C6A80F3118837
:1047100042F21070FCF7BCFE04F51C510A4613323D
:1047200010310320FCF78CFA0028D9D186F31188C8
:104730006F6A80F3118807F57A7486F31188696AC5
:10474000611A0AD1002383F311880420214607F25D
:10475000EB32BDE8F840FCF773BA0820FCF760FDC7
:10476000F0E700BFAFF30080AFF30080AFF300804D
:10477000F8B5494EB3699C68651C2846FCF718FCDF
:10478000011B0746B1FA81F101204909FCF7A0FAA3
:1047900000B1F8BDB36999680220691AB1FA81F1D4
:1047A0004909FCF795FA0028F3D13846FCF700FCDC
:1047B000291A0320B1FA81F14909FCF789FA002886
:1047C000E7D1B36999680420611AB1FA81F1490906
:1047D000FCF77EFA0028DCD1202383F31188B2692C
:1047E00093680233936080F31188B3699968A71CBA
:1047F000791A0520B1FA81F14909FCF769FA002814
:10480000C7D12846FCF7D4FB011B0620B1FA81F181
:104810004909FCF75DFA0028BBD1B3699968072004
:10482000791AB1FA81F14909FCF752FA0028B0D19E
:10483000B369D96B0820691AB1FA81F14909FCF70B
:1048400047FA0028A5D1E71C3846FCF7B1FB281A27
:10485000414241410920FCF73BFA002899D1B36954
:1048600099687A1A514251410A20FCF731FA00281E
:104870008FD1B369D96B7B1A594259410B20FCF790
:1048800027FA002885D1202383F31188B3699C601F
:10489000DC6380F311887CE7780B0020AFF30080A5
:1048A00070B40B4B0B4ADA6002F1140605250024A4
:1048B00003F11C0003F1100183E844005D629C6178
:1048C0009A601862D8615961196170BC704700BF65
:1048D0007C080020100D0020AFF30080AFF30080B3
:1048E000064A074B07495260002049600960126080
:1048F000906098605B601B60704700BF6C08002090
:104900005C080020A4080020AFF30080AFF3008013
:10491000044B054A5B600021526012601B60996085
:10492000704700BF6C080020A4080020AFF300808F
:104930002DE9F041314C8AB02020246080F31188A9
:104940002F4923680AAD012745F8283D8B6901935B
:104950004FF0FF320023256002970393049283F304
:10496000118880F311880AAE206846F8140D896911
:1049700006914FF00208089309922660CDF81C803A
:1049800083F311882168091B18BF01213846FCF701
:104990009FF910B10AB0BDE8F08129462046FCF726
:1049A0003FFA2168091B18BF01214046FCF790F926
:1049B0000028EFD131462046FCF732FA2168032067
:1049C000091BB1FA81F14909FCF782F90028E1D10C
:1049D0000C4E0446072501E0013455B107FA04F3F3
:1049E0002B42F9D056F82420204625EA03059047AB
:1049F000F2E705490420FCF743F9CBE7480800201B
:104A0000780B00205065000840650008AFF3008077
:104A10004320FCF775B900BFAFF30080AFF300800F
:104A20004220FCF76DB900BFAFF30080AFF3008008
:104A30004120FCF765B900BFAFF30080AFF3008001
:104A400000F026BEAFF30080AFF30080AFF300802C
:104A50002DE9F041202382B083F31188964D696AD5
:104A60000120A1F10501B1FA81F14909FCF730F902
:104A7000002840F08A8080F31188422420464FF0BD
:104A8000FF3100F055FEB0FA80F102204909FCF731
:104A90001FF9013470B9462CF0D14FF0FF3141209D
:104AA00000F08EFEB0FA80F103204909FCF710F9FE
:104AB000002870D002B0BDE8F08186F3118887F33A
:104AC00011882A20A169B1FA81F14909FCF700F99E
:104AD000002840F09F8286F31188E168A368C3EB49
:104AE000010EDEF1000141EB0E012B20FCF7F0F886
:104AF0000028DFD187F3118823686268E360D11A48
:104B000004F11C008910A360FDF7B2F804F1100055
:104B10003146FDF7ADF8FCF73BFA86F3118887F3D1
:104B20001188616A4D1F694269412C20FCF7D0F859
:104B3000002840F06F8286F3118887F311882D20BA
:104B4000A169B1FA81F14909FCF7C2F8002840F0E7
:104B5000618286F3118887F311882168A368CA1AD5
:104B6000514251412E20FCF7B3F8002840F0528208
:104B700086F3118887F311882168E368CB1A5942BC
:104B80004FF02F005941FCF7A3F8002383F311885D
:104B900002B0BDE8F0810121582000F0C9FDA0F16C
:104BA000FF310420B1FA81F14909FCF791F804467C
:104BB00000287FF47FAF202686F31188582000F06C
:104BC000DFFD014684F311880520A1F1FF31B1FA20
:104BD00081F14909FCF77CF800287FF46BAF0121D3
:104BE000582000F0EDFDA0F1FF310620B1FA81F16F
:104BF0004909FCF76DF8044600287FF45BAF86F3A3
:104C00001188582000F004FE014684F31188072023
:104C1000A1F1FF31B1FA81F14909FCF759F8804659
:104C200000287FF447AF86F311880820696AB1FA3B
:104C300081F14909FCF74CF81F4C074610B188F385
:104C4000118837E780F3118886F31188A169A1F1F3
:104C5000050EDEF1000141EB0E010920FCF738F8EA
:104C600010B187F3118825E780F3118886F3118846
:104C7000E168A368CC1A61424FF00A006141FCF779
:104C800027F80023002881D183F31188052405E04B
:104C90009DF80400FCF734F8013C0FD04FF0FF31D1
:104CA00001A800F0D5FDB0FA80F10B204909FCF70E
:104CB0000FF80028ECD0FDE67C0800200C20D74936
:104CC000FBF7DEFF00287FF4F5AE4FF0FF31472001
:104CD00000F02EFDB0FA80F10D204909FBF7F8FF36
:104CE00000287FF4E7AE4FF0FF3101A800F0B0FDDF
:104CF000B0FA80F10E204909FBF7EAFF00287FF4A3
:104D0000D9AE2968AB68C64EC81A414241410F204E
:104D1000FBF7DEFF00287FF4CDAE3168F368CA1AD6
:104D2000514251411020FBF7D3FF00287FF4C2AE5F
:104D3000012101A800F08CFD431C5942594111206A
:104D4000FBF7C6FF00287FF4B5AE202787F3118854
:104D500001A800F0A5FD014684F3118801F10108C6
:104D6000D8F1000141EB08011220FBF7B1FF002848
:104D70007FF4A0AE87F31188716AA1F1050CDCF114
:104D8000000141EB0C011320FBF7A2FF00287FF488
:104D9000FCAE4FF0000888F31188202484F31188BA
:104DA0001420A969B1FA81F14909FBF791FF9C4EE2
:104DB000074600287FF443AF80F3118884F31188FD
:104DC000F168B368C3EB010EDEF1000141EB0E01A7
:104DD0001520FBF77DFF00287FF443AF80F3118897
:104DE00084F31188412000F0CBFCB0FA80F116204A
:104DF0004909FBF76DFF00287FF45CAE422000F00C
:104E0000BFFCB0FA80F117204909FBF761FF0028C9
:104E10007FF450AE432000F0B3FCB0FA80F11820CC
:104E20004909FBF755FF00287FF444AE442000F009
:104E3000A7FCB0FA80F119204909FBF749FF0746A2
:104E400000287FF437AE452000F09AFC014687F336
:104E500011881A20B1FA81F14909FBF739FF0028BE
:104E60007FF428AEF168B368CE1A714271411B20FD
:104E7000FBF72EFF00287FF41DAE26468046052452
:104E8000202786F3118801A800F00AFD014688F367
:104E900011881C20B1FA81F14909FBF719FF00289C
:104EA0007FF408AE9DF80400FBF72AFF013CE7D130
:104EB0001D205A49FBF7E4FE00287FF4FBAD87F381
:104EC0001188696A564E4A1F514251411E20FBF714
:104ED000FFFE10B184F31188ECE584F3118887F3A9
:104EE00011881F20B169B1FA81F14909FBF7F0FE81
:104EF0000028EFD184F31188F168B368CB1A5942C6
:104F000059413846FBF7E4FE00287FF4D3AD87F320
:104F10001188452000F07CFCB0FA80F1212049097D
:104F2000FBF7D6FE00287FF4C5AD442000F070FCEE
:104F3000B0FA80F122204909FBF7CAFE00287FF46D
:104F4000B9AD432000F064FCB0FA80F12320490998
:104F5000FBF7BEFE00287FF4ADAD422000F058FC08
:104F6000B0FA80F124204909FBF7B2FE00287FF453
:104F7000A1AD412000F04CFC0023014683F31188D1
:104F80002520B1FA81F14909FBF7A2FE00287FF440
:104F900091ADE968AB68C3EB0108D8F1000141EBC2
:104FA00008012620FBF794FE00287FF483AD044619
:104FB00005264FF02008202788F3118801A800F06B
:104FC0006FFC014684F311882720B1FA81F1490969
:104FD000FBF77EFE00287FF46DAD9DF80400FBF723
:104FE0008FFE013EE7D128200C49FBF749FE00283F
:104FF0007FF460AD87F31188696A094CA1F1050C53
:10500000DCF1000141EB0C012920FBF761FE0028D7
:105010003FF453AD86F311884CE500BF3C590008BE
:105020007C080020AFF30080AFF30080AFF3008076
:1050300010B541210446FCF7B3FA20464221FCF7A3
:10504000AFFA20464321FCF7ABFA002010BD00BFA9
:1050500070B51F4B1F4899691F4B8A6882B0013297
:1050600000914FF4A471FCF73BF81C4B1860FCF75F
:105070008FF82025066B85F311883146FBF7B0FFCA
:10508000002484F31188F0B2FBF73AFEFCF780F8B5
:10509000066B85F311883146FBF7A2FF84F3118874
:1050A000F0B2FBF72DFEFCF773F8066B85F3118861
:1050B0003146FBF795FF84F31188F0B2FBF720FE31
:1050C0000749012002B0BDE87040FBF7D9BD00BF21
:1050D000780B0020100D002031500008400A0020FD
:1050E00040650008AFF30080AFF30080AFF30080AD
:1050F00070B5194B194D9B69194A9E68194B1A4C8A
:1051000082B0284600924FF4A471721CFBF7E8FFAE
:10511000164B2060B21C009305F5A4704FF4A471E7
:10512000134BFBF7DDFF134B6060F21C4FF4A471CF
:10513000009305F52470104BFBF7D2FFA06000F040
:1051400077FA00F075FAFCF713FC0C49012002B065
:10515000BDE87040FBF794BD780B0020100D0020D7
:1051600030590008A1510008400A002038590008B1
:105170003152000834590008815100084065000888
:1051800038B5064C05462046FCF71AFB2878FBF795
:10519000B7FD2046FBF754FF002038BD5C08002017
:1051A000F8B506461B48FCF70BFB1B48FCF708FB51
:1051B000202383F31188194DAB699F6B3846FCF7A8
:1051C0006FFA174BAC691846236203E09968A2682E
:1051D000914202D31B688342F8D15A68626023600F
:1051E00007205C601460FBF7BBFFAB691B6A0133EF
:1051F00002D03846FCF77CFA002484F3118830781A
:10520000FBF77EFD0448FBF71BFF0248FBF718FF86
:105210002046F8BD5C0800206C080020780B0020B8
:10522000A4080020AFF30080AFF30080AFF300804C
:1052300070B505461648FCF7C3FA202383F311889E
:10524000144B9C69A66B3046FCF72AFA1248206280
:10525000034603E09968A268914202D31B68834227
:10526000F8D15A686260236007205C601460FBF725
:1052700077FF3046FCF73CFA002484F31188287845
:10528000FBF73EFD0248FBF7DBFE204670BD00BF8A
:105290006C080020780B0020A4080020AFF30080E9
:1052A00030B52C4B2C4A9B692C489D682C4B2D4CBF
:1052B00083B04FF4A47100926A1CFBF711FF2A4BD4
:1052C0002060AA1C00934FF4A471254B2748FBF7DC
:1052D00007FF274B6060EA1C00934FF4A471204B3A
:1052E0002448FBF7FDFE244BA0602A1D00934FF4D9
:1052F000A4711B4B2148FBF7F3FE214BE0606A1DB4
:1053000000934FF4A471164B1E48FBF7E9FE2023CF
:10531000206183F311881C4C2368A34218BF6FF0EF
:10532000010509D01A68226018465460FCF7D0F8CD
:1053300023680562A342F5D1FBF72AFE002383F31D
:105340001188FCF715FB1149012003B0BDE830407E
:10535000FBF796BC780B002040590008100D002088
:1053600031520008400A00202C590008580E002035
:1053700038590008A00F002034590008E810002018
:105380003059000830120020A40800203C590008C1
:10539000F0B52C4B2C4E9B692C4D9F682C4B2D4C03
:1053A00083B07A1C009330462B464FF4A471FBF770
:1053B00097FE29492060BA1C2B46009106F5A4707F
:1053C0004FF4A471FBF78CFE24496060FA1C2B4655
:1053D000009106F524704FF4A471FBF781FE20497B
:1053E000A0603A1D2B46009106F576704FF4A4712B
:1053F000FBF776FE1B49E0602B4600917A1D06F50F
:10540000A4604FF4A471FBF76BFE2023206183F3AB
:10541000118800F025F900F023F900F021F900F0DF
:105420001FF900F01DF9FBF7B3FD002383F311888A
:10543000FCF79EFA0C49012003B0BDE8F040FBF7F1
:105440001FBC00BF780B0020100D00203152000857
:1054500040590008400A00202C590008385900081B
:1054600034590008305900083C590008AFF3008057
:10547000014B5B6883607047001000E0AFF3008071
:105480002DE9F84F064688461E484FF4A471FCF7F4
:1054900097FB044690B3202383F311881A49DFF861
:1054A0006CA0D1F814E0DFF868900161002500F1EC
:1054B000280300F5927B4FF0020C00F12402012733
:1054C0008660C0F80CB0C0F814E0C0F828814861CC
:1054D000C663C0F824A1C0F8449180F81CC085635D
:1054E0004563856187772946CEF810004262477789
:1054F000C3628362FBF774FD85F311882046BDE823
:10550000F88F00BFD80C0020780B00200134000871
:10551000F1080008AFF30080AFF30080AFF3008024
:105520002DE9F84F214E804630468946FBF760FC56
:105530000446002837D0202383F3118873681C4F5A
:105540001C4DD7F814C01C49243B00EB030BC0F8DA
:105550000CB04FF0020EC55000F12402002500F1FE
:1055600028034FF0010ACBF80490CBF82010C0F8C4
:1055700008800761C0F814C0C0F83C8080F81EA005
:1055800080F81CE078618563456385612946CCF825
:105590001000426280F81DE00664C3628362FBF77C
:1055A0001FFD85F311882046BDE8F88FC80C002048
:1055B000780B002001340008F1080008AFF30080E8
:1055C00010B5202383F31188154CA3680133002BF9
:1055D000A3601BDD013B002BA360114A06DBFBF738
:1055E000D7FC0020002383F3118810BD0D495368B8
:1055F0008C69052084E80C0054601C602262FBF773
:10560000AFFD206A002383F3118810BD2068036872
:1056100023605C60FBF75CFF0022A3680262D9E7AD
:10562000AC080020780B0020AFF30080AFF30080BF
:1056300008B5202383F31188064B1868984205D0DB
:1056400002681A6053600021FBF7CAFC002383F351
:10565000118808BDA4080020AFF30080AFF30080DC
:10566000074B1A689A420AD0116810B400244B60A4
:105670001462196010465DF8044BFBF729BF7047B0
:10568000A4080020AFF30080AFF30080AFF30080E8
:10569000202383F31188044B9A690023506B5363D2
:1056A00083F31188704700BF780B0020AFF30080B0
:1056B0000B4A10B52023946983F31188636B33B9C7
:1056C0004FF0FF3323620A20FBF74AFD636B584219
:1056D000184023EA00036363002383F3118810BD9D
:1056E000780B0020AFF30080AFF30080AFF30080B1
:1056F0000B4A10B52023946983F31188606B30B98D
:105700004FF0FF330A202362FBF72AFD606B636BC7
:1057100023EA00036363002383F3118810BD00BFF5
:10572000780B0020000000000000000000000000D6
:1057300070B52023064683F311880D4C04F11C003C
:10574000FBF796FD054668B9A26861680948131D14
:105750008B42A360166024BF2368A360FCF778FA2D
:10576000FBF716FC002383F31188284670BD00BFA9
:105770007C0800208C080020AFF30080AFF300808D
:1057800038B50C4B5A6A002A10DD9C685D68211DF3
:10579000013AA9425A62996028BF1A6820600648F7
:1057A00028BF9A60FCF754FA002038BD4FF0FF3054
:1057B00038BD00BF7C0800208C080020AFF30080BB
:1057C00070B52023064683F311880E4C04F11C00AB
:1057D000FBF74EFD054658B9E3682268043B934247
:1057E000E3600AD31E600848FCF732FAFBF7D0FBEF
:1057F000002383F31188284670BD6368043BE3608F
:10580000F0E700BF7C0800208C080020AFF3008088
:105810000C4A516A002911DDD36810B51468043BA5
:105820000139A3425162D36002D25368043BD36072
:1058300018600548FCF70CFA002010BD4FF0FF304F
:10584000704700BF7C0800208C080020AFF3008068
:1058500070B52023064683F311880D4C04F1100027
:10586000FBF706FD054670B9E368626819680948E8
:1058700004339342E360316024BF2368E360FCF7A4
:10588000E7F9FBF785FB002383F31188284670BDF9
:105890007C080020980800200000000000000000A4
:1058A0000C4B9A69002A12DD10B5511EDA68996115
:1058B0005968146804328A42DA60046028BF1A68A2
:1058C000054828BFDA60FCF7C3F9002010BD4FF08F
:1058D000FF3070477C08002098080020000000007E
:1058E00008B50B4B00221A70202383F31188094856
:1058F000C3680BB1FBF7DCFA0648074A42F21071A5
:105900000023FBF705FB002383F3118808BD00BFCC
:10591000700B0020F80C002011090008AFF3008084
:1059200069646C65000000000D0A0000440000007E
:105930004100000042000000430000004142434497
:105940004500000000000000000000000000000012
:105950009C630008213C000800000000813D000815
:1059600048630008E148000800000000F15000080A
:1059700074630008F13B0008000000009153000828
:105980005C6300081149000800000000A1520008F3
:10599000A059000800000000000000000000000006
:1059A00038630008000000000000000051500008AB
:1059B000005C000800000000000000000000000083
:1059C000105B0008205B0008305B0008405B0008AB
:1059D000505B0008905A0008705B0008605B00088C
:1059E000905B0008D05A0008E05A0008F05A0008FE
:1059F000005B000800000000000000000000000044
:105A00006D61696E00160018040444080C10141827
:105A1000001C1D1E0000000000000000000000002F
:105A2000D86200089138000800000000A138000882
:105A3000E05B0008F05B0008605A0008000000000E
:105A40005120000831200008912000087120000832
:105A50008120000861200008412000082120000862
:105A6000FC610008312400080000000061300008DB
:105A700034640008713C0008000000004145000843
:105A800020640008613C000800000000C1430008D9
:105A900028610008000000000000000071250008D7
:105AA000DC6300080000000000000000B1410008B5
:105AB0009C6200081132000800000000E134000878
:105AC000786400080000000000000000A119000830
:105AD0008C60000800000000000000002123000886
