:020000040800F2
:1000000000040020010D0008210E0008210E000848
:10001000210E0008210E0008210E0008210E000804
:10002000210E0008210E0008210E0008310E0008E4
:10003000210E0008210E0008210E0008210E0008E4
:10004000210E0008210E0008210E0008210E0008D4
:10005000210E0008210E0008210E0008210E0008C4
:10006000210E0008210E0008210E0008516600082C
:1000700081660008B1660008E166000811670008A3
:100080004167000871670008210E0008210E000872
:10009000210E0008210E0008210E0008210E000884
:1000A000210E0008210E0008210E0008210E000874
:1000B000A1730008210E0008210E0008210E00087F
:1000C000210E0008210E0008210E0008210E000854
:1000D000210E0008210E00084175000881760008F5
:1000E000210E0008210E0008210E0008210E000834
:1000F000210E0008210E0008210E0008A16700084B
:10010000210E0008210E0008210E0008210E000813
:10011000210E0008210E0008210E0008210E000803
:10012000D1670008016800083168000861680008AC
:1001300091680008716B0008210E0008210E00086C
:10014000210E0008210E0008210E0008210E0008D3
:10015000C1680008F168000821690008617500089D
:10016000210E0008210E0008210E0008210E0008B3
:10017000210E0008210E0008210E0008210E0008A3
:10018000210E0008210E0008210E0008210E000893
:10019000210E0008210E0008210E0008210E000883
:1001A000210E0008210E0008210E0008210E000873
:1001B000210E0008210E0008210E0008210E000863
:1001C00000B583B013F084FA2E4B1B68002B4FD17F
:1001D0002D482E4C12F07CFB2D4A2E492A4813F054
:1001E000FFF906F04DF800F073FE2B4813F010F9FC
:1001F0002A48002513F00CF92948012101F058FB89
:100200002946284806F094F90095274B27484FF4D3
:10021000E871402201F06CF90095254B25484FF418
:100220005471402201F064F90095234B23484FF4A8
:100230005471402201F05CF90095214B21484FF4A4
:100240001071802201F054F900951F4B1F4841F2B4
:100250005011412201F04CF903E042F2107001F01C
:10026000BFF92369DB07F8D50E4802F039FDF4E742
:10027000174C532013F04CFA14F8010F0028F9D151
:10028000A6E700BFB4800120C88001200000024022
:1002900098CD010858CD010820840120B8800120A4
:1002A000A8800120BC42002081360108D87E0120B0
:1002B00011360108D08001208135010830840120E9
:1002C000C17800088043002021320108986C012089
:1002D00088CD0108AFF30080AFF30080AFF300805A
:1002E0002DE9F04F2DED108AC1F80CD0D0F80CD0CC
:1002F000BDEC108ABDE8F08F002383F311882846F7
:10030000A04701F0C5F901F023F800DFFEE7000087
:100310004BB942B9002908BF002802D04FF0FF3185
:10032000084600F03DB882B0EC462DE9005000F0E0
:100330001FF8DDF804E002B00CBC704700000000BC
:100340002DE9F041069C154606460F46984600F0FA
:100350002FF805FB01F300FB0838A5FB0023B21AB8
:10036000434467EB0303C4E90023BDE8F08100BF09
:100370002DE9F041069C904606460F461D4600F0CA
:1003800067F900FB05F5A0FB082308FB0155B21A2D
:100390002B4467EB0303C4E90023BDE8F08100BFF1
:1003A000704700BF000000000000000000000000D7
:1003B00000292DE9F043C0F2A6800026002BC0F2F0
:1003C0009C80884694469E46154604460F46002B60
:1003D0003DD18A4259D9B2FA82F33BB1C3F120022E
:1003E0009F4020FA02F29D4017439C40290C220CAA
:1003F000B7FBF1FEA8B201FB1E7742EA074700FBFC
:100400000EF3BB420AD97F190EF1FF3280F005814D
:10041000BB4240F20281AEF1020E2F44FF1AA4B299
:10042000B7FBF1F301FB137744EA074700FB03F046
:10043000B84208D97F1903F1FF3280F0F080B8424A
:1004400040F2ED80023B43EA0E43002203E08B4280
:100450000FD900221346341C18BF012460424FF00C
:10046000000565EB45015840514000196941BDE860
:10047000F083B3FA83F2002A40F086808B4202D3E5
:10048000844500F2DB800123E5E712B90123B3FBC9
:10049000F2F5B5FA85F000283BD1781B4FEA154EEE
:1004A0001FFA85FC0122B0FBFEF8210C0EFB180799
:1004B00041EA07470CFB08F3BB4207D97F1908F153
:1004C000FF3102D2BB4200F2BD808846FF1AA4B2BF
:1004D000B7FBFEF30EFB137744EA07470CFB03FC64
:1004E000BC4507D97F1903F1FF3102D2BC4500F2A8
:1004F000A7800B4643EA0843ADE752426FEA06067F
:1005000063EB43035DE7404261EB41014FF0FF368F
:1005100054E7C0F1200224FA02F107FA00F3854003
:100520004FEA154ED7401943B7FBFEF20B0C0EFBFA
:1005300012771FFA85FC43EA07430CFB02F79F4240
:1005400004FA00F407D95B1902F1FF3074D29F421C
:1005500072D9023A2B44DF1B89B2B7FBFEF80EFBBF
:10056000187341EA03430CFB08F79F4208D95B1953
:1005700008F1FF315CD29F425AD9A8F102082B44FE
:10058000D81B48EA02428EE7C2F120032CFA03F19D
:100590000EFA02FE20FA03F741EA0E0E08FA02F004
:1005A00028FA03F14FEA1E453843B1FBF5F8030C76
:1005B00005FB18111FFA8EF743EA014107FB08F308
:1005C0008B420CFA02FC09D911EB0E0108F1FF393C
:1005D00030D28B422ED9A8F102087144C91A80B2D8
:1005E000B1FBF5F305FB131140EA014107FB03F7EB
:1005F0008F4208D911EB0E0103F1FF3016D28F4262
:1006000014D9023B714443EA0843C91BA3FB0C897C
:10061000494509D305D000221DE79646FEE613465C
:1006200011E794404445F6D2013BF4E70346EAE77C
:100630008846A5E7C846D1E702468CE713460AE795
:10064000023B57E7A8F102082F443FE700000000F3
:100650002DE9F041002B44D18A42154604464FD97A
:10066000B2FA82F70E464FB1C7F12003B94020FA23
:1006700003F602FA07F50E4300FA07F44FEA154EA7
:10068000230CB6FBFEF0AFB20EFB106143EA014350
:1006900007FB00F1994209D95B1900F1FF3280F0A4
:1006A000EC80994240F2E98002382B445A1AA4B2F5
:1006B000B2FBFEF30EFB132244EA024207FB03F7F0
:1006C000974208D9521903F1FF3180F0D880974240
:1006D00040F2D580023B43EA004000263146BDE8A7
:1006E000F0818B4247D8B3FA83F6002E48D18B4273
:1006F00002D3824200F2CD8001203146BDE8F08174
:1007000012B90125B5FBF2F5B5FA85F8B8F1000F7D
:1007100077D14A1B4FEA154EAFB20126B2FBFEF06D
:10072000230C0EFB102143EA014107FB00F38B422F
:1007300007D9491900F1FF3202D28B4200F2BA8088
:100740001046C91AA4B2B1FBFEF30EFB131144EA22
:10075000014407FB03F7A74208D9641903F1FF32EC
:1007600080F08F80A74240F28C80023B43EA004039
:100770003146BDE8F081002630463146BDE8F081C3
:10078000C6F1200422FA04F5B3402B4320FA04FCFE
:1007900001FA06F721FA04F54FEA134E4CEA07076F
:1007A000B5FBFEF8390C0EFB18551FFA83FC41EA25
:1007B00005450CFB08F1A94202FA06F204D9ED182E
:1007C00008F1FF3467D3A0466D1ABFB2B5FBFEF443
:1007D0000EFB145547EA05410CFB04FC8C4504D97B
:1007E000C91804F1FF355CD32C4644EA0844CCEB2D
:1007F0000101A4FB0223994248D344D0204600269D
:100800006CE7C8F1200401FA08F305FA08F520FAAC
:1008100004F7E1404FEA154E1F43B1FBFEF63A0CD8
:100820000EFB16111FFA85FC42EA01430CFB06F28F
:100830009A4200FA08F407D95B1906F1FF3137D262
:100840009A4235D9023E2B449B1ABFB2B3FBFEF04D
:100850000EFB103347EA03430CFB00F1994207D922
:100860005B1900F1FF3221D299421FD902382B4483
:100870005A1A40EA0646674650E7104616E70B4606
:1008800029E7134672E7B0409042B7D2601E0026B7
:1008900024E7304622E7A94295D9A8F102081D4471
:1008A00092E78C45A0D9023C19449EE71046DFE749
:1008B0000E46C9E70238294443E700BF00000000A4
:1008C000844641EA000313F003036DD1403A41D35B
:1008D00051F8043B40F8043B51F8043B40F8043B1A
:1008E00051F8043B40F8043B51F8043B40F8043B0A
:1008F00051F8043B40F8043B51F8043B40F8043BFA
:1009000051F8043B40F8043B51F8043B40F8043BE9
:1009100051F8043B40F8043B51F8043B40F8043BD9
:1009200051F8043B40F8043B51F8043B40F8043BC9
:1009300051F8043B40F8043B51F8043B40F8043BB9
:1009400051F8043B40F8043B51F8043B40F8043BA9
:10095000403ABDD2303211D351F8043B40F8043B49
:1009600051F8043B40F8043B51F8043B40F8043B89
:1009700051F8043B40F8043B103AEDD20C3205D359
:1009800051F8043B40F8043B043AF9D2043208D051
:10099000D2071CBF11F8013B00F8013B01D30B88C3
:1009A00003806046704700BF082A13D38B078DD0A1
:1009B00010F003038AD0C3F10403D21ADB071CBF73
:1009C00011F8013B00F8013B80D331F8023B20F8DD
:1009D000023B7BE7043AD9D3013A11F8013B00F816
:1009E000013BF9D20B7803704B7843708B7883709E
:1009F000604670470000000000000000000000009A
:100A0000A2EB0300704700BF02780B78012A28BFD1
:100A10009A42F5D16DE9044540EA0104CDE9026747
:100A20006FF0000C4FEA447212B380EA010414F034
:100A3000070F6AD100F0070420F0070004F0030557
:100A400021F007014FEAC505F0E8042314F0040F74
:100A5000F1E804670CFA05F462EA040266EA0406A7
:100A60000AD063EA0403624667EA0407664603E0C5
:100A7000F0E80423F1E8046782FA4CF582EA060400
:100A8000A4FA8CF46CBB83FA4CF583EA0705A5FA4B
:100A90008CF595B950E9022351E9026782FA4CF5C9
:100AA00082EA0604A4FA8CF483FA4CF583EA07057B
:100AB000A5FA8CF52543DBD09CB92DBAB5FA85F49F
:100AC00024F0070427FA04F1DDE9026723FA04F3AE
:100AD00003F0FF0001F0FF01FDE80445A0EB010079
:100AE000704724BAB4FA84F424F0070426FA04F117
:100AF000DDE9026722FA04F202F0FF0001F0FF01D3
:100B0000FDE80445A0EB0100704714F0030F3CD151
:100B100010F0030428D150F8082B51F8083B82FA52
:100B20004CF582EA0305A5FA8CF55DB950F8042C62
:100B300051F8043C82FA4CF582EA0305A5FA8CF5DB
:100B4000002DE8D02DBAB5FA85F424F0070423FA75
:100B500004F122FA04F202F0FF0001F0FF01FDE8C7
:100B60000445A0EB010070474FEAC40420F00300E5
:100B700050F8082B21F0030151F8083B0CFA04F45B
:100B800062EA040263EA0403C9E710F003041AD01E
:100B9000A1EB040120F00300E40750F8042B06D079
:100BA0000FD28B785FFAA2F4E41A06D12BB1CB787E
:100BB0005FFAB2F4E41A00D11BB920465DF8104B7D
:100BC000704701F1040150F8042BCC0721F0030118
:100BD00051F8043B48D824D222F07F4482FA4CF5E5
:100BE00094EA1325A5FA8CF50AD165B951F8043BAE
:100BF00084EA0204B4EB036F0ED150F8042BEBE748
:100C00004FEA132355E035F07F454DD10878FDE8D4
:100C10000445C0F1000070474FEA126203F0FF0381
:100C200047E002EA1C4482FA4CF594EA1345A5FA1F
:100C30008CF50AD165B951F8043B84EA0204B4EB9F
:100C4000034F0CD150F8042BEBE74FEA134330E08D
:100C500015EA1C4528D10B884FEA124229E04FEAD9
:100C6000124203EA1C4324E002F0FF0482FA4CF52E
:100C700094EA1365A5FA8CF50AD165B951F8043BDD
:100C800084EA0204B4EB032F09D150F8042BEBE7FC
:100C90004FEA13630DE015F0FF0F05D10B684FEA23
:100CA000122223F07F4304E04FF00000FDE80445EA
:100CB000704712BA1BBA82FA4CF482EA0304A4FA0F
:100CC0008CF5B5FA85F402FA04F203FA04F34FEA5C
:100CD0001260FDE80445A0EB13607047AFF300809D
:100CE000704700BFAFF30080AFF30080AFF3008028
:100CF000FEE700BFAFF30080AFF30080AFF30080EA
:100D000072B6374C84F30988364A374913684FF076
:100D1000404043F47003136008600023E1EE103A92
:100D200006228B6082F31488BFF36F8F06F058FDA4
:100D30002E4B2F4A93420BD2D9430A4422F003028E
:100D400004321A444FF0553143F8041B9342FBD14F
:100D5000284BA3420CD2284A191D521A22F0030232
:100D600004321A444FF0553143F8041B9342FBD12F
:100D7000224A234B9A420CD2D043184420F003005D
:100D8000204B0430184453F8041B42F8041B8342E0
:100D9000F9D11D4B1D4A93420AD2D9430A4422F08D
:100DA000030204321A44002143F8041B9342FBD18E
:100DB000174D184CFFF794FFAC4204D254F8043B93
:100DC0009847AC42FAD3144D144CFFF7F9F9AC42F2
:100DD00004D254F8043B9847AC42FAD3FFF788FF9B
:100DE0000008002088ED00E034EF00E00000002063
:100DF0000004002000040020030800200008002058
:100E00004C11002040CE01084C110020B887012071
:100E1000C0010008C0010008C0010008C0010008AE
:100E2000FEE700BFAFF30080AFF30080AFF30080B8
:100E3000064A536823F001035360EFF309836833D4
:100E400083F30988002383F31188704730EF00E0B3
:100E5000202383F31188124B5B6813F4006302D1E3
:100E600083F31188704710B5F1EE103AEFF309845F
:100E70000C4B4FF08072DB6844F8083C44F84C2C73
:100E8000A4F1680383F3098800F002FA18B1064B55
:100E900044F8503C10BD054B44F8503C10BD00BF19
:100EA00000ED00E030EF00E0070300080A0300084F
:100EB000024B034A9B699A61FEE700BF5011002074
:100EC000A0600108AFF30080AFF30080AFF30080B3
:100ED0001F4B204A2048F0B500249C60DF681F4E5D
:100EE0001F4D4FF6FF0139400A43DA60F26842F0C5
:100EF0008072F2600268202142F001021026026036
:100F000083B0DE7783F8221000F02AF900F028FA87
:100F100000F0CEF801F024FC01F06AFC28464021E4
:100F200000F08EFAA5F1300301229861027784F374
:100F3000118862B69B690B49996105F148000094DC
:100F40004FF4B071084B00F0D3FA03B0F0BD00BF0E
:100F500000ED00E00003FA05001000E0F0ED00E015
:100F600080110020B0600108B10E0008AFF30080CE
:100F700072B6014BD862FEE750110020AFF300803B
:100F80002DE9F0411B4C4FF08045E369A26A696A84
:100F900098688E1A864204F11C0619D34FF0000897
:100FA00020271968D3F80CC00244A2624E60E161A8
:100FB000C3F80C8088F311881869E04787F311881B
:100FC000E369696AA26A9868C2EB010E8645E8D2B5
:100FD000B3420BD0012804D00844BDE8F04105F02D
:100FE000EFBA881CBDE8F04105F0EABABDE8F0416F
:100FF00005F0DEBA50110020AFF30080AFF300809F
:101000008A4206D9814208D8824294BF002001203A
:1010100070478142F8D8012070470020704700BF18
:1010200008494A68104490424B6802D9934202D260
:1010300070479342F7D283422CBF00230123002B39
:10104000F1D17047001000E0AFF30080AFF30080F3
:10105000014B5B6883607047001000E0AFF30080D5
:101060000F4B10495A688368F0B44F6FC6684168E7
:10107000D0E90445D31ADB1BE41845F1000501361D
:101080008B42C6608360C0E9044505D8026893427C
:1010900038BF0360F0BC70474360F0BC704700BFCE
:1010A000001000E050110020AFF30080AFF300808B
:1010B000D0B50C4C86B000234FF0FF3268460026B6
:1010C000002763670193029303930092CDE90467BD
:1010D000FFF7BEFF6846FFF7C3FF029B636706B0DA
:1010E000D0BD00BF50110020AFF30080AFF30080EF
:1010F00010B4202383F31188037F072B0ED8DFE879
:1011000003F0270D0D2308040D08026A93680133CC
:10111000936090E80C001A60026853604FF0FF344F
:10112000002281680D4B046202771B689A688A422C
:10113000FBD25A684260036000215860106081F35E
:1011400011885DF8044B7047036A00221A60E5E7D6
:10115000002383F311885DF8044B70475011002081
:10116000034B00225B601B605B611B619A607047F0
:1011700050110020AFF30080AFF30080AFF3008088
:1011800000228168084B10B4044602771B689A68F5
:101190008A42FBD25A686260236020465C60146019
:1011A0005DF8044B704700BF50110020AFF3008082
:1011B000074B30B41A689969146808770125636091
:1011C00015771C60104630BC9A61FFF789B800BFE4
:1011D00050110020AFF30080AFF30080AFF3008028
:1011E00030B54B1C87B012D00C4C0D4AA369054694
:1011F00001A800F0C5F82846FFF7DAFF049B13B1F9
:1012000001A800F0F5F8A369186A07B030BD034CD7
:10121000FFF7CEFFA369186A07B030BD5011002058
:10122000F1100008AFF30080AFF30080AFF300804F
:10123000144BF0B49E6984680546B0682962844204
:101240004FF000020BD82A771B689A689442FBD9AA
:101250005A686A602B605D601560F0BC7047327739
:101260001A46126891688842FBD954687460012755
:101270003260566026602F77314628469D61F0BC6B
:10128000FFF72EB850110020AFF30080AFF30080BD
:10129000044B1A689B6990689B68984294BF002031
:1012A0000120704750110020AFF30080AFF30080A1
:1012B0000D4A106870B40368946913600126002514
:1012C000A1685A6006779061257700E01B689A68EC
:1012D0008A42FBD25A686260236021465C601460D7
:1012E00070BCFEF7FDBF00BF50110020AFF30080BF
:1012F0000D4A106870B403689469136001260025D4
:10130000A1685A6006779061257700E01B689A68AB
:101310008A42FBD85A686260236021465C60146090
:1013200070BCFEF7DDBF00BF50110020AFF300809E
:10133000044B1A689B6992689B689A4200D8704770
:10134000FFF7D6BF50110020AFF30080AFF300804D
:10135000FFF7CEBFAFF30080AFF30080AFF30080A4
:10136000054B4FF0FF3003F11C02002158629962D7
:101370001A62DA61704700BF50110020AFF300809D
:10138000F8B51A4FBE4601298CBF0D4602255EF8FE
:101390001C4F03614FF080437445C26006465A6A91
:1013A0001DD0B86AA368121A15449D4203D211E0F9
:1013B0002468ED1AA368AB42FAD3636873603460A3
:1013C00066601E60B560A1684FF0FF33491BA160E5
:1013D0007B62F8BD284405F0F3F8A368EBE7A81892
:1013E000BA6205F0DDF87B6AE5E700BF5011002026
:1013F00002688368916830B4104C456819442346EC
:1014000091602A60016853F81C2F4D609A424FF09A
:1014100000054FF0FF31C56061620BD09368A06A90
:10142000012B03D9184430BC05F0CAB8023030BCD7
:1014300005F0C6B830BC05F0BBB800BF50110020A5
:10144000F0B50E4CC16366694661002200F12805C3
:101450004FF0020C4FF0010E00F12407816004618F
:1014600080F81CC0606180F81EE0427782634263AE
:10147000826130614762C5628562F0BD5011002013
:101480002DE9F04E6439164FDFF85890D7F814E084
:101490000144C16000250B6494464FF0020B00F13B
:1014A00028024FF0010A00F12406089B4B64C1F8A2
:1014B0006090C0F808C00761C0F814E0C0F83CC0F4
:1014C00080F81CB080F81EA045777861856345637D
:1014D0008561CEF810004662C2628262BDE8F08E7D
:1014E00050110020F9020008AFF30080AFF3008034
:1014F0002DE9F84F9A460446202383F31188194EAC
:101500000A9BD6F814B0DFF86090643901440025D6
:1015100000F128074FF0010C00F1240E4FF00208F3
:10152000C160C1F840A04B64C1F860908260066160
:10153000C0F814B0C26380F81C8080F81EC04577E4
:1015400070618563456385612946CBF81000C0F85A
:1015500024E0C7628762FFF76BFE85F3118820469F
:10156000BDE8F88F50110020F9020008AFF30080A9
:1015700008B5202383F31188FFF702FE002383F3CD
:10158000118808BDAFF30080AFF30080AFF3008097
:1015900010B5202383F31188084B9B69DC6B996895
:1015A0008C4201D0814200D29860D863FFF7C0FE20
:1015B000002383F31188204610BD00BF5011002086
:1015C000202383F31188437F43F0040343770023F0
:1015D00083F31188704700BFAFF30080AFF3008042
:1015E00008B50146202383F311880820FFF7F8FD92
:1015F000002383F3118808BDAFF30080AFF30080B0
:1016000008B5202383F311884FF08043596A411AAB
:1016100002D00820FFF7E4FD002383F3118808BD02
:1016200008B5202383F31188064B1A689B699268DA
:101630009B689A4201D3FFF73BFE002383F3118896
:1016400008BD00BF50110020AFF30080AFF3008051
:1016500038B50E4B9C69636A206204F124059D42F3
:1016600007D01A6862621846FFF78AFD636AAB42C8
:10167000F7D1637F9B0704D1636922691A612269EC
:1016800053610F20BDE83840FFF792BD5011002094
:10169000202383F31188FFF7DBBF00BFAFF3008087
:1016A00038B50446202383F31188037F0F2B07D01E
:1016B000084B426A9B6909201A606362FFF778FD54
:1016C000256A002383F31188204600F059F8284644
:1016D00038BD00BF50110020AFF30080AFF3008091
:1016E00069B1084B10B4024644689B69042083E842
:1016F0001400536023605DF8044BFFF771BD4FF099
:10170000FF30704750110020AFF30080AFF300802E
:1017100002689042034609D010B414680460636004
:10172000116210465DF8044BFFF72ABD704700BFF9
:1017300038B50368984204460D4609D01A682260FD
:10174000184654601D62FFF71BFD23689C42F5D1CB
:1017500038BD00BFAFF30080AFF30080AFF300806F
:10176000202383F31188837F01338377002383F35E
:1017700011887047AFF30080AFF30080AFF30080B3
:101780000146202383F31188837F013BDBB28377FB
:10179000002282F3118813B9037F0F2B00D070470A
:1017A000437F03F00303012B02D0022B07D07047C5
:1017B000436902691A610269536101F081B84369A2
:1017C00002691A610269006C536101F029B900BF16
:1017D000F0B583B016461D460F4601F029F898B1C2
:1017E000202383F31188089B0093394632462B4609
:1017F000FFF746FE0123437700210446FFF718FD5B
:10180000002383F31188204603B0F0BDAFF30080BE
:101810002DE9F04182B00F4616469846054601F084
:10182000E7F8A0B1202383F311886968CDF8008020
:101830003A463346FFF724FE02234377056400212E
:101840000446FFF7F5FC002383F31188204602B01D
:10185000BDE8F081AFF30080AFF30080AFF300800C
:10186000202383F31188044B1869837F0133837726
:10187000002383F31188704750110020AFF30080DC
:1018800010B5202383F31188074B04699C421DBFC8
:10189000A37F0133A3770024002383F31188FFF78C
:1018A0006FFF204610BD00BF50110020AFF3008035
:1018B0004060006081607047AFF30080AFF300804C
:1018C00070B5856881600135002D0CDC04466FF031
:1018D00001066068436863601C60FFF751FC0135D6
:1018E000012D0662F5D170BDAFF30080AFF300802B
:1018F00008B5202383F31188FFF7E2FFFFF718FDF7
:10190000002383F3118808BDAFF30080AFF300809C
:10191000202383F311888368013B002B836004DB61
:101920000020002383F31188704710B5084CA2698A
:10193000106241685160034610605A6005200A60D9
:10194000FFF736FCA369186A002383F3118810BDE2
:1019500050110020AFF30080AFF30080AFF30080A0
:1019600003468068421E002A9A6001DB002070470F
:1019700010B461B1094A926913625C68052082E87B
:1019800018005A6022605DF8044BFFF729BC98608C
:101990005DF8044B4FF0FF30704700BF501100203E
:1019A00008B5202383F31188FFF7DAFF002383F3C0
:1019B000118808BDAFF30080AFF30080AFF3008063
:1019C00008B5202383F3118883680133002B8360DB
:1019D00003DD002383F3118808BD03460068026815
:1019E0001A6000215360FFF723FC002383F3118862
:1019F00008BD00BFAFF30080AFF30080AFF30080FD
:101A000083680133002B836000DD704703681A6828
:101A100002600021506018461962FFF7B1BB00BF99
:101A200070B50C1E12DD0546002601E0013C0DD00C
:101A3000AB680133002BAB60F8DC286803682B60CF
:101A40005D60FFF79DFB013C0662F1D170BD00BFF8
:101A500010B5024682B0202383F3118883680133D6
:101A6000002B83601DDD8B68013B002B8B6007DB47
:101A7000FFF75EFC0020002383F3118802B010BD45
:101A80000D4A4B689469052084E80A004C601C608C
:101A90002162FFF78DFB206A002383F3118802B0D7
:101AA00010BD00680191036813605A60FFF768FB7E
:101AB000002303620199D6E750110020AFF30080A4
:101AC0000023406000608360704700BFAFF3008078
:101AD000304B826870B59C69002A55D0A168936824
:101AE0009942054606D9137F9160062B33D0072B08
:101AF0001DD09BB12B4603E09968A268914202D3A6
:101B00001B689D42F8D15A68626023605C60146073
:101B100025620620BDE87040FFF74ABB92E80A0044
:101B20001960116810464B60FFF72AFBE2E792E864
:101B300009001860166A10684360334602E098682E
:101B4000884202D31B689E42F9D1596851601360E4
:101B50005A600A60CEE792E809001860166A1068B9
:101B60004360334602E09868884202D31B689E4275
:101B7000F9D15968516013605A600A60B268A1686F
:101B800093688B42AFD3B5E7A36BC3608460A06357
:101B900070BD00BF50110020AFF30080AFF3008094
:101BA00008B5202383F31188FFF792FF002383F306
:101BB000118808BDAFF30080AFF30080AFF3008061
:101BC0000346202282F31188826800201AB1002384
:101BD00083F311887047054A92699A60916BD960C6
:101BE00001209363002383F3118870475011002074
:101BF000164B70B59D69202383F311880468C36870
:101C0000AB63A0421CD0E96B4BB11A68934203D07E
:101C10009268914238BF1146DB68002BF5D103462C
:101C20002268A66BA96020461A60002153609C6060
:101C3000DE60A363FFF7FCFA002383F3118870BD15
:101C400000238360002383F3118870BD50110020AE
:101C5000124B30B4044605689869E3688363AC426C
:101C600017D0C16B4BB11A68934203D0926891426E
:101C700038BF1146DB68002BF5D12B68AA6B816059
:101C8000236028465C60A560E260AC6330BCFFF76F
:101C900077BA0023A36030BC704700BF501100200A
:101CA000134A70B52023946983F31188A36BD3B1D1
:101CB00000260AE01168956B19604B609A60DD6040
:101CC0009363FFF75DFAA36B4BB11A68D968A16300
:101CD00093421046EED19E60A36B002BF5D1E36BCF
:101CE000A360FFF725FB002383F3118870BD00BFBD
:101CF00050110020AFF30080AFF30080AFF30080FD
:101D000040600060704700BFAFF30080AFF3008019
:101D100008B5202383F311880268824207D0116836
:101D2000016003464B6010460021FFF781FA002353
:101D300083F3118808BD00BFAFF30080AFF30080CC
:101D40000368984207D01A68026000215060184664
:101D50001962FFF715BA7047AFF30080AFF3008048
:101D600038B504460068A0420AD06FF00105036848
:101D700023605C60FFF704FA05622068A042F6D198
:101D800038BD00BFAFF30080AFF30080AFF3008039
:101D900008B5202383F31188FFF7E2FFFFF7C8FAA5
:101DA000002383F3118808BDAFF30080AFF30080F8
:101DB0000F4B70B59C69A66B05463046FFF748FF90
:101DC00025622B4603E09968A268914202D31B6802
:101DD0009D42F8D15A686260236007205C601460FD
:101DE000FFF7E6F9246A3046FFF772FE204670BD21
:101DF00050110020AFF30080AFF30080AFF30080FC
:101E000008B5202383F31188FFF7D2FF002383F363
:101E1000118808BDAFF30080AFF30080AFF30080FE
:101E2000F8B5124CA3699E6B054630460F46FFF786
:101E30000FFFA4692B46256203E09868A2689042D0
:101E400002D31B689D42F8D15A686260236039460C
:101E50005C6007201460FFF7C3F9431C044602D0FE
:101E60003046FFF735FE2046F8BD00BF5011002078
:101E700008B5202383F31188FFF7D2FF002383F3F3
:101E8000118808BDAFF30080AFF30080AFF300808E
:101E900030B4202484F31188064D0468AD690C60C9
:101EA000002401604D608A600B61CC6084F311886E
:101EB00030BC704750110020AFF30080AFF30080BA
:101EC000202383F31188024602E08B4207D01A4692
:101ED00013688342F9D1002383F3118870470B689C
:101EE0001360002383F31188704700BFAFF30080B5
:101EF000202383F31188054B9A69536B23EA000171
:101F00005163002282F3118818407047501100205D
:101F1000202383F31188044B9A69536B1843506351
:101F2000002383F31188704750110020AFF3008025
:101F3000436B027F19430A2A41630AD00B2A00D05F
:101F40007047036A19408B42FAD100230362FFF7FE
:101F500017B9036A1942F8D1704700BFAFF3008088
:101F600070B50468A04206460D460DD0E3682B43C9
:101F7000E36015B12269134203D06068A168FFF7DE
:101F8000D7FF2468A642F1D170BD00BFAFF3008037
:101F900008B5202383F31188FFF7CAFFFFF7C8F9BC
:101FA000002383F3118808BDAFF30080AFF30080F6
:101FB00008B5202383F31188FFF7D2FFFFF7B8F9A4
:101FC000002383F3118808BDAFF30080AFF30080D6
:101FD000F8B50D46A9B107460024012606FA04F318
:101FE0002B4204D1013406FA04F32B42FAD02046E6
:101FF00025EA030557F8243098470134002DEDD128
:10200000F8BDF8BDAFF30080AFF30080AFF3008000
:1020100038B50D4B9D69202383F311886B6B10EA53
:10202000030207D1044628620A20FFF7C1F86B6B50
:1020300004EA03025042104023EA00036B630023CA
:1020400083F3118838BD00BF50110020AFF300802A
:1020500038B50C4B9D69202383F311886B6B10EA14
:10206000030406D1044628620A20FFF7A1F86B6B2F
:102070001C4023EA04036B63002383F3118820468A
:1020800038BD00BF50110020AFF30080AFF30080D7
:1020900038B50C4B04469D69202383F311886B6B84
:1020A00000EA0302824204D028620B20FFF780F886
:1020B0006B6B23EA04036B63002383F311882046D0
:1020C00038BD00BF50110020AFF30080AFF3008097
:1020D000124B70B520229D6982F311886A6B10EA59
:1020E00002060ED119B981F31188084670BD286225
:1020F00004460A20FFF774F800280BDB6A6B04EA39
:1021000002067042304022EA00026A63002383F331
:10211000118870BD86F31188304670BD50110020C3
:10212000124B70B59E69202383F31188736B10EAFC
:1021300003040ED119B981F31188084670BD3062CD
:1021400005460A20FFF74CF800280ADB736B05EA06
:10215000030423EA04037363002383F311882046F6
:1021600070BD84F31188204670BD00BF501100205F
:1021700038B5104B04469D69202383F311886B6B9F
:1021800000EA030282420BD0084611B980F311889D
:1021900038BD2C620B20FFF723F8002808DB6B6B9F
:1021A00023EA04036B63002383F31188204638BDC0
:1021B0000020EBE750110020AFF30080AFF3008068
:1021C0000E4B70B520229C6982F3118800F128051E
:1021D000067F2562C26A62600E2E21632560C4629A
:1021E000146007D00C20FEF7E3FF206A002383F37E
:1021F000118870BDFEF7C4FFF4E700BF5011002046
:1022000010B5202383F311880B4CA269134653F8B1
:10221000280F984208D0016891620D224B6000237C
:10222000027783F3118810BD0E20FEF7C1FFA2696B
:10223000906A02F12803EEE750110020AFF300800E
:1022400008B5202383F31188FEF7F2FF002383F300
:10225000118808BDAFF30080AFF30080AFF30080BA
:1022600010B50B4601EB820141600446C3608360F8
:10227000036011461C30FFF71BFB04F11000002126
:10228000BDE81040FFF714BBAFF30080AFF3008050
:1022900010B504461C3023686168E360C91AA36066
:1022A0008910FFF70DFB04F110000021BDE810407C
:1022B000FFF706BBAFF30080AFF30080AFF3008001
:1022C00008B5202383F31188FFF7E2FFFFF730F80A
:1022D000002383F3118808BDAFF30080AFF30080C3
:1022E00070B504460E461C301146FFF739FB054613
:1022F00078B9A2686168131D8B42A36028BF236868
:10230000166004F1100028BFA360FFF779FBFFF708
:102310000FF8284670BD00BFAFF30080AFF3008018
:1023200008B5202383F31188FFF7DAFF002383F336
:10233000118808BDAFF30080AFF30080AFF30080D9
:1023400038B5436A002B12DD84684568221D013BC5
:10235000AA42436228BF03688260216000F1100036
:1023600028BF40F8083CFFF74BFB002038BD4FF07A
:10237000FF3038BDAFF30080AFF30080AFF30080D3
:1023800070B504460E461C301146FFF7E9FA0546C3
:1023900060B9E3682268043B9342E36008D31E609F
:1023A00004F11000FFF72CFBFEF7C2FF284670BDBA
:1023B0006368043BE360F2E7AFF30080AFF30080B3
:1023C00008B5202383F31188FFF7DAFF002383F396
:1023D000118808BDAFF30080AFF30080AFF3008039
:1023E000426A002A11DDC36810B50468043B013A53
:1023F000A3424262C36002D24368043BC3601960D7
:102400001030FFF7FDFA002010BD4FF0FF3070478D
:1024100070B504460E4610301146FFF7A1FA054686
:1024200080B9E3686268196804339342E36028BFA7
:102430002368316004F11C0028BFE360FFF7E0FA75
:10244000FEF776FF284670BDAFF30080AFF3008043
:1024500008B5202383F31188FFF7DAFF002383F305
:10246000118808BDAFF30080AFF30080AFF30080A8
:102470008369002B14DD5A1EC36810B5826142685F
:102480001C6804339342C36028BF03680C6000F1EA
:102490001C0028BF40F8103CFFF7B2FA002010BD26
:1024A0004FF0FF30704700BFAFF30080AFF3008004
:1024B00030B4029C046200250A44856002614060D9
:1024C000006041618161C160C36130BC704700BF81
:1024D0000021C2688160426182616FF00101FFF7F3
:1024E00027B900BFAFF30080AFF30080AFF30080E7
:1024F000836942699A4210B583680FD00133541C36
:10250000836044611170426903699A4201D3C368D0
:1025100043610021FFF7FCF8002010BD002BEDD037
:102520006FF0030010BD00BFAFF30080AFF3008079
:1025300070B520230E46044683F31188C3692BB17E
:10254000984703E0FFF7CCF8002815DBA568204684
:102550003146002DF6D0A2692169531C8B4205F14A
:10256000FF35A361A56028BFE368107828BFA36189
:10257000002383F3118870BD85F3118870BD00BFFF
:102580002DE9F04F044683B0894693461D46D0F8A6
:102590001C80202787F3118800260197B246B8F1E6
:1025A000000F05D02046C04702E0FFF799F8D8B9E0
:1025B000A76820462946002FF7D0A2697B1E511C30
:1025C000A161A360137809F8013B2369A2699A42CB
:1025D00024BFE368A3618AF311880136B34505D0AF
:1025E000019B83F31188DAE787F31188304603B043
:1025F000BDE8F08FAFF30080AFF30080AFF3008051
:1026000030B4029C04628D180561406000608260F5
:1026100041618161C160C36130BC7047AFF300802C
:1026200010B40269C4684461121B84616FF0010137
:1026300082605DF8044BFFF77BB800BFAFF300800A
:10264000F8B504460F461646202383F3118803E0AD
:10265000FFF746F8002818DBA56820463146002D14
:10266000F6D06369013D5A1C6261A5601F70236941
:1026700062699A4224BFE3686361E3690BB1204653
:102680009847002080F31188F8BD85F31188F8BDC4
:1026900038B582694369934283680ED00569511C3D
:1026A000013383608161A942147801D3C3688361D7
:1026B0000021FFF72DF8204638BD002BEED06FF03B
:1026C000020038BDAFF30080AFF30080AFF30080AD
:1026D0002DE9F04F83B004468B4616460193D0F89F
:1026E0001C804FF0200989F311880027CDF8009055
:1026F000BA46A5680BF101096A1E20460DB363694D
:10270000A2605A1C62619BF800201A7023696269FA
:102710009A4224BFE3686361B8F1000F00D0C0475C
:102720008AF31188013E07F1010712D0009B83F361
:102730001188A568CB466A1E0BF101092046002DC1
:10274000DDD120460199FEF7CBFF0028D1D085F3DB
:102750001188384603B0BDE8F08F00BFAFF30080AA
:10276000054A064B0648074922F0070223F00703F3
:1027700002600B60704700BFBF87012000C00120CE
:102780002C13002028130020AFF30080AFF300804B
:1027900010B4202383F31188094C0A4B226819686E
:1027A000C31D23F00703891A8B429DBF9B1823602A
:1027B00010460020002383F311885DF8044B704716
:1027C0002C13002028130020AFF30080AFF300800B
:1027D000024A034B10681B68C01A70472813002078
:1027E0002C130020AFF30080AFF30080AFF3008024
:1027F000044B054A1A6003F1100000229A60DA6067
:10280000FFF75EB93013002091270008AFF3008076
:102810000023083A81600360C36010304A600B6097
:10282000FFF74EB9AFF30080AFF30080AFF3008045
:10283000F8B5214E002818BF064606F110070731EB
:10284000384621F0070506F10804FFF7A9F903E06F
:1028500043689D4212D9044620680028F8D13846C2
:10286000FFF7C6F933682BB305F10800984708B3A2
:102870000660456000F108042046F8BD05F1080235
:102880009A4209D9036823600446384644F8086B25
:10289000FFF7AEF92046F8BD6FF00701491B00EBCA
:1028A000020E0B4401688150CEF80430C4F800E0F9
:1028B0004560E9E70024DFE730130020AFF3008034
:1028C000F8B550F8085C05F110070646A0F10804B9
:1028D00008353846FFF764F92B46AB4204D0A342D3
:1028E00002D31B68AB42FAD11A681AB1944201D3E1
:1028F0001346F2E756F8041C46F8082C1C6001F158
:10290000080256F8085CA018A8420AD0596801F1DC
:1029100008021A44944212D03846BDE8F840FFF746
:1029200067B94068A25846F8082C0A18083246F8D9
:10293000042C596801F108021A449442ECD116E9BA
:1029400005000A44083218605A603846BDE8F8406D
:10295000FFF74EB9AFF30080AFF30080AFF3008014
:1029600070B50F4C002818BF044604F11005284626
:102970000E46FFF715F9A36873B100221446586894
:102980001B6801340244002BF9D106B1326028469D
:10299000FFF72EF9204670BD1A461C46F5E700BF2A
:1029A00030130020AFF30080AFF30080AFF300805E
:1029B0000023416082600360704700BFAFF3008076
:1029C00072B130B42025002485F3118803680B60B0
:1029D000016084F311884368013A1944F4D130BC92
:1029E000704700BFAFF30080AFF30080AFF300800B
:1029F00008B52022034682F31188006828B10268D6
:102A00001A60002383F3118808BD9A68002AF8D061
:102A100058689047002383F3118808BDAFF3008006
:102A2000202383F3118803680B600023016083F384
:102A300011887047AFF30080AFF30080AFF30080E0
:102A4000014B01221A707047651C0020AFF3008013
:102A500070B5094E4C243068074D03682D219B68E2
:102A60009847013CF7D128680449036802221B6893
:102A7000BDE87040184700BF981C0020F0600108B6
:102A800010B370B5134A84B06D466C46A2FB0013B8
:102A9000DB0803EB8301A0EB410000F13001C9B278
:102AA00004F8011B1846002BF0D1AC420AD90A4E9B
:102AB000013C01E014F8011D306803689B689847E9
:102AC000AC42F7D104B070BD034B186803683021E5
:102AD0009B681847CDCCCCCC981C0020AFF300806D
:102AE00038B50178044641B1044D286803689B68F5
:102AF000984714F8011F0029F7D138BD981C002011
:102B000070B50178094D044639B1286803689B689F
:102B1000984714F8011F0029F7D128680449036871
:102B200002221B68BDE87040184700BF981C0020B7
:102B3000F0600108AFF30080AFF30080AFF30080D6
:102B4000202383F31188044B1A68511C19601070FC
:102B5000002383F311887047681C0020AFF30080C6
:102B600059B910B40649074C074A01232370106075
:102B70000B7018465DF8044B7047002318467047E9
:102B80006C1C0020641C0020601C0020AFF300803F
:102B9000F0B40E4E0E4F35683B4605E013F8014B7E
:102BA00011F8012B944207D1AB42F7D30B781BB934
:102BB00037601846F0BC7047064C0749074A0123A6
:102BC000237010600B701846F0BC7047681C002022
:102BD0009C1C0020641C00206C1C0020601C002039
:102BE00010B4202383F311884FF080440023646ADB
:102BF00083F31188641A521A944206D3054C06498D
:102C0000064A012323700B70106018465DF8044BD0
:102C1000704700BF641C00206C1C0020601C00205A
:102C200038B5064C04F1140554F8043B18460BB1B2
:102C3000FEF7C6FCAC42F7D138BD00BF841C0020B3
:102C400070B5074C002604F1140554F8040B18B1B4
:102C5000FEF726FD44F8046CAC42F6D170BD00BF0F
:102C6000841C0020AFF30080AFF30080AFF300803E
:102C700008B50120FEF7B4FC202383F311884FF040
:102C800080420023506A83F3118808BDAFF30080AF
:102C900042F2107310B503FB00F00D4C0D4A0138E1
:102CA000A4FB0034A409002313700134202383F310
:102CB00011880948C3680BB1FEF79AFB2146064804
:102CC000064A0023FEF75CFB002383F3118810BD46
:102CD000D34D6210651C0020701C0020412A0008A2
:102CE0002DE9F04FA04CA14D206083B0A048FFF724
:102CF00007FFA048FFF704FF9F48FFF701FF2A21C5
:102D0000206803689B68984715F8011F0029F7D1D0
:102D10009A489B4DFFF7F4FE2A21206803689B68C0
:102D2000984715F8011F0029F7D19648964DFFF7EF
:102D3000E7FE2A21206803689B68984715F8011F61
:102D40000029F7D19148924DFFF7DAFE2A21206839
:102D500003689B68984715F8011F0029F7D18D4833
:102D60008D4DFFF7CDFE2A21206803689B689847A8
:102D700015F8011F0029F7D18848894DFFF7C0FEDB
:102D80002A21206803689B68984715F8011F0029CD
:102D9000F7D18448844DFFF7B3FE2A2120680368E9
:102DA0009B68984715F8011F0029F7D17F48804D8F
:102DB000FFF7A6FE2A21206803689B68984715F84C
:102DC000011F0029F7D17B4B7B4800910193FFF74E
:102DD00097FE6748DFF82082DFF88CB1FFF790FE9E
:102DE000764B00991970009B01330093002658F828
:102DF000263008EB8607002B00F08780704DFFF728
:102E000027FE2D21206803689B68984715F8011F4D
:102E10000029F7D100986B4DFFF732FEDBF8000078
:102E200003682E219B68013698473046FFF728FE3D
:102E30002021206803689B68984715F8011F002926
:102E4000F7D13B681D68297839B1206803689B6811
:102E5000984715F8011F0029F7D15B48DFF89C91CE
:102E60005A4DDFF87CA1FFF74BFE4FF4FA60FEF7F6
:102E7000B7FB574A3F68C5F800A0002313605360B2
:102E80009360D36013617A6889F8003002B190478B
:102E9000FB689847BB6803B19847FFF7D1FE99F8E4
:102EA0000030002B53D04B4F2D21206803689B68C6
:102EB000984717F8011F0029F7D1474B474F18686B
:102EC000FFF7DEFD2021206803689B68984717F80C
:102ED000011F0029F7D12B68534509D9404F2068BD
:102EE00017F8011B03689B6898472B689F42F6D32D
:102EF0003C48FFF705FE019BD3F8008058F82630C8
:102F000008EB8607002B7FF479AF019B53F8048F01
:102F10000193B8F1000F7FF466AFFFF799FD324DD2
:102F20001348FFF7EDFD4621206803689B6898472A
:102F300015F8011F0029F7D1204B1B785BB92B48EE
:102F4000FFF7DEFD1D4B187803B0BDE8F08F284871
:102F5000FFF7D6FD4BE72748FFF7D2FD174B187850
:102F600003B0BDE8F08F00BF981C0020F46001089A
:102F70006CCD0108D4610108F061010814620108F8
:102F800008610108206201081C610108386201081B
:102F90003061010880620108446101088C62010807
:102FA00058610108986201086C610108B06201086B
:102FB0008061010810630108DC6201086C1C0020BC
:102FC00094610108A4610108A47F0108681C002025
:102FD000841C0020A8610108601C0020C061010859
:102FE0009C1C0020F4610108C4610108046201080E
:102FF000F86101080C62010880630108641C00206C
:10300000F0B5274F274EBB69274D9A68274B30688C
:10301000274C83B0053A00934FF4E8712B46FEF736
:1030200067FABB6923499A68736820600091043A83
:1030300018464FF4E8712B46FEF75AFABA69B3689E
:1030400092681D4960600091033A18464FF4E87198
:103050002B46FEF74DFABA69F36892681749A060EB
:103060000091023A18464FF4E8712B46FEF740FAF9
:10307000BA69336992681249E060013A00911846D2
:103080004FF4E8712B46FEF733FA2061FFF7D8FDC5
:103090000C49012003B0BDE8F040FFF779BD00BF47
:1030A00050110020D0600108D1300008B063010841
:1030B000841C002010730108A0630108A4630108A8
:1030C000A8630108AC630108AFF30080AFF3008090
:1030D00008B50078FFF734FD002008BDAFF300808D
:1030E000F0B52B4F2B4EBB692B4D9A682B4B70685C
:1030F0002B4C83B0043A00934FF4E8712B46FEF753
:10310000F7F9BB6927499A68336860600091053A0E
:1031100018464FF4E8712B46FEF7EAF9BA693369AD
:103120009268214920600091013A18464FF4E871F5
:103130002B46FEF7DDF9BA69F36892681B492061F6
:103140000091023A18464FF4E8712B46FEF7D0F989
:103150002023E06083F31188BB69B0689A68144B40
:103160000093033A2B464FF4E871FEF789F90023E8
:10317000A06083F31188A068FEF7FAF9FFF760FDFD
:103180000C49012003B0BDE8F040FFF701BD00BFCE
:1031900050110020D0600108D130000810730108E0
:1031A000841C0020B0630108A8630108A46301081F
:1031B000A0630108AC630108AFF30080AFF30080A7
:1031C000F8B5494EB3699C68651C2846FEF7E0F9DE
:1031D000011B0746B1FA81F101204909FFF7C0FC44
:1031E00000B1F8BDB36999680220691AB1FA81F19A
:1031F0004909FFF7B5FC0028F3D13846FEF7C8F9B6
:10320000291A0320B1FA81F14909FFF7A9FC002826
:10321000E7D1B36999680420611AB1FA81F14909CB
:10322000FFF79EFC0028DCD1202383F31188B269CC
:1032300093680233936080F31188B3699968A71C7F
:10324000791A0520B1FA81F14909FFF789FC0028B4
:10325000C7D12846FEF79CF9011B0620B1FA81F17F
:103260004909FFF77DFC0028BBD1B36999680720A5
:10327000791AB1FA81F14909FFF772FC0028B0D13F
:10328000B369D96B0820691AB1FA81F14909FFF7CE
:1032900067FC0028A5D1E71C3846FEF779F9281A03
:1032A000414241410920FFF75BFC002899D1B369F5
:1032B00099687A1A514251410A20FFF751FC0028BF
:1032C0008FD1B369D96B7B1A594259410B20FFF753
:1032D00047FC002885D1202383F31188B3699C60C3
:1032E000DC6380F311887CE750110020AFF300808D
:1032F00070B5FFF7BDFC202686F311884FF080459E
:1033000000236C6A83F311884FF47A70FEF768F932
:1033100004F57A7104F2EB320120FFF761FC00B191
:1033200070BD86F311886C6A80F311884FF47A704F
:10333000FEF756F904F57A7104F2EB320220FFF73A
:103340004FFC0028ECD186F311886C6A80F3118859
:1033500042F21070FEF744F904F51C510A4613328C
:1033600010310320FFF73CFC0028D9D186F31188E7
:103370006C6A80F3118804F57A752846FEF740F9E7
:10338000294604F2EB320420BDE87040FFF728BC68
:103390002DE9F043484E494FB369D7F800809A6849
:1033A000DFF83C91464B474D474C83B005324FF414
:1033B000E871CDF800904046FEF79AF8B369796855
:1033C0009A68424B28600132084600934FF4E87136
:1033D0003B4BFEF78DF8B369B9689A683C4B68605F
:1033E0000332084600934FF4E871354BFEF780F83E
:1033F000B369F9689A68374BA860043208460093AD
:103400004FF4E8712E4BFEF773F8B36939699A6887
:10341000314BE8600232084600934FF4E871284BC4
:10342000FEF766F828612046FEF7CAFA2046FEF746
:10343000C7FA2046FEF7C4FA2046FEF7C1FA204636
:10344000FEF7BEFAFFF7FCFB01202449FFF7A0FBC3
:10345000074610B103B0BDE8F083B269184B92681B
:10346000CDF80090053240464FF4E871FEF740F881
:103470002026286086F3118802212046FEF7D0FA24
:10348000FDF756FF87F31188FFF7DAFB86F3118803
:10349000A1680220A1F10101B1FA81F14909FFF708
:1034A0005FFB20B980F3118803B0BDE8F08387F398
:1034B000118803B0BDE8F08350110020D0600108EE
:1034C00011350008841C002000080020A4630108B6
:1034D000A063010810730108B0630108AC63010820
:1034E000A8630108AFF30080AFF30080AFF3008062
:1034F00010B5044C2046FEF70BFA2046FEF760FAA2
:10350000002010BD00080020AFF30080AFF3008062
:1035100010B504460348FEF7FBF92078FFF710FBCF
:10352000002010BD00080020AFF30080AFF3008042
:1035300001480021FEF7BCB900080020AFF300806D
:1035400001480021FEF7B4B900080020AFF3008065
:1035500001480021FEF7ACB900080020AFF300805D
:1035600008B54FF4FA70FEF73BF8202383F3118877
:103570000448FEF745FAFDF7DBFE002080F31188D2
:1035800008BD00BF00080020AFF30080AFF300804B
:1035900070B54E4C82B000212046FEF701FAA0F132
:1035A000FF310120B1FA81F14909FFF7D9FA08B1D9
:1035B00002B070BD21680220091BB1FA81F14909EE
:1035C000FFF7CEFA0028F3D1A168B1FA81F1032008
:1035D0004909FFF7C5FA0028EAD13D4B3D4A9B69EE
:1035E00011689A683C4B0090013A08464FF4E87124
:1035F000FDF77EFF394B41F2883118602046FEF717
:10360000CFF90546FFF71CFBB5FA85F104204909FF
:10361000FFF7A6FA0028CBD121680520091BB1FAD3
:1036200081F14909FFF79CFA0028C1D1A168B1FADC
:1036300081F106204909FFF793FA05460028B7D122
:10364000FFF716FB202383F311884FF080435E6A57
:1036500085F3118841252846FFF772FA4FF4FA7175
:103660001A48FEF79DF9A0F1FF310720B1FA81F168
:103670004909FFF775FA00289AD121680820091B2B
:10368000B1FA81F14909FFF76BFA002890D1A168DE
:10369000B1FA81F109204909FFF762FA0135EDB26B
:1036A000002885D1462DD6D10A200D49FFF770FAA2
:1036B00000287FF47DAF0B2006F6C41106F6D81261
:1036C00002B0BDE87040FFF78BBA00BF00080020D1
:1036D00050110020D060010861350008841C0020D2
:1036E000AC630108AFF30080AFF30080AFF300805C
:1036F00010B5204B204A9B6910689A681F4B204CDC
:1037000082B00021013200914FF4E871FDF7F0FE24
:103710001C4B214618602046FEF79AF921680120CB
:10372000091BB1FA81F14909FFF71AFA08B102B091
:1037300010BDA168B1FA81F102204909FFF710FA22
:103740000028F4D121462046FEF782F921680320A3
:10375000091BB1FA81F14909FFF702FA0028E6D105
:10376000A168B1FA81F10420490902B0BDE8104016
:10377000FFF7F6B950110020D0600108F1340008BD
:1037800000080020841C0020AFF30080AFF300800D
:1037900008B5202282F311888368002B05DDFDF730
:1037A000C7FD002080F3118808BDFEF729F9FDF759
:1037B000BFFD002080F3118808BD00BFAFF300807B
:1037C00070B586B003A80021FEF772F803A80021A7
:1037D000FEF78EF8202585F31188059900294FF012
:1037E0000100CCBF00210121FFF7BAF9044620B146
:1037F000002383F3118806B070BD80F31188414B1C
:10380000414A9B6910689A68404B03A90091013AAC
:103810004FF4E871FDF76CFE3D4B186003A8FEF70E
:1038200077F885F3118805990029CCBF0021012183
:103830000220FFF795F918B184F3118806B070BD26
:1038400080F3118885F31188059B002B24DDFDF79B
:103850006FFD002484F31188202686F311880599D2
:10386000A1424FF00300D4BF00210121FFF778F9F6
:1038700005460028E0D180F3118886F31188059968
:103880000420A1F10101B1FA81F14909FFF768F9BA
:1038900030B185F31188AEE703A8FEF7B1F8D6E79B
:1038A00080F3118886F31188059B002B25DDFDF739
:1038B0003FFD002484F31188202686F311880599A2
:1038C000A1424FF00300D4BF00210121FFF748F9C6
:1038D00005460028B0D180F3118886F31188059938
:1038E0000520A1F10101B1FA81F14909FFF738F989
:1038F0000028CED180F311887DE703A8FEF780F879
:10390000D5E700BF50110020D060010891370008B2
:10391000841C0020AFF30080AFF30080AFF3008081
:10392000F0B52B4F2B4EBB692B489C682B4D83B0B9
:10393000FEF736F92A4B0093621C4FF4E871294BCD
:103940003068FDF7D5FD7168274B2860A21C08463A
:1039500000934FF4E871234BFDF7CAFDB168234B88
:103960006860E21C084600934FF4E8711D4BFDF7B8
:10397000BFFDF1681E4BA860221D084600934FF45E
:10398000E871184BFDF7B4FD31691A4BE860621D10
:10399000084600934FF4E871124BFDF7A9FD28612A
:1039A0000D48FEF725F9FFF74BF9BB69996801202F
:1039B000611AB1FA81F14909FFF7D2F808B103B0F1
:1039C000F0BD0D49022003B0BDE8F040FFF7E0B8BC
:1039D00050110020D06001080C080020841C002039
:1039E000B0630108013A000810730108A0630108E0
:1039F000A4630108A8630108AC630108AFF3008069
:103A000038B5064C05462046FEF7CAF82878FFF779
:103A100097F82046FEF7ECF8002038BD0C0800208F
:103A200038B5064C05462046FEF7BAF82878FFF769
:103A300087F82046FEF7DCF8002038BD1C0800207F
:103A40000148FEF73DB800BF0C080020AFF300802E
:103A500008B50448FEF734F80348BDE80840FEF70F
:103A60002FB800BF0C0800201C080020AFF3008016
:103A70000148FEF725B800BF0C080020AFF3008016
:103A800010B5064C40F2DC50FDF7AAFD2046FEF7CB
:103A900087F82046FEF7ACF8002010BD0C08002087
:103AA00010B5064C4FF4FA70FDF79AFD2046FEF76C
:103AB00077F82046FEF79CF8002010BD1C08002077
:103AC0002DE9F0468E4D8F4EAB6932689C688E4B67
:103AD0008E4F85B004F101091046039200934A46C7
:103AE0004FF4E8718A4BFDF703FD7668894B386027
:103AF00004F1020A4FF4E871524600933046864BB7
:103B0000FDF7F6FC78608548FEF74AF8AB699968DE
:103B10000120611AB1FA81F14909FFF721F810B1CA
:103B200005B0BDE8F0864FF47A70FDF759FDAB693A
:103B300099680220C1EB0901B1FA81F14909FFF747
:103B40000FF80028ECD17648FEF72AF8AB6999689F
:103B50000320C1EB0901B1FA81F14909FFF700F82F
:103B60000028DDD14FF47A70FDF73AFDAB69996812
:103B70000420C1EB0A01B1FA81F14909FEF7F0FF17
:103B80000028CDD16648FEF733F8AB699968052067
:103B9000C1EB0901B1FA81F14909FEF7E1FF002803
:103BA000BED14FF47A70FDF71BFDAB699968062012
:103BB000C1EB0901B1FA81F14909FEF7D1FF0028F3
:103BC000AED1FEF76DF8AB6999680720611AB1FABA
:103BD00081F14909FEF7C4FF0028A1D1FFF730F8B1
:103BE000504B00934FF4E8714A46494B0398FDF758
:103BF0007FFC4D4B38604FF4E87100935246464BC2
:103C00003046FDF775FC78604448FDF7C9FFAB69A5
:103C100099680820611AB1FA81F14909FEF7A0FFFD
:103C200000287FF47DAF4FF47A70FDF7D9FCAB69C3
:103C30009968C1EB090CDCF1000141EB0C01092092
:103C4000FEF78EFF00287FF46BAF3548FDF7A8FF25
:103C5000AB699968C1EB090EDEF1000141EB0E0181
:103C60000A20FEF77DFF00287FF45AAF4FF47A70E8
:103C7000FDF7B6FCAB699968C1EB0A0779424FF0D2
:103C80000B007941FEF76CFF064600287FF448AF31
:103C9000202383F311882248FDF7DAFFFDF748FB64
:103CA00086F31188AB699968C1EB090671427141CD
:103CB0000C20FEF755FF00287FF432AF4FF47A70E6
:103CC000FDF78EFCAB699968C1EB09025142514185
:103CD0000D20FEF745FF00287FF422AFFDF7E0FF3F
:103CE000AB699968631A594259410E20FEF738FFB3
:103CF00000287FF415AF05B0BDE8F046FEF7A0BF81
:103D000050110020D0600108A4630108841C002029
:103D1000A13A0008A8630108813A00081C080020A5
:103D20000C08002010730108A0630108AFF30080A5
:103D3000F8B52B4D2B4CAB6920469E68FDF740FF34
:103D400001460120FEF70CFF00B1F8BD2046FDF74B
:103D500037FF80F00101C9B20220FEF701FF0746DC
:103D60000028F2D1202383F311882046FDF770FF4D
:103D700087F3118821680320091BB1FA81F14909F1
:103D8000FEF7EEFE0028E0D1A168B1FA81F104202F
:103D90004909FEF7E5FE0028D7D1AB6999680520EF
:103DA000711AB1FA81F14909FEF7DAFE0028CCD187
:103DB0002046FDF7F5FEFDF773FF21680620091B7D
:103DC000B1FA81F14909FEF7CBFE0028BDD1A16807
:103DD000B1FA81F107204909BDE8F840FEF7C0BEFD
:103DE000501100200C080020AFF30080AFF30080DA
:103DF000F0B52F4B2F4F9B692F4D9E682F4B386886
:103E00002F4C83B0721C00934FF4E8712B46FDF7E2
:103E10006FFB7B682B492060B21C009118464FF461
:103E2000E8712B46FDF764FBBB6827496060F21C14
:103E3000009118464FF4E8712B46FDF759FBFB68DB
:103E40002249A060321D009118464FF4E8712B46BC
:103E5000FDF74EFB3B691E49E060721D009118465C
:103E60004FF4E8712B46FDF743FB2023206183F3D9
:103E70001188184C2046FDF763FF2046FDF760FFD0
:103E80002046FDF75DFF2046FDF75AFF2046FDF76F
:103E900057FFFDF74DFA002383F31188FEF7D0FE9C
:103EA0000D49012003B0BDE8F040FEF771BE00BF30
:103EB00050110020D0600108E13E0008B063010805
:103EC000841C002010730108A0630108A46301088A
:103ED000A86301082C080020AC630108AFF3008040
:103EE00038B5084C05462046FDF75AFE0648FDF752
:103EF00087FF2878FEF724FE2046FDF779FE002094
:103F000038BD00BF0C0800202C080020AFF3008053
:103F100008B50448FDF7F4FE0348BDE80840FDF786
:103F2000CFBD00BF2C0800200C080020AFF300809C
:103F300008B50448FDF7E4FE0348BDE80840FDF776
:103F4000BFBD00BF2C0800200C080020AFF300808C
:103F500008B50548FDF7D4FE0448FDF7B1FD044857
:103F6000BDE80840FDF7ACBD2C0800200C0800207F
:103F70001C080020AFF30080AFF30080AFF3008097
:103F8000F0B5244B244F9B69244D9E68244B386820
:103F9000244C83B0721C00934FF4E8712B46FDF75C
:103FA000A7FA7B6820492060B21C009118464FF4A4
:103FB000E8712B46FDF79CFABB681C496060F21C57
:103FC000009118464FF4E8712B46FDF791FAFB6813
:103FD0001749A060321D009118464FF4E8712B4636
:103FE000FDF786FA3B691349E060721D009118469F
:103FF0004FF4E8712B46FDF77BFA20610E48FDF780
:10400000C7FEFEF71DFE0D49012003B0BDE8F040DC
:10401000FEF7BEBD50110020D0600108E13E00084F
:10402000B0630108841C002010730108A06301081C
:10403000A4630108A86301082C080020AC630108F0
:10404000F0B51B4B1B4E9B6930689D681A4B1B4C8F
:104050001B4F83B06A1C00934FF4E871194BFDF7B6
:1040600047FA7168184B2060AA1C00930846174B4A
:104070004FF4E871FDF73CFAB168154B6060EA1C3B
:1040800000930846134B4FF4E871FDF731FAA06036
:104090003846FDF73DFE3846FDF73AFEFEF7D0FD07
:1040A0000D49012003B0BDE8F040FEF771BD00BF2F
:1040B00050110020D0600108A8630108841C002072
:1040C0002C080020E1400008A0630108E13E000840
:1040D000A4630108213A000830650108AFF30080AD
:1040E00070B50C4C0C4D06462046FDF759FD284690
:1040F000FDF756FD4FF0FF310848FDF7B9FE307867
:10410000FEF71EFD2846FDF773FD2046FDF770FD06
:10411000002070BD1C0800200C0800202C08002086
:1041200010B5184A184B916918688A68174B82B005
:10413000013200914FF4E871FDF7DAF9144B186081
:10414000FEF75EF8046B2146FEF77AF8E0B2FEF760
:10415000F7FCFEF755F8046B2146FEF771F8E0B264
:10416000FEF7EEFCFEF74CF8046B2146FEF768F80C
:10417000E0B2FEF7E5FC0749012002B0BDE81040BF
:10418000FEF706BD50110020D0600108A1410008D3
:10419000841C002030650108AFF30080AFF300807D
:1041A00010B541210446FEF70BF820464221FEF7E8
:1041B00007F820464321FEF703F8002010BD00BF9A
:1041C0002DE9F041202382B083F31188CC4E716A2F
:1041D0000120A1F10501B1FA81F14909FEF7C0FC06
:1041E000002840F01A8180F311884224C44D2146F2
:1041F0004FF0FF322846FEF793F8B0FA80F1022024
:104200004909FEF7ADFC013480B9462CEED14121BD
:1042100028464FF0FF32FEF7D3F8B0FA80F10320C2
:104220004909FEF79DFC002800F0FD8002B0BDE8C2
:10423000F08185F3118887F311881F20A169B1FAF5
:1042400081F14909FEF78CFC002840F0A08285F33B
:104250001188E168A368CB1A594259413846FEF7E4
:104260007FFC0028E2D187F3118845212046FEF724
:10427000B7F8B0FA80F121204909FEF771FC002857
:10428000D4D144212046FEF7ABF8B0FA80F12220C9
:104290004909FEF765FC0028C8D143212046FEF7F6
:1042A0009FF8B0FA80F123204909FEF759FC002855
:1042B000BCD142212046FEF793F8B0FA80F12420C9
:1042C0004909FEF74DFC0028B0D18D4C4121204614
:1042D000FEF786F80023014683F311882520B1FA02
:1042E00081F14909FEF73CFC00289FD1E168A368F1
:1042F000C3EB0108D8F1000141EB08012620FEF7CD
:104300002FFC002892D1074605244FF020082026D4
:1043100088F311887A4D01A92846FEF7A9F80146CD
:1043200087F311882720B1FA81F14909FEF718FCBB
:1043300000287FF47BAF9DF80400FEF701FC013CF0
:10434000E5D128206F49FEF723FC00287FF46EAFEB
:1043500086F31188696AA1F1050CDCF1000141EBDB
:104360000C012920FEF7FCFB002840F0C58084F3F7
:10437000118886F311882A20A969B1FA81F14909C7
:10438000FEF7EEFB002840F0B78084F31188E9685F
:10439000AB68C3EB010EDEF1000141EB0E012B20F7
:1043A000FEF7DEFB00287FF441AF2846FDF788FFCB
:1043B00086F31188696A4F1F794279412C20FEF7F4
:1043C000CFFB002840F0988084F3118886F3118891
:1043D0002D20A969B1FA81F14909FEF7C1FB002836
:1043E00040F08A8084F3118886F311882968AB68CD
:1043F000CA1A514251412E20FEF7B2FB00287BD150
:1044000084F3118886F311882968EB68CB1A594226
:104410004FF02F005941FEF7A3FB002383F31188CF
:1044200002B0BDE8F081582101222846FDF778FF4F
:10443000A0F1FF310420B1FA81F14909FEF790FBA8
:10444000044600287FF4F2AE202787F31188582114
:104450002846FDF775FF014684F311880520A1F178
:10446000FF31B1FA81F14909FEF77AFB00287FF4A8
:10447000DDAE582101222846FDF7A2FFA0F1FF3151
:104480000620B1FA81F14909FEF76AFB04460028CB
:104490007FF4CCAE87F3118858212846FDF7A0FFA2
:1044A000014684F311880720A1F1FF31B1FA81F1AF
:1044B0004909FEF755FB804600287FF4B7AE87F325
:1044C00011880820696AB1FA81F14909FEF748FBB1
:1044D000044610B188F31188A8E680F3118887F3A9
:1044E0001188A969A1F1050EDEF1000141EB0E0171
:1044F0000920FEF735FB38B184F3118896E600BF3A
:1045000034080020AC63010880F3118887F3118818
:10451000E968AB68CC1A61424FF00A006141FEF7CE
:104520001FFB002300287FF479AF83F31188052552
:1045300005E09DF80400FEF703FB013D0FD0954C0C
:1045400001A920464FF0FF32FDF782FFB0FA80F15B
:104550000B204909FEF704FB0028EAD066E60C2090
:104560008D49FEF715FB00287FF460AE47212046F9
:104570004FF0FF32FDF7D4FEB0FA80F10D2049096B
:10458000FEF7EEFA00287FF451AE01A920464FF065
:10459000FF32FDF75DFFB0FA80F10E204909FEF70A
:1045A000DFFA00287FF442AE2168A368CA1A51429C
:1045B00051410F20FEF7D4FA00287FF437AE21686E
:1045C000E368CB1A594259411020FEF7C9FA002876
:1045D0007FF42CAE01A920460122FDF739FF00F13E
:1045E0000108D8F1000141EB08011120FEF7B8FAEB
:1045F00000287FF41BAE202787F3118801A92046ED
:10460000FDF736FF014685F3118801F1010CDCF15D
:10461000000141EB0C011220FEF7A2FA00287FF402
:1046200005AE87F31188616AA1F1050EDEF1000184
:1046300041EB0E011320FEF793FA00287FF4EDAE54
:10464000002787F31188202585F311881420B1698C
:10465000B1FA81F14909FEF783FA4E4C064610B1D2
:1046600087F31188E2E580F3118885F31188E1680A
:10467000A368CF1A794279411520FEF771FA10B17B
:1046800086F31188D2E580F3118885F311884121E2
:104690002046FDF755FEB0FA80F116204909FEF7D5
:1046A0005FFA00287FF4C2AD42212046FDF748FEA4
:1046B000B0FA80F117204909FEF752FA00287FF47A
:1046C000B5AD43212046FDF73BFEB0FA80F118203E
:1046D0004909FEF745FA00287FF4A8AD4421204699
:1046E000FDF72EFEB0FA80F119204909FEF738FADD
:1046F000064600287FF49AAD20464521FDF720FEAE
:10470000014686F311881A20B1FA81F14909FEF7B2
:1047100027FA00287FF48AADE168A368CC1A6142C9
:1047200061411B20FEF71CFA00287FF47FAD2E4666
:1047300080460525202786F31188164C01A92046BE
:10474000FDF796FE014688F311881C20B1FA81F12D
:104750004909FEF705FA00287FF468AD9DF80400CA
:10476000FEF7EEF9013DE5D11D200B49FEF710FAE9
:1047700000287FF45BAD87F31188616A4A1F5142BC
:1047800051411E20FEF7ECF900283FF452AD85F3AD
:1047900011884BE534080020AC630108AFF30080BA
:1047A000024803490522FDF75BBD00BF3408002025
:1047B00050130020AFF30080AFF30080AFF3008010
:1047C0004320FEF7BDB900BFAFF30080AFF3008018
:1047D0004220FEF7B5B900BFAFF30080AFF3008011
:1047E0004120FEF7ADB900BFAFF30080AFF300800A
:1047F00010B51F4C8AB02046694601224FF0FF33A6
:104800002460FDF745FB204605A902224FF0FF3347
:10481000FDF73EFB2168091B18BF01210120FEF7AF
:104820009FF908B10AB010BD69462046FDF748FB64
:104830002168091B18BF01210220FEF791F9002809
:10484000F0D105A92046FDF73BFB21680320091B99
:10485000B1FA81F14909FEF783F90028E2D1054850
:104860000721FDF7B5FB04490420FEF791F9D9E7CC
:104870005C0800201067010830650108AFF3008074
:104880004FF0FF30FDF734BBAFF30080AFF3008093
:104890004FF0FF30FDF72CBBAFF30080AFF300808B
:1048A0004FF0FF30FDF724BBAFF30080AFF3008083
:1048B0002DE9F04F07208DB0FDF72AFB4FF0FF30B8
:1048C000FDF7A6FBA0F101010120B1FA81F1490930
:1048D000FEF746F910B10DB0BDE8F08F4FF0FF3094
:1048E000FDF796FBA0F102010220B1FA81F149091E
:1048F000FEF736F90028EED14FF0FF30FDF788FBC8
:10490000A0F104010320B1FA81F14909FEF728F969
:104910000028E0D14FF0FF30FDF7EAFAB0FA80F15D
:1049200004204909FEF71CF904460028D3D1FEF7FC
:104930009FF94FF0200989F311884FF08048D8F88B
:10494000245084F31188764FDFF8F0A1B969DAF8C2
:1049500000608A68734B0091013A4FF4E871304669
:10496000FCF7C6FD704C20604FF0FF30FDF750FBA8
:1049700005F5FA71834605F226220520FEF730F987
:104980000028A8D1ABF101010620B1FA81F1490953
:10499000FEF7E6F800289ED14FF0FF30FDF7A8FAA9
:1049A000B0FA80F107204909FEF7DAF8002892D121
:1049B000FEF746F90520FDF7ABFA4FF0FF30FDF7A3
:1049C00047FB451F694269410820FEF7C9F80028E6
:1049D00081D14FF0FF30FDF78BFAB0FA80F109205A
:1049E0004909FEF7BDF8834600287FF474AFFEF74F
:1049F0003FF989F31188D8F824508BF31188B969ED
:104A0000484B8A680091013A4FF4E8713046FCF750
:104A10006FFD20604FF0FF30FDF71AFB05F5FA71CE
:104A2000064605F226220A20FEF7DAF800287FF46F
:104A300052AF701E414241410B20FEF791F8002811
:104A40007FF449AF4FF0FF30FDF752FAB0FA80F132
:104A50000C204909FEF784F8814600287FF43BAF1B
:104A6000324E334DFEF7ECF8304602A901224FF0EA
:104A7000FF3336602D60FDF70BFA284607A90422A4
:104A80004FF0FF33FDF704FAFEF7F2F8202383F32B
:104A90001188D8F8248089F31188BA69254B926867
:104AA000DAF800000093013A4FF4E871224BFCF76A
:104AB0001FFD20600520FDF7EBFA08F5FA7108F2FA
:104AC00026220D20FEF78CF800287FF404AF4FF06B
:104AD000FF30FDF70DFAB0FA80F10E204909FEF71C
:104AE0003FF800287FF4F7AEFEF7AAF8304602A997
:104AF000FDF7E6F9284607A9FDF7E2F931688A1BB8
:104B0000514251410F20FEF72BF800287FF4E3AE0D
:104B100029684B1B594259411020FEF721F8DAE66B
:104B200050110020714B0008841C00205C080020FC
:104B300060080020A8630108414B0008D06001080C
:104B400008B500210648FDF733FA4FF4FA70FCF778
:104B500047FD04480021FDF72BFA002008BD00BFE7
:104B60005C08002060080020AFF30080AFF30080F5
:104B700010B504464FF4FA70FCF732FD20460121CF
:104B8000FDF706FA002010BDAFF30080AFF3008000
:104B900008B500214FF0FF30FDF79AFAB0FA80F126
:104BA00001204909FDF7DCFF00B108BD01464FF0C7
:104BB000FF30FDF7B5FAB0FA80F102204909FDF7A0
:104BC000CFFF0028F1D101464FF0FF30FDF7D0FABA
:104BD000B0FA80F103204909FDF7C2FF0028E4D1B3
:104BE0000A214FF0FF30FDF773FAB0FA80F104208C
:104BF0004909FDF7B5FF0028D7D10A214FF0FF3052
:104C0000FDF78EFAB0FA80F105204909FDF7A8FFFB
:104C10000028CAD10A214FF0FF30FDF7A9FABDE8FC
:104C20000840B0FA80F106204909FDF799BF00BF9E
:104C300070B582B0FDF7CCFD01A90020FDF790FE14
:104C400010210020FDF7F4FD011C054618BF0121CD
:104C50000120FDF785FF044608B102B070BD28466B
:104C6000FDF72EFE6FF0FF012046FDF7E1FDB0FAE3
:104C700080F102204909FDF773FF0028EDD101A959
:104C80007B48FDF76DFE10217948FDF7D1FD10211D
:104C900006467748FDF7CCFD102105467448FDF720
:104CA000C7FD04463046FDF70BFE2846FDF708FE1B
:104CB0002046FDF705FE69466D48FDF751FEA0F15F
:104CC00001010320B1FA81F14909FDF749FF0028EC
:104CD000C3D110216648FDF7ABFD1021044664489E
:104CE000FDF7A6FD102105466148FDF7A1FDFDF782
:104CF000E7FD2846FDF7E4FD2046FDF7E1FD6946A6
:104D00005B48FDF72DFEA0F101010420B1FA81F10D
:104D10004909FDF725FF00289FD111215448FDF7CF
:104D200087FD102104465248FDF782FD05462046C6
:104D3000FDF7C6FD69464E48FDF712FEA0F10201DF
:104D40000520B1FA81F14909FDF70AFF002884D155
:104D500010214748FDF76CFD694604464448FDF7BD
:104D6000FFFD012800F0818069464148FDF7F8FD0C
:104D7000A0F10201B1FA81F149090620FDF7F0FE28
:104D800000287FF46AAF2846FDF79AFD2046FDF71C
:104D900097FD69463648FDF7E3FD461E71427141B5
:104DA0000720FDF7DDFE00287FF457AF10213048C3
:104DB000FDF73EFD102105462D48FDF739FD04465F
:104DC0002846FDF77DFD69462948FDF7C9FD851E8A
:104DD000694269410820FDF7C3FE00287FF43DAF1A
:104DE00020212348FDF724FDFDF76AFD2046FDF74D
:104DF00067FD69461E48FDF7B3FD01384142414158
:104E00000920FDF7ADFE00287FF427AF694618485A
:104E1000FDF7A6FD00991648FDF70AFD6946044610
:104E20001348FDF79DFDB0FA80F10A204909FDF70E
:104E300097FE00287FF411AF2046FDF741FD69463B
:104E40000B48FDF78DFD421E514251410B20FDF7ED
:104E500087FE00287FF401AF9DE80A00CB1A594273
:104E600059410C20FDF77CFEF7E6014685E700BFBF
:104E7000B01C0020AFF30080AFF30080AFF30080E0
:104E8000024803494FF41162FDF7C2BCB01C002078
:104E900050130020AFF30080AFF30080AFF3008029
:104EA00000207047AFF30080AFF30080AFF30080C5
:104EB00002484FF4E8710022FDF77ABD6408002033
:104EC00038B52B4B2B481D6805222946FDF778FD88
:104ED00005242848FDF78CFD011C18BF0121012085
:104EE000FDF73EFE90BB013CF3D12248FDF780FD6B
:104EF000B0FA80F102204909FDF732FE30BB1C4CAC
:104F00001C48294604F11005FDF78AFDAC4206D085
:104F100054F8041F1748FDF783FDAC42F8D105246F
:104F20001448FDF765FD011C18BF01210320FDF7A2
:104F300017FE58B9013CF3D10E48FDF759FDB0FA00
:104F400080F104204909FDF70BFE00B138BD1021A6
:104F50000848094AFDF72CFD0648FDF749FDBDE864
:104F60003840B0FA80F105204909FDF7F9BD00BFCE
:104F7000D060010864080020A14E0008AFF3008053
:104F800070B5344B34489B69344C9D6884B003A998
:104F9000FDF7E6FC324B00936A1E324B2E484FF46D
:104FA000E871FCF715FC304B2060AA1E00934FF40B
:104FB000E8712C4B2848FCF70BFC02A960602648DE
:104FC000FDF7CEFC02992448FDF732FC274B0093F5
:104FD0004FF4E8710646EA1E224B1F48FCF7F8FB27
:104FE000A0603046FDF76CFC216821B1616811B109
:104FF000A16831B300210120FDF7B2FD08B104B072
:1050000070BDFDF71DFE02201949FDF7C1FD002806
:10501000F5D102A91048FDF7A3FCA0F1010103207E
:10502000B1FA81F14909FDF79BFD0028E7D102990A
:10503000039B0420C91AB1FA81F14909FDF790FDDB
:10504000DDE7E368002BD6D12169B1FA81F1490986
:10505000D1E700BF50110020E01C0020841C00207C
:10506000A863010881500008A4630108A063010837
:10507000F0670108AFF30080AFF30080AFF300806A
:1050800008B50078FDF75CFD002008BDAFF3008097
:10509000024803494FF41162FDF7BABBE01C00203F
:1050A00050130020AFF30080AFF30080AFF3008017
:1050B000024803494FF41162FDF7AABBE01C00202F
:1050C00050130020AFF30080AFF30080AFF30080F7
:1050D000314B9B6970B5314C9D6804F1100654F852
:1050E000041B2F48FDF79CFCB442F8D12D4A2E4BEF
:1050F0002B482E4C691EFCF78BFBA91E2060294A09
:105100002B4B2748FCF784FBE91E6060254A294B9E
:105110002348FCF77DFB291FA060224A264B20482C
:10512000FCF776FB691FE0601E4A1D48234BFCF725
:105130006FFB2168206141B1616831B1A16821B183
:10514000E16811B1B0FA80F149090120FDF708FDCD
:1051500000B170BDFDF774FD02201949FDF718FD7F
:105160000028F6D104240E48FDF742FC011C18BFAC
:1051700001210320FDF7F4FC0028EAD1013CF2D123
:105180000748FDF735FCBDE87040B0FA80F1042017
:105190004909FDF7E5BC00BF50110020D0600108AF
:1051A000D01C002081500008A8630108841C002046
:1051B000A4630108A063010810730108B06301082B
:1051C000F4670108AFF30080AFF30080AFF3008015
:1051D00002484FF4E8710022FDF7EABBD01C002022
:1051E00038B50546FCF73CFB002403461846AB42A5
:1051F00008BF44F00104FCF743FB03460028F5D147
:10520000204638BDAFF30080AFF30080AFF30080DD
:1052100010B5484B48499B6948489A68484B82B04A
:10522000013A00914FF4E871FCF7D2FA04460120EC
:10523000A17F091AB1FA81F14909FDF791FC08B182
:1052400002B010BD2046FCF78BFAA17F0220091A9C
:10525000B1FA81F14909FDF783FC0028F0D120461D
:10526000FCF78EFAA17F0320A1F10101B1FA81F1CF
:105270004909FDF775FC0028E2D12046FFF7B0FF91
:1052800001460420FDF76CFC0028D9D12046FFF729
:10529000A7FF01460520FDF763FC0028D0D120467A
:1052A000FCF76EFAA17FB1FA81F106204909FDF7FA
:1052B00057FC0028C4D1217FB1FA81F107204909A8
:1052C000FDF74EFC0028BBD12046FFF789FF0146C1
:1052D0000820FDF745FC0028B2D12046FFF780FFEB
:1052E00001460920FDF73CFC0028A9D14FF4FA70D3
:1052F000FCF776F9217FA1F10F03594259410A20A9
:10530000FDF72EFC00289BD12046FFF769FF0146E0
:105310000B20FDF725FC002892D12046FFF760FF07
:1053200080F00101C9B20C2002B0BDE81040FDF7C9
:1053300017BC00BF50110020A8630108E01C00202A
:1053400081500008AFF30080AFF30080AFF300801E
:10535000704700BFAFF30080AFF30080AFF3008071
:1053600008B54FF4FA610248FDF7E2F8002008BDE5
:1053700094080020AFF30080AFF30080AFF300800B
:1053800000B5064B06481968064B83B00022009210
:105390000422FDF78DF803B05DF804FBD06001082E
:1053A0009408002051530008AFF30080AFF3008051
:1053B00008B500214FF4FA620248FDF741F90020D8
:1053C00008BD00BF70080020AFF30080AFF300807D
:1053D00000B5064B06481968064B83B000220092C0
:1053E0000422FDF70DF903B05DF804FBD06001085D
:1053F0007008002051530008AFF30080AFF3008025
:105400002DE9F041202482B084F31188904B0120D3
:105410009968B1FA81F14909FDF7A2FB0646E8B99E
:1054200080F3118884F311884124894D2146013489
:105430002846E4B2FDF75CF8452CF6D1002383F34F
:105440001188202383F31188AA696B699A423AD0A4
:1054500031460220FDF784FB044628B1002383F384
:10546000118802B0BDE8F08180F31188202383F316
:10547000118877482146FDF73BF8043014BF00211E
:1054800001210320FDF76CFBC0B980F311880424CF
:105490006F4D4FF0FF312846FDF74AF8C0B2FDF7D7
:1054A0004FFB013CF4D1202686F311880420A96823
:1054B000B1FA81F14909FDF753FB48B184F3118832
:1054C00002B0BDE8F081AE68003618BF0126BFE724
:1054D00084F3118805205F49FDF75AFB0028C0D1ED
:1054E00086F3118841245A4D214601342846E4B2FE
:1054F000FCF7FEFF452CF6D1002383F31188564EAE
:10550000082271682846FDF73BF8A0F10401062047
:10551000B1FA81F14909FDF723FB04460028A0D127
:10552000202787F311880720A968B1FA81F149097A
:10553000FDF716FB0028C1D180F3118887F311888D
:105540004124434D214601342846E4B2FCF7D0FF04
:10555000452CF6D1002383F311887468DFF8F880B6
:10556000214628460222FDF70BF8A0F1020108208F
:10557000B1FA81F14909FDF7F3FA00287FF471AF20
:105580000346214602222846FCF7FAFFA0F1020159
:105590000920B1FA81F14909FDF7E2FA064600282F
:1055A0007FF45FAF202787F311880A20A968B1FA3A
:1055B00081F14909FDF7D4FA044610B186F3118848
:1055C0004FE780F3118887F3118821462846FCF7BE
:1055D0008FFF2846FCF77CFF84F3118887F311883E
:1055E0000B20A968B1FA81F14909FDF7B9FA06461D
:1055F00000287FF463AF80F31188184BD8F80000BF
:105600009A69174B9268009601324FF4E871FBF7E4
:105610006FFF144B186087F311880C20A968B1FA4A
:1056200081F14909FDF79CFA0028C7D180F3118860
:10563000FDF706FB28460A21FCF77AFF431C594276
:1056400059410D2002B0BDE8F041FDF789BA00BF15
:1056500094080020F4670108D06001085011002070
:1056600061530008841C0020AFF30080AFF300807A
:105670002DE9F043202383B083F31188854B5969CA
:105680009A6991425DD000210120FDF769FAB8BB0B
:1056900080F3118841247F4D2146013428464FF084
:1056A000FF32E4B2FCF7CCFF452CF4D1202686F380
:1056B00011880220A968B1FA81F14909FDF750FA71
:1056C0000746E8B980F31188042481464FF020088A
:1056D00086F311886F4D2846FCF7DAFF89F31188AD
:1056E000C0B2FDF72DFA013CF0D188F311886A6948
:1056F000AB699A422AD039460320FDF731FA28B126
:10570000002383F3118803B0BDE8F08380F3118890
:1057100004206149FDF73CFA04460028F3D1202615
:1057200086F311885B4D2846FCF7B2FF033014BFA7
:10573000002101210520FDF713FA60B184F31188DF
:10574000E1E79968003118BF01219DE7AF68003794
:1057500018BF0127CFE780F31188504F7C680346BC
:10576000214608222846FCF7B3FFA0F104010620D9
:10577000B1FA81F14909FDF7F3F980460028C2D159
:1057800086F311880720A968B1FA81F14909FDF76C
:10579000E7F9814610B188F31188B4E780F31188E6
:1057A0003F4B38689A693F4B9268CDF800900132C0
:1057B0004FF4E871FBF79CFE3B4B186086F31188B1
:1057C000E9682B69AA685B1A991AA1F104010820FB
:1057D000B1FA81F14909FDF7C3F9074610B189F320
:1057E000118890E780F31188FDF72AFA86F3118873
:1057F0002846FCF715FF87F3118886F3118805F119
:1058000008010EC99B1A591A0920B1FA81F14909F8
:10581000FDF7A6F9034610B187F3118873E780F30B
:105820001188022221462846FCF752FF02384142E5
:1058300041410A20FDF794F9034600287FF463AF45
:10584000214602222846FCF743FF821E5142514165
:105850000B20FDF785F900287FF455AF86F31188FA
:105860000C20A968B1FA81F14909FDF779F90028FE
:105870007FF446AF002181F311880A220548FCF726
:10588000DFFE431C594259410D2003B0BDE8F043EF
:10589000FDF766B970080020F4670108D0600108C0
:1058A00050110020B1530008841C0020AFF3008089
:1058B000704700BFAFF30080AFF30080AFF300800C
:1058C000704700BFAFF30080AFF30080AFF30080FC
:1058D00010B52F482F4CFDF703F94FF4EC70FDF78E
:1058E000CFF82046FDF70CF92B48FDF7F9F84420D6
:1058F000FDF7C6F82046FDF703F92848FDF7F0F854
:105900001420FDF7BDF82046FDF7FAF82448FDF70E
:10591000E7F80C20FDF7B4F82046FDF7F1F8214830
:10592000FDF7DEF80420FDF7ABF82046FDF7E8F8B8
:105930001D48FDF7D5F81420FDF7A2F82046FDF725
:10594000DFF81A48FDF7CCF81020FDF799F820464B
:10595000FDF7D6F81648FDF7C3F80820FDF790F8D4
:105960002046FDF7CDF81348FDF7BAF82420FDF7DF
:1059700087F82046FDF7C4F80F48FDF7B1F8282056
:10598000FDF77EF82046BDE81040FDF7B9B800BF2E
:10599000806901089069010898690108A8690108EF
:1059A000B8690108C8690108D8690108E8690108EF
:1059B000F8690108086A0108186A0108AFF3008055
:1059C00010B5FCF71DFC046B2146FCF739FC002CDC
:1059D000F7D1204610BD00BFAFF30080AFF30080C9
:1059E0002DE9F041144B154A9B69D2F800809D685F
:1059F000134F82B0FDF73CF94FF47A70FDF748F988
:105A00000024013526460F4B009640464FF4E871BE
:105A10002A46FBF76DFD3B780134002BF3D00A4892
:105A2000FDF75EF82046FDF72BF8084802B0BDE808
:105A3000F041FDF765B800BF50110020D0600108AB
:105A4000651C0020B1580008286A0108386A01085E
:105A500070B50546FDF70CF94FF47A70FDF718F9AB
:105A6000074E002428460121FCF7AAFB33780134B5
:105A7000002BF7D028460021FCF7A2FB204670BD82
:105A8000651C0020AFF30080AFF30080AFF300800F
:105A900010B5134B134A9B6910689A68124B82B079
:105AA0000021013A00914FF4E871FBF721FD0F4B03
:105AB0001860FFF7CDFF0446FDF7C2F80C48FDF76C
:105AC0000FF82046FCF7DCFF0A48FDF709F86000F4
:105AD000FCF7D6FF084802B0BDE81040FDF710B84B
