:020000040800F2
:1000000000040020C1020008C1030008C103000869
:10001000C1030008C1030008C1030008C1030008B0
:10002000C1030008C1030008C1030008D103000890
:10003000C1030008C1030008C1030008C103000890
:10004000C1030008C1030008C1030008C103000880
:10005000C1030008C1030008C1030008C103000870
:10006000C1030008C1030008C1030008811700088C
:10007000C11700080118000841180008811800087D
:10008000C118000801190008C1030008C1030008D5
:10009000C1030008C1030008C1030008C103000830
:1000A000C1030008C1030008C1030008C103000820
:1000B000E11E0008C1030008C1030008C1030008D5
:1000C000C1030008C1030008C1030008C103000800
:1000D000C1030008C1030008711F000811210008B6
:1000E000C1030008C1030008C1030008C1030008E0
:1000F000C1030008C1030008C1030008411900083A
:10010000C1030008C1030008C1030008C1030008BF
:10011000C1030008C1030008C1030008C1030008AF
:1001200081190008C1190008011A0008411A0008C5
:10013000811A0008C1030008C1030008C1030008B8
:10014000C1030008C1030008C1030008C10300087F
:10015000C11A0008011B0008411B0008C103000868
:10016000C1030008C1030008C1030008C10300085F
:10017000C1030008C1030008C1030008C10300084F
:10018000C1030008C1030008C1030008C10300083F
:10019000C1030008C1030008C1030008C10300082F
:1001A000C1030008C1030008C1030008C10300081F
:1001B000C1030008C1030008C1030008C10300080F
:1001C00000B583B002F0DCFA1A4B1B684BBB1A482F
:1001D00002F0F6F900241949194A174802F098FA72
:1001E00001F0A6F900F03CF9164B00944FF4B471FD
:1001F0004022154800F0F4FD144B00944FF4B47104
:100200004022134800F0ECFD00941248124B4FF4CA
:10021000B471402200F0E4FD41F2883000F028FE85
:10022000FAE70E4C532002F0CBFA14F8010F002825
:10023000F9D1CCE71012002014120020602C000825
:10024000642C0008A1260008A8100020E126000860
:10025000400F00201812002041270008502C0008F1
:100260002DE9F04FC1F80CD0D0F80CD0BDE8F08FDC
:1002700000F0BEF900F044FB002383F31188284608
:10028000A04700F04DFE00F033FB00F0A1F900F0B4
:100290009FFC00F0ADF900F033FB00DFFEE700004B
:1002A000704700BFAFF30080AFF30080AFF3008072
:1002B000FEE700BFAFF30080AFF30080AFF3008034
:1002C00072B6314C84F30988022383F31488BFF398
:1002D0006F8F01F08DFF2D4B2D4A93420BD2D943E6
:1002E0000A4422F0030204321A444FF0553143F815
:1002F000041B9342FBD1274BA3420CD2264A191D63
:10030000521A22F0030204321A444FF0553143F8D6
:10031000041B9342FBD1214A214B9A420CD2D04379
:10032000184420F003001F4B0430184453F8041BFA
:1003300042F8041B8342F9D11B4B1C4A93420AD258
:10034000D9430A4422F0030204321A44002143F83C
:10035000041B9342FBD1164D164CFFF7A1FFAC4294
:1003600004D254F8043B9847AC42FAD3124D134CD4
:10037000FFF726FFAC4204D254F8043B9847AC4246
:10038000FAD3FFF795FF00BF00080020000000200F
:1003900000040020000400200308002000080020C2
:1003A00000080020782C000800080020801300209E
:1003B000C0010008C0010008C0010008C001000819
:1003C000FEE700BFAFF30080AFF30080AFF3008023
:1003D000EFF30983203383F30988002383F3118823
:1003E000704700BFAFF30080AFF30080AFF3008031
:1003F000202383F311880F4B5B6813F4006302D151
:1004000083F31188704710B5EFF309844FF08073C0
:1004100044F8043CA4F1200383F3098800F090FB26
:1004200018B1054B44F8083C10BD044B44F8083C97
:1004300010BD00BF00ED00E0870200089A0200082E
:10044000024B034A9B699A61FEE700BF0008002047
:10045000F0270008AFF30080AFF30080AFF3008017
:10046000234B244A2448F0B500249C60DF68234EC7
:10047000234D4FF6FF0139400A43DA60F26842F03B
:100480008072F2600268202142F0010210260260B0
:1004900083B0DE7783F8221000F04AFA00F0A0FB68
:1004A00000F0A6F900F0C4FF01F01AF800F0E0F93E
:1004B00000F036F94021284600F032FCA5F58867A7
:1004C000104BC361012680F82060B86100F070F81D
:1004D00084F3118862B6BB690B4A9A6105F1A000EA
:1004E00032460094F821094B00F07AFC03B0F0BDCD
:1004F00000ED00E00003FA05001000E0F0ED00E080
:10050000400C0020000400200029000841040008DD
:1005100072B6014BD862FEE700080020AFF30080FE
:100520002DE9F047214D4FF0804700F0D9F800F059
:10053000D7F8EC69AB6A7A6AA068D11A814205F1F2
:100540001C0820D300264FF020092268D4F80CA004
:100550000344AB62C2F80480EA61E66000F078F818
:1005600000F0DEF986F311882069D04789F31188FD
:1005700000F0CEF900F054F8EC697A6AAB6AA06832
:10058000D11A8142E1D244450BD0012804D0104455
:10059000BDE8F04701F0B4B8901CBDE8F04701F0A9
:1005A000AFB8BDE8F04701F0A3B800BF00080020D5
:1005B000044B1A6B0AB95B6B13B10348FFF7A8BF72
:1005C000704700BF0008002010280008AFF300802B
:1005D00010B5054C236B0BB9636B13B10348FFF7E0
:1005E00097FF0123636310BD00080020182800084E
:1005F00010B5074C236B2BB9636B002B02DD002376
:10060000636310BD0348FFF783FF0023636310BDDE
:100610000008002020280008AFF30080AFF300801E
:1006200010B5064C236B002B01DD636B13B104483E
:10063000FFF76EFF0123636310BD00BF00080020B9
:1006400028280008AFF30080AFF30080AFF30080EC
:1006500010B5084C236B002B05DD636B002B02DD0E
:100660000023636310BD0448FFF752FF0023636358
:1006700010BD00BF0008002030280008AFF3008044
:1006800010B5202383F31188074C236B002B01DB6B
:10069000626B1AB10548FFF73BFF236B01332363FD
:1006A000002383F3118810BD0008002038280008BB
:1006B00010B5202383F31188074C236B002B01DD39
:1006C000626B1AB10548FFF723FF236B013B2363DD
:1006D000002383F3118810BD000800204028000883
:1006E000054B1A6B002A03DB5B6B002B00DD7047A8
:1006F0000248FFF70DBF00BF00080020482800088F
:10070000044B1A6B1AB95B6B002B00DD7047024873
:10071000FFF7FEBE0008002050280008AFF300805D
:10072000024B40215A189963DA6370470008002091
:100730000C4A4FF08041D36B10B44C6A91695960F8
:100740001C60416A996090F820101973103302F50B
:1007500088618B4228BF02F14003D3635DF8044BEC
:10076000704700BF00080020AFF30080AFF30080A7
:1007700000220023C0E9042300234FF0FF3280E869
:100780000C008360C3607047AFF30080AFF300805C
:10079000014B5B6883607047001000E0AFF300809E
:1007A0000F4B10495A688368F0B4D1F8A074C6683A
:1007B0004168D0E90445D31ADB1BE41845F1000574
:1007C00001368B42C6608360C0E9044505D80268E3
:1007D000934238BF0360F0BC70474360F0BC704781
:1007E000001000E000080020AFF30080AFF30080AD
:1007F000D0B50D4C86B000234FF0FF32684600267E
:100800000027C4F8A0340193029303930092CDE92A
:100810000467FFF7BDFF6846FFF7C2FF029BC4F8FD
:10082000A03406B0D0BD00BF00080020AFF30080A8
:100830000E4B42685B6870B48B60D0E904458668F3
:10084000C1689B1BE41845F1000501319342C1606A
:100850008360C0E9044505D80268934238BF03604D
:1008600070BC7047436070BC704700BF001000E070
:1008700010B5084C002304F59660C4F8A834C4F8F9
:10088000AC34FFF775FF04F59960BDE81040FFF741
:100890006FBF00BF00080020AFF30080AFF30080FF
:1008A000034AD2F8A8340133C2F8A834704700BF15
:1008B00000080020AFF30080AFF30080AFF30080AA
:1008C000074AD2F8AC3410B400F14804013301F106
:1008D000480021465DF8044BC2F8AC34FFF7A8BFCE
:1008E00000080020AFF30080AFF30080AFF300807A
:1008F0000148FFF74DBF00BFB00C0020AFF30080F0
:100900000148FFF74DBF00BFB00C0020AFF30080DF
:100910000148FFF73DBF00BFC80C0020AFF30080C7
:100920000148FFF73DBF00BFC80C0020AFF30080B7
:10093000034B00225B601B605B611B619A60704728
:1009400000080020AFF30080AFF30080AFF3008019
:1009500010B50446FFF7C4FEC4B194F820308BB143
:100960000F2B0FD00022A1680A4B84F820201B68AF
:100970009A688A42FBD25A686260236020465C60B3
:10098000146010BD0448FFF7C3FDEBE70248FFF712
:10099000BFFDE2E70008002060280008AFF30080F8
:1009A00038B50446202383F31188FFF7B1FFFFF722
:1009B00037FE94F82030072B10D8DFE803F0150F2E
:1009C0000F1D0A040F0A656AFFF78AFEAB68013340
:1009D000AB6094E80C001A60226853604FF0FF335C
:1009E00063622046FFF7B4FFFFF732FEFFF798FF80
:1009F000002383F3118838BD636A00221A604FF028
:100A0000FF3363622046FFF7A3FFEDE7AFF30080FB
:100A100070B5124C0646FFF773FE2368A5691A6885
:100A200085F8206001215460284683F82010226058
:100A3000A361FFF77DFE2946A069FFF741FFEFF3B1
:100A40000983EA69243B9A4202D90548FFF760FD11
:100A5000A0692946BDE87040FFF702BC00080020ED
:100A600070280008AFF30080AFF30080AFF3008080
:100A700070B50C4686B00646FFF742FE631C14D0E4
:100A80000E4D0F4AAB69214601A800F0B9F8304677
:100A9000FFF7BEFFFFF724FE049B13B101A800F08F
:100AA000FFF8AB69586A06B070BD044D3046FFF7D9
:100AB000AFFFAB69586A06B070BD00BF00080020E8
:100AC000A1090008AFF30080AFF30080AFF300800E
:100AD00070B5194D04460E46FFF712FEA869A268CC
:100AE000836866629A4218D9FFF732FF01230646EF
:100AF00084F82030AC61FFF71BFE20463146FFF73B
:100B0000DFFEEFF30983F269243B9A420AD82046BC
:100B10003146BDE87040FFF7A3BB2046BDE87040FA
:100B2000FFF716BF0548FFF7F3FC20463146BDE846
:100B30007040FFF795BB00BF000800207028000838
:100B4000044B1A689B6990689B68984294BF002088
:100B50000120704700080020AFF30080AFF3008051
:100B600070B5174D2A68AC691368A1682B6001261F
:100B700000205D6082F82060AA6184F8200000E017
:100B80001B689A688A42FBD85A68626023602046D4
:100B90005C601460FFF7CCFDA8692146FFF790FE6A
:100BA000EFF30983E269243B9A4202D90548FFF733
:100BB000AFFCA8692146BDE87040FFF751BB00BFFC
:100BC0000008002070280008AFF30080AFF3008019
:100BD000FFF7C6BFAFF30080AFF30080AFF3008034
:100BE000054B4FF0FF3003F11C020021586299625F
:100BF0001A62DA61704700BF00080020AFF300807E
:100C00002DE9F04106460C4690461D46FFF768FD6B
:100C100066B3B8F1000F29D044B31C4F35613B4691
:100C2000012C53F81C5FC6F80C804FF0804298BF2F
:100C300002249D42526A22D0B86AAB68121A144448
:100C40009C4203D216E02D68E41AAB68A342FAD3A3
:100C50006B68736035606E601E60B460A9684FF0A9
:100C6000FF33091BA9607B62BDE8F0810848FFF7EC
:100C70004FFCD2E7204400F043FDAB68E6E7A01844
:100C8000BA6200F01DFD7B6AE0E700BF00080020AB
:100C900080280008AFF30080AFF30080AFF300803E
:100CA00038B50446FFF71CFD44B3E36813B322686C
:100CB000A3689168154D606819442B4691600260E5
:100CC000216853F81C2F48609A424FF000004FF003
:100CD000FF31E060696215D09368A86A012B04D9DE
:100CE0001844BDE8384000F00BBD0230BDE8384084
:100CF00000F006BD0648FFF70BFCD8E70448FFF7F5
:100D000007FCD2E7BDE8384000F0F2BC0008002044
:100D100090280008AFF30080AFF30080AFF30080AD
:100D2000174A2DE9F041044657690261002304F196
:100D3000280C04F1600E04F1480504F12C064FF074
:100D400002080120A160216484F82200676184F810
:100D500021305461E363A363A36184F820802846B3
:100D60003C61C4F828C0C4F81CE02663E662FFF7C3
:100D7000FFFC2846FFF70CFD2046BDE8F08100BFD0
:100D800000080020AFF30080AFF30080AFF30080D5
:100D90002DE9F04104460D4616461F46DDF8188041
:100DA000FFF79EFC0CB1E72D11D80B48FFF7B0FB05
:100DB000A5F12403E218094DE2603146E7502046D0
:100DC000C2F804801562BDE8F041FFF7A9BF7F2E8D
:100DD000EBD8002FECD1E8E7D0280008710200081A
:100DE0002DE9F04F83B080460C9F894692469B4682
:100DF00000F160050446FF2604F8016BA542FBD113
:100E000008EB0904A54238BF552603D205F8016B4B
:100E1000A542FBD1202383F31188FFF769FDFFF77B
:100E2000D7FB52465B46494600974046FFF7B0FF66
:100E300000210446FFF74CFEFFF7DAFBFFF760FDE9
:100E4000084B9A691B6892689B689A4202D20648CE
:100E5000FFF75EFB002383F31188204603B0BDE853
:100E6000F08F00BF00080020E0280008AFF30080EA
:100E700010B52023044683F31188FFF739FDFFF7EF
:100E8000A7FB14B90C48FFF743FB21460820FFF7E6
:100E9000EFFDFFF7ADFBFFF733FD084B9A691B68C9
:100EA00092689B689A4202D20548FFF731FB002303
:100EB00083F3118810BD00BFF0280008000800204F
:100EC000E0280008AFF30080AFF30080AFF30080AC
:100ED00038B5104B9C69A36A606204F128059D42F5
:100EE00007D01A68A2621846FFF732FDA36AAB4228
:100EF000F7D194F821309B0704D1636922691A6104
:100F0000226953610F20FFF783FD0348BDE8384095
:100F1000FFF7FEBA00080020C0280008AFF30080E9
:100F200010B52023044683F31188FFF7E1FCFFF797
:100F30004FFB2046BDE81040FFF7CABFAFF300806B
:100F400069B1084B10B4024644689B69042083E8E9
:100F50001400536023605DF8044BFFF789BD4FF028
:100F6000FF30704700080020AFF30080AFF300802F
:100F700038B50468A04210D02368036094F820209C
:100F80005860042A0D4602D00448FFF7C1FA656292
:100F90002046BDE83840FFF7DBBC38BDA02800087C
:100FA00010B5044620B1002364602460A36010BD26
:100FB0000148FFF7ADFAF6E720290008AFF30080FB
:100FC00038B504460D46FFF78BFBCCB1A36B94F804
:100FD000202045EA03010A2AA1630DD00B2A00D084
:100FE00038BD636A19408B42FAD100236362204600
:100FF000BDE83840FFF7ACBC636A1942F5D138BD93
:101000000148FFF785FAE1E750290008AFF30080B7
:1010100070B506460D46FFF763FB8EB13468A642F5
:101020000DD0E3682B43E36015B12269134203D06E
:101030006068A168FFF7C4FF2468A642F1D170BDC3
:101040000148FFF765FAE9E730290008AFF30080AF
:1010500030B4029C046200250A448560026140604D
:10106000006041618161C160C36130BC704700BFF5
:1010700038B504460D46FFF733FBFFF731FBA36994
:1010800062699A42A36810D00133511CA360616168
:101090001570626923699A4201D3E368636120464F
:1010A0000021FFF765FF002038BD002BECD06FF06A
:1010B000030038BDAFF30080AFF30080AFF30080D2
:1010C00070B5202304460E4683F31188FFF710FC09
:1010D000FFF77EFAE36933B12046984703E0FFF754
:1010E0002FFF051E12DBFFF7FBFAA36820463146EF
:1010F000002BF4D0A16920694A1C013B8242A36005
:10110000A26128BFE3680D7828BFA361FFF770FADA
:10111000FFF7F6FB074B9A691B6892689B689A4237
:1011200002D20548FFF7F4F9002383F3118828461B
:1011300070BD00BF0008002090290008AFF30080B8
:101140002DE9F04F044683B089461D46D0F81C8037
:101150009246002A59D04FF0200B8BF311880026BD
:101160002C4FFFF7C5FBFFF733FACDF804B0B346B9
:10117000B8F1000F06D02046C04703E0FFF7E0FEBD
:1011800000282ED1FFF7ACFAA36820462946002B91
:10119000F4D0A269013B511CA161A360137809F846
:1011A000013B2369A2699A4224BFE368A361FFF768
:1011B0001FFAFFF7A5FBBA693B6892689B689A42E1
:1011C00002D21548FFF7A4F98BF311880136B24516
:1011D00017D0019B83F31188FFF78AFBFFF7F8F91B
:1011E000C6E7FFF705FAFFF78BFBBA693B68926821
:1011F0009B689A4202D20848FFF78AF9002383F3DA
:101200001188304603B0BDE8F08F0448FFF780F93D
:10121000A1E700BF000800209029000880290008ED
:1012200030B4029C04628D180561406000608260E9
:1012300041618161C160C36130BC7047AFF3008020
:10124000F8B504460F461646202383F31188FFF7AE
:101250004FFBFFF7BDF903E0FFF772FE051E25DB2C
:10126000FFF73EFAA36820463146002BF4D06269AE
:10127000013B511C6161A3601770236962699A4246
:1012800024BFE3686361E3690BB120469847FFF729
:10129000AFF9FFF735FB124B9A691B6892689B68A0
:1012A0009A4216D3002080F31188F8BDFFF7A0F909
:1012B000FFF726FB0A4B9A691B6892689B689A4263
:1012C00002D20848FFF724F9002383F31188284647
:1012D000F8BD0448FFF71CF9002080F31188F8BD21
:1012E0000008002090290008AFF30080AFF30080D1
:1012F00038B50446FFF7F4F9FFF7F2F96369A2691C
:101300009342A3680FD02069511C0133A360A161EF
:101310008142157801D3E368A36120460021FFF7DD
:1013200027FE284638BD002BEDD06FF0020038BDF7
:101330002DE9F04F83B083460C460193D0F81C9002
:101340001546002A60D04FF0200A8AF31188FFF773
:10135000CFFAFFF73DF9DFF8D0800027FFF7C0F99B
:10136000DBF80830661C5A1E5846A3B3DBF814306D
:10137000CBF808205A1CCBF8142022781A70DBF81E
:101380001030DBF814209A4224BFDBF80C30CBF885
:101390001430B9F1000F00D0C847FFF729F9FFF763
:1013A000AFFAD8F81820D8F8003092689B689A42B3
:1013B00002D21B48FFF7ACF8002383F31188013DEC
:1013C00007F101071CD08AF31188FFF791FA344620
:1013D000FFF7FEF8C2E758460199FFF7B1FD002874
:1013E000BCD0FFF705F9FFF78BFAD8F81820D8F82A
:1013F000003092689B689A420AD3002383F31188D5
:10140000384603B0BDE8F08F0648FFF781F89AE749
:101410000348FFF77DF8002383F31188F0E700BF4E
:10142000902900086029000800080020AFF3008020
:10143000054A064B0648074922F0070223F0070336
:1014400002600B60704700BF8713002000C00120BE
:10145000DC0D0020D80D0020AFF30080AFF300803A
:1014600010B50446FFF73CF90649074B08681A68AF
:10147000E31D23F00703121A93429ABF1B180B6057
:10148000002010BDDC0D0020D80D0020AFF300803F
:1014900010B52023044683F31188FFF729FAFFF7DC
:1014A00097F82046FFF7DCFF0446FFF7A1F8FFF7A7
:1014B00027FA074B9A691B6892689B689A4202D286
:1014C0000448FFF725F8002383F31188204610BD58
:1014D00000080020A0290008AFF30080AFF30080CF
:1014E000044B054A1A6003F1100000229A60DA608A
:1014F000FFF756BDE00D002091140008AFF3008007
:101500000EB400B582B004AB1A46054905480193F4
:1015100000F0A6FE02B05DF804EB03B0704700BF18
:10152000B029000814120020AFF30080AFF3008050
:1015300038B50D4D0D4C00F04BFB21460C4A2846AA
:10154000FFF7DEFF0B4800F0E3FB21460A4A28467E
:10155000FFF7D6FF00F054F800F0E2F800F050FE7C
:10156000BDE8384000F0A4B814120020B0290008EB
:10157000B4290008E02A0008C4290008AFF300805D
:101580000C30FFF7DDBD00BFAFF30080AFF300808C
:101590000C304FF0FF33FFF7D3BD00BFAFF3008037
:1015A0003030FFF7C5BE00BFAFF30080AFF300805F
:1015B00030304FF0FF33FFF7BBBE00BFAFF300800A
:1015C0000C30FFF77DBD00BFAFF30080AFF30080AC
:1015D0000C304FF0FF31FFF773BD00BFAFF3008059
:1015E0003030FFF72DBE00BFAFF30080AFF30080B7
:1015F00030304FF0FF32FFF723BE00BFAFF3008063
:1016000000F076BDAFF30080AFF30080AFF3008051
:1016100070B50E4B044682B040F8043B012600949E
:101620000B461546606004F1540104F10C0026726B
:101630001022FFF70DFD00942B4604F1300004F159
:1016400064011022FFF7ECFD02B070BDE029000834
:1016500038B504460D46FFF743F8E4B1FFF740F80C
:1016600063693BB1294604F10C00FFF701FD002836
:101670000BDB38BD201D0421FFF7CAFC294604F10D
:101680000C00FFF7F5FC0028F3DA201D8021BDE8EF
:101690003840FFF7BDBC0248FEF73AFFDEE700BF67
:1016A000D0290008AFF30080AFF30080AFF30080D3
:1016B00000F036BCAFF30080AFF30080AFF30080E2
:1016C0004FF0804310B5DB689B07044602D5054800
:1016D000FEF71EFF4FF08043002102225C63196178
:1016E000DA6010BD002A0008AFF30080AFF300807D
:1016F0004FF080430022DA60704700BFAFF30080F4
:101700004FF0804310B5DB689B07044602D40348C2
:10171000FEF7FEFE4FF080435C6310BD102A000808
:1017200000F056BDAFF30080AFF30080AFF3008050
:10173000002301220270437083704360704700BF32
:1017400043099B0010B403F1604300F1604404F5C9
:10175000614403F56143090100F01F00012282404A
:10176000C9B284F80013C3F880211A605DF8044BF5
:10177000704700BFAFF30080AFF30080AFF300808D
:1017800008B5FFF78DF8FEF77BFF084B084A19688C
:1017900001F03D01996013680BB150689847FEF75E
:1017A00087FFBDE80840FEF723BE00BF006002408F
:1017B000000E0020AFF30080AFF30080AFF3008095
:1017C00010B5FFF76DF8FEF75BFF094B0948196884
:1017D0008268890901F03D018C019C600AB1C068F2
:1017E0009047FEF765FFBDE81040FEF701BE00BF61
:1017F00000600240000E0020AFF30080AFF30080D5
:1018000010B5FFF74DF8FEF73BFF094B0948196883
:101810000269090C01F03D010C049C600AB14069A9
:101820009047FEF745FFBDE81040FEF7E1BD00BF61
:1018300000600240000E0020AFF30080AFF3008094
:1018400010B5FFF72DF8FEF71BFF094B0948196883
:101850008269890D01F03D018C059C600AB1C06967
:101860009047FEF725FFBDE81040FEF7C1BD00BF61
:1018700000600240000E0020AFF30080AFF3008054
:1018800008B5FFF70DF8FEF7FBFE084B084859684E
:10189000026A01F03D01D9600AB1406A9047FEF743
:1018A00007FFBDE80840FEF7A3BD00BF006002408F
:1018B000000E0020AFF30080AFF30080AFF3008094
:1018C00010B5FEF7EDFFFEF7DBFE094B094859683E
:1018D000826A890901F03D018C01DC600AB1C06AAD
:1018E0009047FEF7E5FEBDE81040FEF781BD00BF62
:1018F00000600240000E0020AFF30080AFF30080D4
:1019000010B5FEF7CDFFFEF7BBFE094B094859683D
:10191000026B090C01F03D010C04DC600AB1406B64
:101920009047FEF7C5FEBDE81040FEF761BD00BF61
:1019300000600240000E0020AFF30080AFF3008093
:1019400010B5FEF7ADFFFEF79BFE094B094859683D
:10195000826B890D01F03D018C05DC600AB1C06B22
:101960009047FEF7A5FEBDE81040FEF741BD00BF61
:1019700000600240000E0020AFF30080AFF3008053
:1019800008B5FEF78DFFFEF77BFE084B0848196887
:10199000026C01F03D0199600AB1406C9047FEF77E
:1019A00087FEBDE80840FEF723BD00BF006402408B
:1019B000000E0020AFF30080AFF30080AFF3008093
:1019C00010B5FEF76DFFFEF75BFE094B094819687D
:1019D000826C890901F03D018C019C600AB1C06CE8
:1019E0009047FEF765FEBDE81040FEF701BD00BF61
:1019F00000640240000E0020AFF30080AFF30080CF
:101A000010B5FEF74DFFFEF73BFE094B094819687C
:101A1000026D090C01F03D010C049C600AB1406D9F
:101A20009047FEF745FEBDE81040FEF7E1BC00BF61
:101A300000640240000E0020AFF30080AFF300808E
:101A400010B5FEF72DFFFEF71BFE094B094819687C
:101A5000826D890D01F03D018C059C600AB1C06D5D
:101A60009047FEF725FEBDE81040FEF7C1BC00BF61
:101A700000640240000E0020AFF30080AFF300804E
:101A800008B5FEF70DFFFEF7FBFD084B0848596847
:101A9000026E01F03D01D9600AB1406E9047FEF739
:101AA00007FEBDE80840FEF7A3BC00BF006402408B
:101AB000000E0020AFF30080AFF30080AFF3008092
:101AC00010B5FEF7EDFEFEF7DBFD094B094859683E
:101AD000826E890901F03D018C01DC600AB1C06EA3
:101AE0009047FEF7E5FDBDE81040FEF781BC00BF62
:101AF00000640240000E0020AFF30080AFF30080CE
:101B000010B5FEF7CDFEFEF7BBFD094B094859683D
:101B1000026F090C01F03D010C04DC600AB1406F5A
:101B20009047FEF7C5FDBDE81040FEF761BC00BF61
:101B300000640240000E0020AFF30080AFF300808D
:101B400010B5FEF7ADFEFEF79BFD094B094859683D
:101B5000826F890D01F03D018C05DC600AB1C06F18
:101B60009047FEF7A5FDBDE81040FEF741BC00BF61
:101B700000640240000E0020AFF30080AFF300804D
:101B80000D4B30B400220D4D0D4C1A60114613461A
:101B9000A858016044F833100133102B02F10C02F5
:101BA000F6D10849084A4FF0FF338B6030BCCB6058
:101BB0009360D360704700BF800E0020202A000889
:101BC000000E00200060024000640240AFF300807D
:101BD000174B4FF0FF311A69002210B419611A61D6
:101BE000586959615A61186A124C60F08050186245
:101BF0001A62586A59625A62196C41F0805119642C
:101C0000216841F480712160196F01F44071B1F5D0
:101C1000007F03D04FF4803119671A67054A5DF8D9
:101C2000044B536823F400735360FFF7A9BF00BF50
:101C30000038024000700040AFF30080AFF3008036
:101C40002C492D4B4FF080504FF4404208641A60ED
:101C50000B6843F001030B600A68264B9007FBD525
:101C60009A6822F003029A609A689A6019468B6813
:101C7000204A13F00C03FAD1116801F0F901116048
:101C80009360136843F4803313601168194B890320
:101C9000FBD55A6F42F001025A675A6F15499007F7
:101CA000FBD5164B4B600B68134A43F080730B60F7
:101CB00053685904FCD50F490A680E4B9201FBD5B5
:101CC0000F4A1049996040F2047111609A6842F01D
:101CD00002029A601A469368064903F00C03082B27
:101CE000F9D14B6C43F480434B644B6E43F4804317
:101CF0004B6670470038024000700040194B4007A7
:101D0000003C02400094683DAFF30080AFF30080D8
:101D10002DE9F04FDFF8B481DFF8B4C1D8F830A076
:101D2000DFF8B0E1634F644E644D654C6549664A27
:101D3000DFF8A4B140F2FF194AEA090AC8F830A056
:101D4000D8F850A04AEA0909C8F850904368CCF87E
:101D500004308368CCF80830C368CCF80C300369D1
:101D6000CCF814304369CCF820308369CCF82430A7
:101D70000368CCF80030036ACEF80430436ACEF82A
:101D80000830836ACEF80C30C36ACEF81430036B87
:101D9000CEF82030436BCEF82430C369CEF8003043
:101DA000C36B7B60036CBB60436CFB60836C7B61CB
:101DB000C36C3B62036D7B62836B3B60876D7760B6
:101DC000C76DB760076EF760476E7761876E3762E1
:101DD000C76E7762476D3760466F6E60866FAE6024
:101DE000C66FEE60D0F880606E61D0F884602E62BD
:101DF000D0F888606E62066F2E60D0F890506560F3
:101E0000D0F89450A560D0F89850E560D0F89C5078
:101E10006561D0F8A0502562D0F8A4506562D0F872
:101E20008C502560D0F8AC404C60D0F8B0408C604D
:101E3000D0F8B440CC60D0F8B8404C61D0F8BC4089
:101E40000C62D0F8C0404C62D0F8A8400C60D0F8CA
:101E5000C8105160D0F8CC109160D0F8D010D1608B
:101E6000D0F8D4105161D0F8D8101162D0F8DC103D
:101E70005162D0F8C4101160D0F8E420CBF80420EF
:101E8000D0F8E820CBF80820D0F8EC20CBF80C20D4
:101E9000D0F8F020CBF81420D0F8F420CBF8202094
:101EA000D0F8F820CBF82420D0F8E020CBF80020A0
:101EB000BDE8F08F00080240000C02400010024014
:101EC0000014024000180240001C0240003802408A
:101ED000000002400004024000200240AFF30080F6
:101EE00010B5FEF7DDFCFEF7CBFB4FF0804300247E
:101EF0001C61202383F31188FEF70AFDFEF790FB97
:101F0000FEF70EFBFEF7A4FBFEF70AFD84F3118833
:101F1000FEF7CEFBBDE81040FEF76ABAAFF30080D3
:101F200070B40D48016C4FF080430022012441F051
:101F3000010141F64B564FF0FF3501649E621C20B3
:101F4000DD6208219A615A63DA605A605C611C6044
:101F500070BCFFF7F5BB00BF00380240AFF3008054
:101F6000024AD36843F08003D360704700440040C6
:101F7000F8B55A4EFEF794FCFEF782FB756FEF68DA
:101F80002B68DA059CB269D4202383F31188FEF70D
:101F9000BFFCFEF745FB14F02F0F08D129E0A00687
:101FA00069681DD42C68A4B214F02F0F21D0230728
:101FB000F5D014F0080F0CBF00218021E00748BFC6
:101FC00041F02001A20748BF41F04001630748BF2C
:101FD00041F480714248FFF71BF8A0066968E1D51B
:101FE000C9B23E48FFF734FB2C68A4B214F02F0F9F
:101FF000DDD1FEF72DFBFEF793FC002383F3118860
:10200000390601D5220640D4630605D4FEF750FBFD
:10201000BDE8F840FEF7ECB9202383F31188FEF702
:1020200077FCFEF7FDFAFEF75BFB726CB36C2B4896
:102030009A423FD04FF6BF733B406FF04002EB60D7
:102040002A60FEF705FBFEF76BFC002383F3118883
:10205000FEF72EFBBDE8F840FEF7CAB9202383F354
:102060001188FEF755FCFEF7DBFA301D4FF40071C6
:10207000FEF7CEFF6FF480732B60FEF7E9FAFEF7F0
:102080004FFC002383F311887EE7202383F311881C
:10209000FEF73EFCFEF7C4FA1248FFF729F90028C4
:1020A00010DB6860FEF7D4FAFEF73AFC002383F3F6
:1020B0001188A9E7836B002BBCD004301021FEF7F8
:1020C000A7FFB7E706480821FEF7A2FF4FF63F73C8
:1020D0003B4043F04003EB60E4E700BF840E002088
:1020E000880E0020B40E0020AFF30080AFF3008014
:1020F00010B5044C044A20460021FFF789FA034B2F
:10210000636710BD840E0020611F0008004400407A
:10211000F8B52B4EFEF7C4FBFEF7B2FAB7683C6881
:10212000250719D073681B69B3B114F0080F0CBFF1
:1021300000211021E00748BF41F00401A20748BF79
:1021400041F00801650748BF41F02001E00548BFA4
:1021500041F040011A489847FD68AA0601D5A30638
:1021600025D4280601D5210615D46A060DD56306A7
:102170000BD5144A73684FF4807151835B680BB1BF
:102180000F48984725F04005FD60FEF791FABDE83D
:10219000F840FEF72DB973681B680BB108489847E3
:1021A0007378074A022B04BF00235370DDE773687E
:1021B0000348DB68002BD4D0818989B29847D0E7E7
:1021C000FC0E002000180240AFF30080AFF3008047
:1021D00010B5034C2046FFF7ABFA024BA36010BDCD
:1021E000FC0E002000480040AFF30080AFF30080F9
:1021F000FFF726BDAFF30080AFF30080AFF30080A0
:10220000704700BFAFF30080AFF30080AFF30080F2
:10221000F0B400F10B073C460D46B1FBF2F602FBB1
:10222000161101F13003392BC8BF01F13703DBB2BE
:1022300004F8013DB5FBF2F53146002DEDD13A1B16
:10224000024401E014F8013F00F8013B9042F9D14B
:10225000F0BC7047AFF30080AFF30080AFF30080B5
:102260002DE9F04F87B015460DF10D0303AA9B1A17
:1022700081468A4601934FF000088B469BF8001078
:102280000BF1010379B1252911D0D9F800209B4623
:102290009268484690479BF8001008F101080BF13E
:1022A00001030029EFD1404607B0BDE8F08F9BF84D
:1022B00001202D2A03BF9BF802200BF102034FF0EF
:1022C000010A4FF0000A302A03BF5A780133302741
:1022D0002027591C002606E02B7804359BF80020A7
:1022E00003EB40060131A2F13003DBB2092B8B4630
:1022F00006EB8600F2D92A2AEED02E2A4FF00001F2
:1023000043D002F0DF034C2B4ED0A2F1440034281E
:1023100000F2F780DFE810F0EA00F500F500F500C4
:10232000F500EA00F500F500F500F500F500E8001D
:10233000F500F500F500F500F500DD00F500F5000D
:10234000F200F500F500F500F500F500F500F500E8
:10235000F500F500F500A100EA00F500F500F50034
:10236000F500EA00F500F500F500F500F500E800DD
:10237000F500F500F5007100F500DD00F500F50051
:10238000F2002B78043503EB40011BF8012BA2F17E
:102390003003DBB2092B01EB8100F4D92A2AF0D0FB
:1023A00002F0DF034C2BB0D19BF80030002B00F083
:1023B000A880A3F144020BF1010B342A00F2A080A3
:1023C000DFE802F0949E9E9E9E949E9E9E9E9E920C
:1023D0009E9E9E9E9E879E9E9C9E9E9E9E9E9E9E36
:1023E0009E9E9E4B949E9E9E9E949E9E9E9E9E9280
:1023F0009E9E9E1B9E879E9E9C002C685A4B002C86
:1024000008BF1C4604352378002900F09480002B77
:1024100000F096800139204601E0013903D410F81C
:10242000013F002BF9D1001B361A431E202726EA54
:10243000E676BAF1000F1FD0002B009334DA002E9D
:102440003FF41CAF3446D9F8003048469B68394603
:102450009847013CF7D1B04410E72B688DF80C3059
:10246000019B043518462027013B03AC361A26EAA7
:10247000E676BAF1000FDFD10093C6F1000ABAF197
:10248000000F45D021782D2947D05646D9F8003085
:1024900048469B68394698470136F7D1009B002B88
:1024A000CAEB0808FFF6EAAEDDF800A0D9F8003064
:1024B00014F8011B9B680AF1FF3A48469847BAF1A5
:1024C000FF3FF3D1009B08F10108002BA8BF9844FF
:1024D000B5E70A22296803A80435FFF799FE03AB84
:1024E000C01A431E03ACC1E70822F3E7296800299C
:1024F00005F104052EDB03A80A22EEE71022E9E726
:102500001A46019B8DF80C20184603AC013BADE741
:10251000009B002B5646C7DAB0E6302FB5D1D9F86C
:10252000003048469B689847009B013B013408F106
:1025300001080093A9E747F6FE71002B7FF46BAF0B
:1025400026EAE676BAF1000F0BD14FF0FF33009385
:10255000202792E72D2349428DF80C300DF10D0014
:10256000CAE720276BE700BFE02B0008AFF300802D
:1025700004207047AFF30080AFF30080AFF300801A
:1025800000207047AFF30080AFF30080AFF300800E
:1025900008B5084600F014F9012008BDAFF300802B
:1025A00070B516463AB10D46144615F8010B00F009
:1025B00007F9013CF9D1304670BD00BFAFF3008090
:1025C000014B0360704700BFF02B0008AFF30080A1
:1025D0000EB400B582B003AA054852F8041B01925C
:1025E000FFF73EFE02B05DF804EB03B0704700BF9A
:1025F00014120020AFF30080AFF30080AFF300802F
:1026000070B40B4B0B4C1B782178CB1A202B01DDBF
:1026100070BC70474A1C01F01F03074E074905466E
:10262000D2B22270F554064870BCFFF7D1BF00BF8C
:10263000180F00203C0F00201C0F0020002C000869
:1026400014120020AFF30080AFF30080AFF30080DE
:1026500038B50B4D0B4B2A781B78934201D80020DC
:1026600038BD02F01F0308490848CC5C0849013214
:10267000D3B21A462B70FFF7ABFF204638BD00BF20
:10268000180F00203C0F00201C0F00201412002007
:10269000102C0008AFF30080AFF30080AFF3008090
:1026A00008B5094B094A9B69094C9A6140252E4699
:1026B000668341F28830FEF7DBFB258341F28830E8
:1026C000FEF7D6FBF4E700BF00080020202C00082E
:1026D00000180240AFF30080AFF30080AFF300803A
:1026E000074B084A9B6910B505209A61441CE4B267
:1026F000FFF786FF42F21070FEF7BAFB2046F5E7BF
:1027000000080020282C0008AFF30080AFF3008001
:102710000EB400B582B003AA054852F8041B01921A
:10272000FFF79EFD02B05DF804EB03B0704700BFF9
:1027300014120020AFF30080AFF30080AFF30080ED
:1027400008B5084B084A9B699A61FFF781FF074962
:1027500002460748FFF7DCFF40F6B830FEF788FB7B
:10276000F3E700BF00080020342C0008402C0008CC
:1027700014120020AFF30080AFF30080AFF30080AD
:10278000084A0949136843F0270313600B68DA0706
:1027900006D5064B1B68DB0702D5054B01221A60E4
:1027A000704700BF042004E0F0ED00E0000E00E000
:1027B00010120020AFF30080AFF30080AFF3008071
:1027C000074B1B685BB1074B1B68DB0107D54FF05C
:1027D00060410B684FF06042002BFAD010707047D8
:1027E00010120020FCED00E0AFF30080AFF300809A
:1027F00069646C650000000000000000000000003B
:1028000053562331000000005356233200000000CD
:1028100053562333000000005356233400000000B9
:1028200053562335000000005356233600000000A5
:102830005356233700000000535623380000000091
:102840005356233900000000535623313000000056
:10285000535623313100000000000000000000004A
:102860006368536368526561647949000000000041
:10287000737461636B206F766572666C6F770000AE
:1028800063685654446F53657449000000000000AB
:1028900063685654446F52657365744900000000C4
:1028A0006368546864446F446571756575654E6509
:1028B00078744900000000000000000000000000E3
:1028C0006368546864457869745300000000000030
:1028D0006368546864437265617465490000000070
:1028E0006368537973556E6C6F636B000000000072
:1028F0006368546864536C656570530000000000A1
:102900006D61696E00160018040460080C1014183C
:102910001C20212200000000000000000000000038
:1029200063684D74784F626A656374496E697400B8
:10293000636845767442726F616463617374466C58
:102940006167734900000000000000000000000003
:1029500063684576745369676E616C4900000000D6
:1029600063684F51577269746554696D656F75740A
:102970000000000000000000000000000000000057
:10298000636849515265616454696D656F7574007F
:102990006368537973556E6C6F636B0000000000C1
:1029A0006368537973556E6C6F636B0000000000B1
:1029B00025730A0068616C5F6C6C645F696E697492
:1029C0000000000070616C496E6974000000000036
:1029D0007364496E636F6D696E6744617461490029
:1029E000B115000891150008F1150008D11500086F
:1029F000E1150008C1150008A1150008811500089F
:102A000073745374617274416C61726D00000000E4
:102A10007374536574416C61726D000000000000B6
:102A2000106002400860024000000B002860024075
:102A30000860024006010C0040600240086002404D
:102A400010020D00586002400860024016030E009C
:102A5000706002400C60024000040F008860024079
:102A60000C60024006051000A06002400C600240AD
:102A700010061100B86002400C60024016072F00DB
:102A800010640240086402400008380028640240D4
:102A900008640240060939004064024008640240AC
:102AA000100A3A005864024008640240160B3B00CA
:102AB000706402400C640240000C3C0088640240D8
:102AC0000C640240060D4400A06402400C64024005
:102AD000100E4500B86402400C640240160F460018
:102AE00028AA822A28002800FFFFFFFF5400004088
:102AF000FFFF0000B00B56B500000000802008006A
:102B000040020000FFFFFFFF15455155FFFF000089
:102B1000000000044000000009AAA5000000000019
:102B2000FFFFFFFF50000054FFFC0000B000BB8817
:102B3000007706000001005500000000FFFFFFFFC6
:102B400055501500FF0F00000000000000000000BD
:102B50004000000000000000FFFFFFFF0000000039
:102B6000FFFF000000000000000000000000000067
:102B700000000000FFFFFFFF00000000FFFF00005B
:102B8000000000000000000000108128000000008C
:102B9000FFFFFFFF00004014BFFE00000000000028
:102BA00000B0B00B0000000000000000FFFFFFFFBE
:102BB00000000000FFFF0000000000000000000017
:102BC0000000040000000000FFFFFFFF0000000005
:102BD000FFFD0000000000000000000000000000F9
:102BE000286E756C6C2900000000000000000000D9
:102BF000A1250008812500089125000871250008FD
:102C00005772697465506F733A2025640A0000009A
:102C100052656164506F733A2025640A0000000019
:102C2000626C696E6B65720070726F647563657259
:102C300000000000636F6E73756D65720000000028
:102C4000456C656D656E743A2025640A00000000CD
:102C500053575620456E61626C65640A000000009F
:102C60002573000043686962694F532056332E3044
:042C70000A00000056
:04000005080002C12C
:00000001FF
