:020000040800F2
:10000000000400201106000811070008110700086D
:100010001107000811070008110700081107000860
:100020001107000811070008110700082107000840
:100030001107000811070008110700081107000840
:100040001107000811070008110700081107000830
:100050001107000811070008110700081107000820
:100060001107000811070008110700081107000810
:100070001107000811070008110700081107000800
:1000800011070008110700081107000811070008F0
:1000900011070008110700081107000811070008E0
:1000A00011070008110700081107000811070008D0
:1000B000611A000801190008211900081107000839
:1000C00011070008110700081107000811070008B0
:1000D00011070008110700081107000811070008A0
:1000E0001107000811070008110700081107000890
:1000F0001107000811070008110700081107000880
:10010000110700081107000811070008110700086F
:10011000110700081107000811070008110700085F
:10012000110700081107000811070008110700084F
:10013000110700081107000811070008110700083F
:10014000110700081107000811070008110700082F
:10015000110700081107000811070008D11A00084C
:10016000110700081107000811070008110700080F
:1001700011070008110700081107000811070008FF
:1001800011070008110700081107000811070008EF
:1001900011070008110700081107000811070008DF
:1001A00011070008110700081107000811070008CF
:1001B00011070008110700081107000811070008BF
:1001C0002DE9F04385B002F073F8A24B1B68002BB9
:1001D00040F0D581A048A14FA14EA24D01F050FFA3
:1001E00001F0AEF800F0E4FA9F4AA0499A4802F004
:1001F00047F89F48002101F073F99E489E4901F09D
:10020000D7F89E489E4901F0D3F80024384631467D
:10021000042200F065FE009428464FF4A4710134D6
:100220002C22984B0D4400F04BFD042C07F12807BD
:1002300006F11006EAD19448944C8D4D01F028FF48
:10024000934801F025FF934801F022FF2A212B68F3
:1002500087489B68984714F8011F0029F7D18E48FA
:100260008E4C01F015FF2A212B6881489B68984726
:1002700014F8011F0029F7D189488A4C01F008FFC2
:100280002A212B687A489B68984714F8011F002997
:10029000F7D18548854C01F0FBFE2A212B68744874
:1002A0009B68984714F8011F0029F7D18048814CBA
:1002B00001F0EEFE2A212B686D489B68984714F8E0
:1002C000011F0029F7D17C487C4C01F0E1FE2A2176
:1002D0002B6867489B68984714F8011F0029F7D1DD
:1002E0007748784C01F0D4FE2A212B6860489B683F
:1002F000984714F8011F0029F7D17348734C01F097
:10030000C7FE2A212B685A489B68984714F8011F9A
:100310000029F7D16E486F4C01F0BAFE5D4801F03C
:10032000B7FE2A212B6852489B68984714F8011F92
:100330000029F7D16848694C01F072FF524801F07A
:10034000A7FE2A212B684A489B68984714F8011F8A
:100350000029F7D1642001F063FF614C4A4801F0A5
:1003600097FE2A212B6842489B68984714F8011F82
:100370000029F7D101F04CFF5A4C434801F088FEA8
:100380002A212B683A489B68984714F8011F0029D6
:10039000F7D1042001F044FF3B48534E01F078FEB2
:1003A0002A242B6832489B682146984716F8014F4B
:1003B000002CF6D1042001F033FF33484B4F01F0FD
:1003C00067FE314801F064FEA1464FF00108484C39
:1003D00049212B6826489B68984714F8011F00297B
:1003E000F7D14046039101F01BFF274801F050FE72
:1003F000039939700C464FF4FA660BE02B689B6842
:1004000098473C4A06F10903A2FB0323A6EBD30657
:10041000012E71D91748711E00F0DAFF711C1748C0
:1004200000F0D6FF42F2107000F08AFC114800F094
:10043000DFFF124800F0DCFF3B780D482E21002B37
:10044000DCD02B680A489B6823219847002C08BF02
:100450003446D6E7340F0020380F0020440F002028
:10046000E40F0020100A002030260008EC240008C9
:100470009809002088090020D0240008780900206D
:10048000C0240008D1200008FC2400080025000832
:10049000402600086C260008842600081425000861
:1004A0009026000828250008A82600083C250008FA
:1004B000F026000850250008FC26000864250008E6
:1004C0000827000878250008202700088C25000848
:1004D0004C270008A025000880D1F008B4250008AA
:1004E000C8250008DC250008F0250008300F002092
:1004F00004260008CDCCCCCCC82000F021FC244E32
:10050000244801F0C5FD53212B6823489B68984778
:1005100016F8011F0029F7D1204601F081FE1F487F
:1005200001F0B6FD08F10108A1451A4838BFA146FF
:1005300001F0AEFDB8F1650F7FF449AF1848194CD2
:1005400000F056FF184800F053FF57212B6812485F
:100550009B68984714F8011F0029F7D1484601F01D
:100560005FFE0E4801F094FD0A4801F091FD0F482E
:1005700001F08EFD4CF2503000F0E2FBFAE70C4C3B
:10058000532001F0B5FE14F8010F0028F9D121E63F
:1005900010260008FC240008980900207026000896
:1005A0008809002020260008780900207426000809
:1005B000F0240008AFF30080AFF30080AFF30080B9
:1005C0002DE9F04FC1F80CD0D0F80CD0BDE8F08F79
:1005D000002383F311882846A04700F0E1FB00F0D8
:1005E000D7FA00DFFEE70000000000000000000076
:1005F000704700BFAFF30080AFF30080AFF300801F
:10060000FEE700BFAFF30080AFF30080AFF30080E0
:1006100072B6314C84F30988022383F31488BFF344
:100620006F8F01F045FB2D4B2D4A93420BD2D943DE
:100630000A4422F0030204321A444FF0553143F8C1
:10064000041B9342FBD1274BA3420CD2264A191D0F
:10065000521A22F0030204321A444FF0553143F883
:10066000041B9342FBD1214A214B9A420CD2D04326
:10067000184420F003001F4B0430184453F8041BA7
:1006800042F8041B8342F9D11B4B1C4A93420AD205
:10069000D9430A4422F0030204321A44002143F8E9
:1006A000041B9342FBD1164D164CFFF7A1FFAC4241
:1006B00004D254F8043B9847AC42FAD3124D134C81
:1006C000FFF77EFDAC4204D254F8043B9847AC429D
:1006D000FAD3FFF795FF00BF0008002000000020BC
:1006E000000400200004002003080020000800206F
:1006F00000080020782700080008002024100020AF
:10070000C0010008C0010008C0010008C0010008C5
:10071000FEE700BFAFF30080AFF30080AFF30080CF
:10072000EFF30983203383F30988002383F31188CF
:10073000704700BFAFF30080AFF30080AFF30080DD
:10074000202383F311880F4B5B6813F4006302D1FD
:1007500083F31188704710B5EFF309844FF080736D
:1007600044F8043CA4F1200383F3098800F0D0F995
:1007700018B1054B44F8083C10BD044B44F8083C44
:1007800010BD00BF00ED00E0DF050008E205000835
:10079000024B034A9B699A61FEE700BF00080020F4
:1007A00020230008AFF30080AFF30080AFF3008098
:1007B0001E4B1F4A1F48F0B500249C60DF681E4E88
:1007C0001E4D4FF6FF0139400A43DA60F26842F0ED
:1007D0008072F2600268202142F00102102602605D
:1007E00083B0DE7783F8221000F0FAF800F0D8F931
:1007F00000F09EF800F044FD00F07AFD284640210C
:1008000000F03EFAA5F1300301229861027784F3EB
:10081000118862B69B690A49996105F14800009404
:10082000D821084B00F04CFA03B0F0BD00ED00E019
:100830000003FA05001000E0F0ED00E030080020B1
:100840003023000891070008AFF30080AFF3008069
:100850002DE9F0411B4C4FF08045E369A26A696ABB
:1008600098688E1A864204F11C0619D34FF00008CE
:1008700020271968D3F80CC00244A2624E60E161DF
:10088000C3F80C8088F311881869E04787F3118852
:10089000E369696AA26A9868C2EB010E8645E8D2EC
:1008A000B3420BD0012804D00844BDE8F04100F069
:1008B0005FBE881CBDE8F04100F05ABEBDE8F041C3
:1008C00000F04EBE00080020AFF30080AFF30080C0
:1008D000014B5B6883607047001000E0AFF300805D
:1008E0000F4B10495A688368F0B44F6FC66841686F
:1008F000D0E90445D31ADB1BE41845F100050136A5
:100900008B42C6608360C0E9044505D80268934203
:1009100038BF0360F0BC70474360F0BC704700BF55
:10092000001000E000080020AFF30080AFF300806B
:10093000D0B50C4C86B000234FF0FF32684600263D
:10094000002763670193029303930092CDE9046744
:10095000FFF7BEFF6846FFF7C3FF029B636706B061
:10096000D0BD00BF00080020AFF30080AFF30080CF
:1009700010B4202383F31188037F072B0ED8DFE800
:1009800003F0270D0D2308040D08026A9368013354
:10099000936090E80C001A60026853604FF0FF34D7
:1009A000002281680D4B046202771B689A688A42B4
:1009B000FBD25A684260036000215860106081F3E6
:1009C00011885DF8044B7047036A00221A60E5E75E
:1009D000002383F311885DF8044B70470008002062
:1009E000034B00225B601B605B611B619A60704778
:1009F00000080020AFF30080AFF30080AFF3008069
:100A000000228168084B10B4044602771B689A687C
:100A10008A42FBD25A686260236020465C601460A0
:100A20005DF8044B704700BF00080020AFF3008062
:100A3000074B30B41A689969146808770125636018
:100A400015771C60104630BC9A61FFF7B9BD00BF36
:100A500000080020AFF30080AFF30080AFF3008008
:100A600030B54B1C87B012D00C4C0D4AA36905461B
:100A700001A800F0A5F82846FFF7DAFF049B13B1A0
:100A800001A800F0D5F8A369186A07B030BD034C7F
:100A9000FFF7CEFFA369186A07B030BD0008002039
:100AA00071090008AFF30080AFF30080AFF300805E
:100AB000144BF0B49E6984680546B068296284428C
:100AC0004FF000020BD82A771B689A689442FBD932
:100AD0005A686A602B605D601560F0BC70473277C1
:100AE0001A46126891688842FBD9546874600127DD
:100AF0003260566026602F77314628469D61F0BCF3
:100B0000FFF75EBD00080020AFF30080AFF3008068
:100B1000044B1A689B6990689B68984294BF0020B8
:100B20000120704700080020AFF30080AFF3008081
:100B30000D4A106870B4036894691360012600259B
:100B4000A1685A6006779061257700E01B689A6873
:100B50008A42FBD85A686260236021465C60146058
:100B600070BCFFF72DBD00BF00080020AFF3008070
:100B7000044B1A689B6992689B689A4200D8704738
:100B8000FFF7D6BF00080020AFF30080AFF300806E
:100B9000FFF7CEBFAFF30080AFF30080AFF300806C
:100BA000054B4FF0FF3003F11C020021586299629F
:100BB0001A62DA61704700BF00080020AFF30080BE
:100BC000F8B51A4FBE4601298CBF0D4602255EF8C6
:100BD0001C4F03614FF080437445C26006465A6A59
:100BE0001DD0B86AA368121A15449D4203D211E0C1
:100BF0002468ED1AA368AB42FAD36368736034606B
:100C000066601E60B560A1684FF0FF33491BA160AC
:100C10007B62F8BD284400F0ABFCA368EBE7A818A2
:100C2000BA6200F095FC7B6AE5E700BF000800208F
:100C300002688368916830B4104C456819442346B3
:100C400091602A60016853F81C2F4D609A424FF062
:100C500000054FF0FF31C56061620BD09368A06A58
:100C6000012B03D9184430BC00F082BC023030BCE8
:100C700000F07EBC30BC00F073BC00BF0008002058
:100C8000F0B50E4CC16366694661002200F128058B
:100C90004FF0020C4FF0010E00F124078160046157
:100CA00080F81CC0606180F81EE042778263426376
:100CB000826130614762C5628562F0BD0008002034
:100CC0002DE9F04799460446202383F311881A4EF4
:100CD0001A4B7769243900EB010AC0F80CA00025F3
:100CE00040F801904FF0010C00F128090899CAF86A
:100CF000041000F1240E4FF00208CAF820302946F3
:100D0000826006614761C26380F81C8080F81EC063
:100D1000457770618563456385613861C0F824E07B
:100D2000C0F82C90C0F82890FFF7C2FE85F3118818
:100D30002046BDE8F08700BF00080020D10500086C
:100D400008B50146202383F311880820FFF788FEA9
:100D5000002383F3118808BDAFF30080AFF3008058
:100D600038B50E4B9C69636A206204F124059D42EC
:100D700007D01A6862621846FFF742FE636AAB4208
:100D8000F7D1637F9B0704D1636922691A612269E5
:100D900053610F20BDE83840FFF74ABE000800202D
:100DA000202383F31188FFF7DBBF00BFAFF3008080
:100DB00069B1084B10B4024644689B69042083E87B
:100DC0001400536023605DF8044BFFF749BE4FF0F9
:100DD000FF30704700080020AFF30080AFF30080C1
:100DE00002689042034609D010B41468046063603E
:100DF000116210465DF8044BFFF702BE704700BF5A
:100E00004060006081607047AFF30080AFF3008006
:100E100003468068421E002A9A6001DB002070476A
:100E200010B461B1094A926913625C68052082E8D6
:100E300018005A6022605DF8044BFFF711BE9860FD
:100E40005DF8044B4FF0FF30704700BF00080020F2
:100E500083680133002B836000DD704703681A68E4
:100E600002600021506018461962FFF7C9BD00BF3B
:100E70000023406000608360704700BFAFF30080D4
:100E8000436B027F19430A2A41630AD00B2A00D020
:100E90007047036A19408B42FAD100230362FFF7BF
:100EA000AFBD036A1942F8D1704700BFAFF30080AD
:100EB00070B50468A04206460D460DD0E3682B438A
:100EC000E36015B12269134203D06068A168FFF79F
:100ED000D7FF2468A642F1D170BD00BFAFF30080F8
:100EE00010B50B4601EB820141600446C36083608C
:100EF000036011461C30FFF783FF04F1100000214E
:100F0000BDE81040FFF77CBFAFF30080AFF3008077
:100F100070B504460E461C301146FFF779FF0546B2
:100F200078B9A2686168131D8B42A36028BF23684B
:100F3000166004F1100028BFA360FFF789FFFFF7D8
:100F400017FE284670BD00BFAFF30080AFF30080EE
:100F500008B5202383F31188FFF7DAFF002383F31A
:100F6000118808BDAFF30080AFF30080AFF30080BD
:100F700038B5436A002B12DD84684568221D013BA9
:100F8000AA42436228BF03688260216000F110001A
:100F900028BF40F8083CFFF75BFF002038BD4FF04A
:100FA000FF3038BDAFF30080AFF30080AFF30080B7
:100FB00070B504460E4610301146FFF729FF05466E
:100FC00080B9E3686268196804339342E36028BF1C
:100FD0002368316004F11C0028BFE360FFF738FF8D
:100FE000FFF7C6FD284670BDAFF30080AFF3008069
:100FF00008B5202383F31188FFF7DAFF002383F37A
:10100000118808BDAFF30080AFF30080AFF300801C
:1010100030B4029C046200250A448560026140608D
:10102000006041618161C160C36130BC704700BF35
:10103000836942699A4210B583680FD00133541C0A
:10104000836044611170426903699A4201D3C368A5
:1010500043610021FFF7C4FE002010BD002BEDD03E
:101060006FF0030010BD00BFAFF30080AFF300804E
:1010700070B520230E46044683F31188C3692BB153
:10108000984703E0FFF794FE002815DBA56820468B
:101090003146002DF6D0A2692169531C8B4205F11F
:1010A000FF35A361A56028BFE368107828BFA3615E
:1010B000002383F3118870BD85F3118870BD00BFD4
:1010C0002DE9F04F044683B0894693461D46D0F87B
:1010D0001C80202787F3118800260197B246B8F1BB
:1010E000000F05D02046C04702E0FFF761FED8B9E7
:1010F000A76820462946002FF7D0A2697B1E511C05
:10110000A161A360137809F8013B2369A2699A429F
:1011100024BFE368A3618AF311880136B34505D083
:10112000019B83F31188DAE787F31188304603B017
:10113000BDE8F08FAFF30080AFF30080AFF3008025
:1011400030B4029C04628D180561406000608260CA
:1011500041618161C160C36130BC7047AFF3008001
:10116000F8B504460F461646202383F3118803E0A2
:10117000FFF71EFE002818DBA56820463146002D2B
:10118000F6D06369013D5A1C6261A5601F70236936
:1011900062699A4224BFE3686361E3690BB1204648
:1011A0009847002080F31188F8BD85F31188F8BDB9
:1011B00038B582694369934283680ED00569511C32
:1011C000013383608161A942147801D3C3688361CC
:1011D0000021FFF705FE204638BD002BEED06FF052
:1011E000020038BDAFF30080AFF30080AFF30080A2
:1011F0002DE9F04F83B004468B4616460193D0F894
:101200001C804FF0200989F311880027CDF8009049
:10121000BA46A5680BF101096A1E20460DB3636941
:10122000A2605A1C62619BF800201A7023696269EF
:101230009A4224BFE3686361B8F1000F00D0C04751
:101240008AF31188013E07F1010712D0009B83F356
:101250001188A568CB466A1E0BF101092046002DB6
:10126000DDD120460199FFF7A3FD0028D1D085F3F9
:101270001188384603B0BDE8F08F00BFAFF300809F
:10128000054A064B0648074922F0070223F00703E8
:1012900002600B60704700BF2B10002000C00120CF
:1012A0005409002050090020AFF30080AFF3008004
:1012B00010B4202383F31188094C0A4B2268196863
:1012C000C31D23F00703891A8B429DBF9B1823601F
:1012D00010460020002383F311885DF8044B70470B
:1012E0005409002050090020AFF30080AFF30080C4
:1012F000044B054A1A6003F1100000229A60DA607C
:10130000FFF7B6BD58090020B1120008AFF3008006
:101310000EB400B582B004AB1A46054905480193E6
:1013200000F0FEFC02B05DF804EB03B0704700BFB4
:1013300050230008380F0020AFF30080AFF3008087
:1013400038B50D4D0D4C00F03BF921460C4A2846AE
:10135000FFF7DEFF0B4800F0D3F921460A4A284682
:10136000FFF7D6FF00F014F800F092F800F0A8FCA8
:10137000BDE8384000F0E4B8380F002050230008E2
:1013800054230008A023000864230008AFF3008062
:1013900000F0D6BAAFF30080AFF30080AFF3008067
:1013A0000122002302704360704700BFAFF300804A
:1013B00010B52023044683F31188416000F0D8FA69
:1013C00002232370002383F3118810BDAFF3008044
:1013D00008B5202282F311880322027000F018FB66
:1013E000002383F3118808BDAFF30080AFF30080C2
:1013F00008B5202282F311880222027000F020FB3F
:10140000002383F3118808BDAFF30080AFF30080A1
:101410000C30FFF755BE00BFAFF30080AFF3008084
:101420000C304FF0FF33FFF74BBE00BFAFF300802F
:101430003030FFF7DDBE00BFAFF30080AFF30080B8
:1014400030304FF0FF33FFF7D3BE00BFAFF3008063
:101450000C30FFF70DBE00BFAFF30080AFF300808C
:101460000C304FF0FF31FFF703BE00BFAFF3008039
:101470003030FFF775BE00BFAFF30080AFF30080E0
:1014800030304FF0FF32FFF76BBE00BFAFF300808C
:1014900000F0AEBBAFF30080AFF30080AFF300808D
:1014A00070B50E4B044682B040F8043B0126009410
:1014B0000B461546606004F1540104F10C002672DD
:1014C0001022FFF7A5FD00942B4604F1300004F133
:1014D00064011022FFF734FE02B070BD70230008D3
:1014E00010B52023044683F3118800F091FB0223FA
:1014F0002372002383F3118810BD00BFAFF3008077
:1015000038B5436904460D463BB1294604F10C0049
:10151000FFF78EFD00280BDB38BD04300421FFF7F8
:10152000C7FC294604F10C00FFF782FD0028F3DA1E
:10153000201D8021BDE83840FFF7BABCAFF3008022
:1015400000F09EBAAFF30080AFF30080AFF30080ED
:101550004FF080430021022258631961DA6070471E
:101560004FF080430022DA60704700BFAFF3008085
:101570004FF0804358637047AFF30080AFF30080B3
:1015800043099B0010B403F1604300F1604404F58B
:10159000614403F56143090100F01F00012282400C
:1015A000C9B284F80013C3F880211A605DF8044BB7
:1015B000704700BFAFF30080AFF30080AFF300804F
:1015C000164B4FF0FF311A69002210B419611A61ED
:1015D000586959615A61186A114C60F0805018625C
:1015E0001A62586A59625A62196C41F08051196442
:1015F000216841F480712160196F01F44071B1F5E7
:10160000007F03D04FF4803119671A67044A5DF8F0
:10161000044B536823F40073536070470038024052
:1016200000700040AFF30080AFF30080AFF30080A4
:101630002C492D4B4FF080504FF4404208641A6003
:101640000B6843F001030B600A68264B9007FBD53B
:101650009A6822F003029A609A689A6019468B6829
:10166000204A13F00C03FAD1116801F0F90111605E
:101670009360136843F4803313601168194B890336
:10168000FBD55A6F42F001025A675A6F154990070D
:10169000FBD5164B4B600B68134A43F080730B600D
:1016A00053685904FCD50F490A680E4B9201FBD5CB
:1016B0000F4A1049996040F2047111609A6842F033
:1016C00002029A601A469368064903F00C03082B3D
:1016D000F9D14B6C43F480434B644B6E43F480432D
:1016E0004B6670470038024000700040194B4007BD
:1016F000003C024000940838AFF30080AFF3008054
:101700002DE9F04FDFF8B481DFF8B4C1D8F830A08C
:10171000DFF8B0E1634F644E644D654C6549664A3D
:10172000DFF8A4B140F2FF194AEA090AC8F830A06C
:10173000D8F850A04AEA0909C8F850904368CCF894
:1017400004308368CCF80830C368CCF80C300369E7
:10175000CCF814304369CCF820308369CCF82430BD
:101760000368CCF80030036ACEF80430436ACEF840
:101770000830836ACEF80C30C36ACEF81430036B9D
:10178000CEF82030436BCEF82430C369CEF8003059
:10179000C36B7B60036CBB60436CFB60836C7B61E1
:1017A000C36C3B62036D7B62836B3B60876D7760CC
:1017B000C76DB760076EF760476E7761876E3762F7
:1017C000C76E7762476D3760466F6E60866FAE603A
:1017D000C66FEE60D0F880606E61D0F884602E62D3
:1017E000D0F888606E62066F2E60D0F89050656009
:1017F000D0F89450A560D0F89850E560D0F89C508F
:101800006561D0F8A0502562D0F8A4506562D0F888
:101810008C502560D0F8AC404C60D0F8B0408C6063
:10182000D0F8B440CC60D0F8B8404C61D0F8BC409F
:101830000C62D0F8C0404C62D0F8A8400C60D0F8E0
:10184000C8105160D0F8CC109160D0F8D010D160A1
:10185000D0F8D4105161D0F8D8101162D0F8DC1053
:101860005162D0F8C4101160D0F8E420CBF8042005
:10187000D0F8E820CBF80820D0F8EC20CBF80C20EA
:10188000D0F8F020CBF81420D0F8F420CBF82020AA
:10189000D0F8F820CBF82420D0F8E020CBF80020B6
:1018A000BDE8F08F00080240000C0240001002402A
:1018B0000014024000180240001C024000380240A0
:1018C000000002400004024000200240AFF300800C
:1018D0000178C368002204291A6107D1022101702E
:1018E0001A601A61DA6822F0FF02DA6043685B6806
:1018F000184700BFAFF30080AFF30080AFF3008064
:1019000008B50348FFF7E4FFBDE80840FEF718BF3D
:1019100078090020AFF30080AFF30080AFF30080C0
:1019200008B50348FFF7D4FFBDE80840FEF708BF3D
:1019300088090020AFF30080AFF30080AFF3008090
:1019400008B50648064BC360FFF72AFD0548064B5D
:10195000C360BDE80840FFF723BD00BF7809002041
:10196000000400408809002000080040AFF3008018
:1019700038B50378012B044612D06068A368C168AB
:101980000568E268B3FBF5F3013B84689BB2002075
:1019900021F0FF011060546093621061D16038BD86
:1019A000144B984214D0144B9842E6D1134B1A6C46
:1019B00042F004021A641A6A002142F004021A6218
:1019C0001E2019620621FFF7DBFD0D4BA360D4E753
:1019D0000A4B1A6C42F002021A641A6A002142F0A1
:1019E00002021A621D2019620A21FFF7C9FD044B89
:1019F000A360C2E77809002088090020003802406F
:101A0000C0687804AFF30080AFF30080AFF30080CC
:101A10004268C36850680139D962002201215961C6
:101A20005A621A6110B1DA680A43DA6005221A6054
:101A3000704700BFAFF30080AFF30080AFF30080CA
:101A4000C36800221A601A61DA6822F0FF02DA60C5
:101A5000704700BFAFF30080AFF30080AFF30080AA
:101A60004FF0804310B500241C61202383F31188BC
:101A7000FEF7EEFE84F31188BDE81040FEF760BE6D
:101A800070B40D48016C4FF080430022012441F0F6
:101A9000010141F64B564FF0FF3501649E621C2058
:101AA000DD6208219A615A63DA605A605C611C60E9
:101AB00070BCFFF765BD00BF00380240AFF3008087
:101AC000024AD36843F08003D3607047001401409A
:101AD000F8B5434E756FEF682B68DA059CB24FD4AA
:101AE000202383F3118814F02F0F08D129E0A006DA
:101AF00069681DD42C68A4B214F02F0F21D02307DD
:101B0000F5D014F0080F0CBF00218021E00748BF7A
:101B100041F02001A20748BF41F04001630748BFE0
:101B200041F480712F48FFF7C3F9A0066968E1D539
:101B3000C9B22B48FFF7E4FC2C68A4B214F02F0FB5
:101B4000DDD1002383F31188390601D5220626D47E
:101B5000630611D5202383F31188726CB36C20487F
:101B60009A4229D04FF6BF733B406FF04002EB60C2
:101B700000232A6083F31188BDE8F840FEF7E0BD3A
:101B8000202383F311884FF40071301DFFF790F983
:101B90006FF480732B60002383F31188A0E7202368
:101BA00083F311881048FFF703FB00280CDB686003
:101BB000002383F31188CBE7836B002BD2D0043052
:101BC0001021FFF775F9CDE706480821FFF770F9F6
:101BD0004FF63F733B4043F04003EB60E8E700BF44
:101BE000980900209C090020C8090020AFF300805C
:101BF00010B5044C044A20460021FFF751FC034B6A
:101C0000636710BD98090020C11A00080014014044
:101C100038B51F4C037A002918BF0C46012B054626
:101C200022D06B6F1B4A93422BD002F58062934205
:101C300027D02168184AB2FBF1F29A60A288E088A6
:101C4000218942F4045240F0400042F02C0241F05D
:101C5000010192B280B289B2002418615961DA6040
:101C60001C601A685B6838BD0C4B9842D9D10C4A8D
:101C7000536C43F02003536447200C21FFF780FC92
:101C8000CFE72168074AB2FBF1F29A60D6E700BFBE
:101C9000902300080010014060343C0298090020A5
:101CA00000380240C0687804AFF30080AFF30080D2
:101CB000FFF7BEBCAFF30080AFF30080AFF300804E
:101CC000704700BFAFF30080AFF30080AFF3008038
:101CD000F0B400F10B073C460D46B1FBF2F602FBF7
:101CE000161101F13003392BC8BF01F13703DBB204
:101CF00004F8013DB5FBF2F53146002DEDD13A1B5C
:101D0000024401E014F8013F00F8013B9042F9D190
:101D1000F0BC7047AFF30080AFF30080AFF30080FA
:101D20002DE9F04F87B015460DF10D0303AA9B1A5C
:101D300081468A4601934FF000088B469BF80010BD
:101D40000BF1010379B1252911D0D9F800209B4668
:101D50009268484690479BF8001008F101080BF183
:101D600001030029EFD1404607B0BDE8F08F9BF892
:101D700001202D2A03BF9BF802200BF102034FF034
:101D8000010A4FF0000A302A03BF5A780133302786
:101D90002027591C002606E02B7804359BF80020EC
:101DA00003EB40060131A2F13003DBB2092B8B4675
:101DB00006EB8600F2D92A2AEED02E2A4FF0000137
:101DC00043D002F0DF034C2B4ED0A2F14400342864
:101DD00000F2F780DFE810F0EA00F500F500F5000A
:101DE000F500EA00F500F500F500F500F500E80063
:101DF000F500F500F500F500F500DD00F500F50053
:101E0000F200F500F500F500F500F500F500F5002D
:101E1000F500F500F500A100EA00F500F500F50079
:101E2000F500EA00F500F500F500F500F500E80022
:101E3000F500F500F5007100F500DD00F500F50096
:101E4000F2002B78043503EB40011BF8012BA2F1C3
:101E50003003DBB2092B01EB8100F4D92A2AF0D040
:101E600002F0DF034C2BB0D19BF80030002B00F0C8
:101E7000A880A3F144020BF1010B342A00F2A080E8
:101E8000DFE802F0949E9E9E9E949E9E9E9E9E9251
:101E90009E9E9E9E9E879E9E9C9E9E9E9E9E9E9E7B
:101EA0009E9E9E4B949E9E9E9E949E9E9E9E9E92C5
:101EB0009E9E9E1B9E879E9E9C002C685A4B002CCB
:101EC00008BF1C4604352378002900F09480002BBD
:101ED00000F096800139204601E0013903D410F862
:101EE000013F002BF9D1001B361A431E202726EA9A
:101EF000E676BAF1000F1FD0002B009334DA002EE3
:101F00003FF41CAF3446D9F8003048469B68394648
:101F10009847013CF7D1B04410E72B688DF80C309E
:101F2000019B043518462027013B03AC361A26EAEC
:101F3000E676BAF1000FDFD10093C6F1000ABAF1DC
:101F4000000F45D021782D2947D05646D9F80030CA
:101F500048469B68394698470136F7D1009B002BCD
:101F6000CAEB0808FFF6EAAEDDF800A0D9F80030A9
:101F700014F8011B9B680AF1FF3A48469847BAF1EA
:101F8000FF3FF3D1009B08F10108002BA8BF984444
:101F9000B5E70A22296803A80435FFF799FE03ABC9
:101FA000C01A431E03ACC1E70822F3E729680029E1
:101FB00005F104052EDB03A80A22EEE71022E9E76B
:101FC0001A46019B8DF80C20184603AC013BADE787
:101FD000009B002B5646C7DAB0E6302FB5D1D9F8B2
:101FE000003048469B689847009B013B013408F14C
:101FF00001080093A9E747F6FE71002B7FF46BAF51
:1020000026EAE676BAF1000F0BD14FF0FF330093CA
:10201000202792E72D2349428DF80C300DF10D0059
:10202000CAE720276BE700BFA0240008AFF30080B9
:1020300004207047AFF30080AFF30080AFF300805F
:1020400000207047AFF30080AFF30080AFF3008053
:1020500008B5084600F04CF9012008BDAFF3008038
:1020600070B516463AB10D46144615F8010B00F04E
:102070003FF9013CF9D1304670BD00BFAFF300809D
:10208000014B0360704700BFB0240008AFF300802D
:1020900070B50178094D044639B12B6807489B6833
:1020A000984714F8011F0029F7D12B6803481B68D3
:1020B00003490222BDE87040184700BF980900207C
:1020C000E0240008AFF30080AFF30080AFF300809E
:1020D000274B284A9B692DE9F04FDFF8A8A09A61A9
:1020E000254BDFF8A4B000EB8005060983B003EBB5
:1020F000C50506F1FF38471E441CD1464FF0FF329C
:10210000284601A9FEF774FF42463EB1DBF80030D5
:10211000013A0133CBF80030531CF7D10199002963
:102120000CBF38462046032812D9DAF800300133B4
:10213000B3F5FA7F02D2C9F80030DFE70023C9F80F
:1021400000300E4B0D4A5B6983F040035361D5E7C5
:10215000094B00EB800003EBC0000022FEF7F8FE05
:1021600001900028CAD0064A01231370C6E700BFB9
:1021700000080020E4240008440F0020001802405A
:10218000300F0020400F00203C0F0020AFF30080F4
:102190000A4A08B5536983F400435361202383F34B
:1021A000118807480021FEF7E3FE10B1054B01221C
:1021B0001A70002383F3118808BD00BF000C024091
:1021C000BC0F0020300F0020AFF30080AFF3008081
:1021D0000A4A08B5536983F400735361202383F3DB
:1021E000118807480121FEF7C3FE10B1054B0122FB
:1021F0001A70002383F3118808BD00BF002002403D
:10220000440F0020300F0020AFF30080AFF30080B8
:102210000248036830219B68184700BF98090020D6
:1022200010B370B5114A84B06D466C46A2FB001322
:10223000DB0803EB8301A0EB410000F13001C9B2E0
:1022400004F8011B1846002BF0D1AC420AD9084E05
:10225000013C01E014F8011D336805489B6898476C
:10226000AC42F7D104B070BDFFF7D2BFCDCCCCCC1F
:1022700098090020AFF30080AFF30080AFF3008037
:102280000EB400B582B004AB1A4605490548019367
:10229000FFF746FD02B05DF804EB03B0704700BFE6
:1022A000EC240008380F0020AFF30080AFF300806B
:1022B000084A0949136843F0270313600B68DA07DB
:1022C00006D5064B1B68DB0702D5054B01221A60B9
:1022D000704700BF042004E0F0ED00E0000E00E0D5
:1022E000340F0020AFF30080AFF30080AFF3008025
:1022F000074B1B685BB1074B1B68DB0107D54FF031
:1023000060410B684FF06042002BFAD010707047AC
:10231000340F0020FCED00E0AFF30080AFF300804D
:1023200069646C650000000000000000000000000F
:102330006D61696E00160018040444080C1014182E
:10234000001C1D1E00000000000000000000000036
:1023500025730A0068616C5F6C6C645F696E6974F8
:102360000000000070616C496E697400000000009C
:1023700041140008211400088114000861140008A9
:1023800071140008511400083114000811140008D9
:102390000096000000000040000000000000000067
:1023A00028AA822A28002800FFFFFFFF54000040CF
:1023B000FFFF0000B00B56B50000000080200800B1
:1023C00040020000FFFFFFFF15455155FFFF0000D1
:1023D000000000044000000009AAA5000000000061
:1023E000FFFFFFFF50000054FFFC0000B000BB885F
:1023F000007706000001005500000000FFFFFFFF0E
:1024000055501500FF0F0000000000000000000004
:102410004000000000000000FFFFFFFF0000000080
:10242000FFFF0000000000000000000000000000AE
:1024300000000000FFFFFFFF00000000FFFF0000A2
:1024400000000000000000000010812800000000D3
:10245000FFFFFFFF00004014BFFE0000000000006F
:1024600000B0B00B0000000000000000FFFFFFFF05
:1024700000000000FFFF000000000000000000005E
:102480000000040000000000FFFFFFFF000000004C
:10249000FFFD000000000000000000000000000040
:1024A000286E756C6C290000000000000000000020
:1024B0006120000841200008512000083120000858
:1024C00040420F00912100080000000000000000C1
:1024D00040420F00D1210008000000000000000071
:1024E0000D0A0000776F726B6572000025730000A3
:1024F00053575620456E61626C65640A0000000007
:102500002A2A2A204B65726E656C3A2020202020F2
:10251000202000002A2A2A20436F6D70696C6564B0
:102520003A202020202000002A2A2A20436F6D70A4
:10253000696C65723A202020202000002A2A2A2077
:102540004172636869746563747572653A2000004E
:102550002A2A2A20436F72652056617269616E745F
:102560003A2000002A2A2A20506F727420496E6691
:102570006F3A2020202000002A2A2A20506C617403
:10258000666F726D3A202020202000002A2A2A201F
:102590005465737420426F6172643A2020200000F9
:1025A0002A2A2A2053797374656D20436C6F636BFC
:1025B0003A2000002A2A2A20497465726174696FE2
:1025C0006E733A20202000002A2A2A2052616E646D
:1025D0006F6D697A653A2020202000002A2A2A207F
:1025E000546872656164733A202020202020000026
:1025F0002A2A2A204D61696C626F782073697A6596
:102600003A200000497465726174696F6E200000A1
:1026100053617475726174656420617420000000F8
:10262000576F7273742063617365206174200000BA
:1026300043686962694F532056332E300A00000008
:102640002A2A2A2043686962694F532F525420492D
:1026500052512D53544F524D206C6F6E672064754C
:10266000726174696F6E2074657374002A2A2A007F
:10267000207553005465737420436F6D706C6574DE
:1026800065000000332E302E3064657600000000B7
:102690004D61792020382032303135202D203036E0
:1026A0003A34353A3234000047434320342E392E31
:1026B00033203230313431313139202872656C6544
:1026C00061736529205B41524D2F656D62656464BD
:1026D00065642D345F392D6272616E6368207265A6
:1026E000766973696F6E203231383237385D000099
:1026F00041524D76372D4D4500000000436F7274F6
:1027000065782D4D34000000416476616E63656428
:10271000206B65726E656C206D6F64650000000053
:1027200053544D333246343037204869676820505F
:102730006572666F726D616E63652077697468207B
:1027400044535020616E64204650550053544D69E7
:1027500063726F656C656374726F6E696373205327
:10276000544D333246342D446973636F7665727904
:042770000000000065
:0400000508000611D8
:00000001FF
