:020000040800F2
:1000000000040020D1190008411300084113000822
:100010004113000841130008411300084113000870
:100020004113000841130008411300082113000880
:100030004113000841130008411300084113000850
:100040004113000841130008411300084113000840
:100050004113000841130008411300084113000830
:10006000411300084113000841130008F112000871
:10007000C112000891120008611200083112000834
:1000800001120008D11100084113000841130008B3
:1000900041130008411300084113000841130008F0
:1000A00041130008411300084113000841130008E0
:1000B000810F000841130008411300084113000894
:1000C00041130008411300084113000841130008C0
:1000D00041130008D10E0008411300084113000825
:1000E00041130008411300084113000841130008A0
:1000F000411300084113000841130008A111000832
:10010000411300084113000841130008411300087F
:10011000411300084113000841130008411300086F
:10012000711100084111000811110008E1100008C8
:10013000B1100008411300084113000841130008E2
:10014000411300084113000841130008411300083F
:100150008110000851100008211000084113000808
:10016000411300084113000841130008411300081F
:10017000411300084113000841130008411300080F
:1001800041130008411300084113000841130008FF
:1001900041130008411300084113000841130008EF
:1001A00041130008411300084113000841130008DF
:1001B00041130008411300084113000841130008CF
:1001C0000E4A0F4913682DE9804843F02703136056
:1001D0000B68DB0787B01BD50A4B1B6813F0010FB8
:1001E000094B16D001221A60084C532002F0F0F996
:1001F00014F8010F0028F9D10EE000BF042004E03C
:10020000F0ED00E0000E00E058AE0020005B0008BA
:10021000BA4B1B68002BE7D1B948BA4BBA49BB4A65
:10022000036002F07DFDBA4BBA4C1A694FF0FF3102
:10023000002219611A61586959615A61186A60F09F
:10024000805018621A62586A59625A62196C41F0F9
:1002500080511964216841F480712160196F01F4A3
:100260004071B1F5007F03D04FF4803119671A67F0
:10027000A848A94C4268A94EA94D002122F4007259
:1002800042600B46894621600A46F1580A6045F8EB
:10029000392009F10109B9F1100F03F10C034FF0F6
:1002A0000004F2D19F4BA04FDFF864829F49A04A1F
:1002B0009348DFF8C0B2DFF8C0A29E4D4FF0FF3682
:1002C000BE60FE609E60DE6002F01AFDD8F830E08D
:1002D0009948DFF8A8C2994B99499A4A4EF09F0E67
:1002E000C8F830E0D8F850E04EF09F0EC8F850E063
:1002F0004460C0F808B04FF6DF7BC0F80CC04FF484
:10030000EE4EC0F814B0DFF878B2C0F820E04FF03D
:10031000553C43624FF6FF7EC0F800B04FF0800BB3
:10032000CAF80440884BCAF80860A7F5A047CAF885
:100330000CC08648CAF814E0CAF82040CAF8244025
:10034000CAF800B04FF6FF0A4C608E60C860C1F872
:1003500014A04FF4A8104FF0450A0C624C620860DC
:100360005460724996606648C2F80CC0C2F814E046
:100370001462546214607C60754ABE60C7F80CA0B9
:10038000C7F814E03C627C623C605C609E60DC60AC
:10039000C3F814E01C625C621C6002F0B1FCD8F887
:1003A00040C06C4A6C49DFF8DCE1547001274FF023
:1003B00080434CEA070C947017705460C8F840C032
:1003C0004FF0805C42F20F78C3F82880DE629C61B7
:1003D0005C63DC605C605F611F608EF81CB3CEF80C
:1003E00080C1CEF800C08C60D1F80C805B48DFF88B
:1003F00098C1DFF898B103F5883393604FF6FF0397
:1004000008EA03031843C860DCF80C306D60AEF5F1
:10041000514E43F08073CCF80C30DEF80030AC6005
:100420003B43CEF8003005F11C0C00220023684647
:100430004FF0200881F81F906D6181F82280C5F887
:1004400020C02D612D60C5F81CC0CDE904236E626B
:100450000096AC626C6701940294039402F028FA4F
:10046000684601F0DDFD3E4B3E483F4AD5F814E0BA
:10047000029EDFF81C91DFF81C816E6703F1100CFF
:1004800005F13001C3F814C0C3F810C040269C61C8
:1004900020F0070022F007029C60DC6005F1540C9C
:1004A000C3F800B005F1580385F84D40AC666C66A2
:1004B00085F84E70AC642D64C5F844E06961AE63A4
:1004C000EE66C9F80000CEF81010C8F80020A96147
:1004D00085F84C70C5F854C0EB65AB6584F31188A2
:1004E00062B6AB69214A9A61D8213A46204B05F1A0
:1004F000780002F0A5FB32464EE000BF58AE002067
:1005000038AE0020405B0008105B0008145B000858
:100510000038024000700040CCAF0020505B000863
:1005200018AB00200064024000600240C05900087F
:10053000245B0008A0AB00200000024070A70A0066
:1005400000080240000C0240001C0240555540517A
:10055000345B00083CAE002000ED00E00003FA052B
:1005600060AE00200FB0002000000220E05A00081A
:10057000510E0008AFFBEBFF00040240055101647F
:10058000A004A82A00E100E0F0ED00E0A10D0008C1
:10059000C8AF002098AB00200C4B0D484FF4A4715D
:1005A00002F04EFB52460B4B0B484FF4A47102F085
:1005B00047FB324609480A4B4FF4A47102F040FB56
:1005C00041F2883001F0DCFCFAE700BFC1200008EE
:1005D000D0A90020C1210008F0AC002080AE00208E
:1005E00001210008AFF30080AFF30080AFF300807B
:1005F0002DE9F04FC1F80CD0D0F80CD0BDE8F08F49
:10060000002383F311882846A04701F089FB01F0FD
:10061000E7FC00DFFEE70000000000000000000033
:10062000844641EA000313F003036DD1403A41D3FD
:1006300051F8043B40F8043B51F8043B40F8043BBC
:1006400051F8043B40F8043B51F8043B40F8043BAC
:1006500051F8043B40F8043B51F8043B40F8043B9C
:1006600051F8043B40F8043B51F8043B40F8043B8C
:1006700051F8043B40F8043B51F8043B40F8043B7C
:1006800051F8043B40F8043B51F8043B40F8043B6C
:1006900051F8043B40F8043B51F8043B40F8043B5C
:1006A00051F8043B40F8043B51F8043B40F8043B4C
:1006B000403ABDD2303211D351F8043B40F8043BEC
:1006C00051F8043B40F8043B51F8043B40F8043B2C
:1006D00051F8043B40F8043B103AEDD20C3205D3FC
:1006E00051F8043B40F8043B043AF9D2043208D0F4
:1006F000D2071CBF11F8013B00F8013B01D30B8866
:1007000003806046704700BF082A13D38B078DD043
:1007100010F003038AD0C3F10403D21ADB071CBF15
:1007200011F8013B00F8013B80D331F8023B20F87F
:10073000023B7BE7043AD9D3013A11F8013B00F8B8
:10074000013BF9D20B7803704B7843708B78837040
:10075000604670470000000000000000000000003C
:100760004BB942B9002908BF002802D04FF0FF3131
:10077000084600F03DB882B0EC462DE9005000F08C
:100780001FF8DDF804E002B00CBC70470000000068
:100790002DE9F041069C154606460F46984600F0A6
:1007A0002FF805FB01F300FB0838A5FB0023B21A64
:1007B000434467EB0303C4E90023BDE8F08100BFB5
:1007C0002DE9F041069C904606460F461D4600F076
:1007D00067F900FB05F5A0FB082308FB0155B21AD9
:1007E0002B4467EB0303C4E90023BDE8F08100BF9D
:1007F000704700BF00000000000000000000000083
:1008000000292DE9F043C0F2A6800026002BC0F29B
:100810009C80884694469E46154604460F46002B0B
:100820003DD18A4259D9B2FA82F33BB1C3F12002D9
:100830009F4020FA02F29D4017439C40290C220C55
:10084000B7FBF1FEA8B201FB1E7742EA074700FBA7
:100850000EF3BB420AD97F190EF1FF3280F00581F9
:10086000BB4240F20281AEF1020E2F44FF1AA4B245
:10087000B7FBF1F301FB137744EA074700FB03F0F2
:10088000B84208D97F1903F1FF3280F0F080B842F6
:1008900040F2ED80023B43EA0E43002203E08B422C
:1008A0000FD900221346341C18BF012460424FF0B8
:1008B000000565EB45015840514000196941BDE80C
:1008C000F083B3FA83F2002A40F086808B4202D391
:1008D000844500F2DB800123E5E712B90123B3FB75
:1008E000F2F5B5FA85F000283BD1781B4FEA154E9A
:1008F0001FFA85FC0122B0FBFEF8210C0EFB180745
:1009000041EA07470CFB08F3BB4207D97F1908F1FE
:10091000FF3102D2BB4200F2BD808846FF1AA4B26A
:10092000B7FBFEF30EFB137744EA07470CFB03FC0F
:10093000BC4507D97F1903F1FF3102D2BC4500F253
:10094000A7800B4643EA0843ADE752426FEA06062A
:1009500063EB43035DE7404261EB41014FF0FF363B
:1009600054E7C0F1200224FA02F107FA00F38540AF
:100970004FEA154ED7401943B7FBFEF20B0C0EFBA6
:1009800012771FFA85FC43EA07430CFB02F79F42EC
:1009900004FA00F407D95B1902F1FF3074D29F42C8
:1009A00072D9023A2B44DF1B89B2B7FBFEF80EFB6B
:1009B000187341EA03430CFB08F79F4208D95B19FF
:1009C00008F1FF315CD29F425AD9A8F102082B44AA
:1009D000D81B48EA02428EE7C2F120032CFA03F149
:1009E0000EFA02FE20FA03F741EA0E0E08FA02F0B0
:1009F00028FA03F14FEA1E453843B1FBF5F8030C22
:100A000005FB18111FFA8EF743EA014107FB08F3B3
:100A10008B420CFA02FC09D911EB0E0108F1FF39E7
:100A200030D28B422ED9A8F102087144C91A80B283
:100A3000B1FBF5F305FB131140EA014107FB03F796
:100A40008F4208D911EB0E0103F1FF3016D28F420D
:100A500014D9023B714443EA0843C91BA3FB0C8928
:100A6000494509D305D000221DE79646FEE6134608
:100A700011E794404445F6D2013BF4E70346EAE728
:100A80008846A5E7C846D1E702468CE713460AE741
:100A9000023B57E7A8F102082F443FE7000000009F
:100AA0002DE9F041002B44D18A42154604464FD926
:100AB000B2FA82F70E464FB1C7F12003B94020FACF
:100AC00003F602FA07F50E4300FA07F44FEA154E53
:100AD000230CB6FBFEF0AFB20EFB106143EA0143FC
:100AE00007FB00F1994209D95B1900F1FF3280F050
:100AF000EC80994240F2E98002382B445A1AA4B2A1
:100B0000B2FBFEF30EFB132244EA024207FB03F79B
:100B1000974208D9521903F1FF3180F0D8809742EB
:100B200040F2D580023B43EA004000263146BDE852
:100B3000F0818B4247D8B3FA83F6002E48D18B421E
:100B400002D3824200F2CD8001203146BDE8F0811F
:100B500012B90125B5FBF2F5B5FA85F8B8F1000F29
:100B600077D14A1B4FEA154EAFB20126B2FBFEF019
:100B7000230C0EFB102143EA014107FB00F38B42DB
:100B800007D9491900F1FF3202D28B4200F2BA8034
:100B90001046C91AA4B2B1FBFEF30EFB131144EACE
:100BA000014407FB03F7A74208D9641903F1FF3298
:100BB00080F08F80A74240F28C80023B43EA0040E5
:100BC0003146BDE8F081002630463146BDE8F0816F
:100BD000C6F1200422FA04F5B3402B4320FA04FCAA
:100BE00001FA06F721FA04F54FEA134E4CEA07071B
:100BF000B5FBFEF8390C0EFB18551FFA83FC41EAD1
:100C000005450CFB08F1A94202FA06F204D9ED18D9
:100C100008F1FF3467D3A0466D1ABFB2B5FBFEF4EE
:100C20000EFB145547EA05410CFB04FC8C4504D926
:100C3000C91804F1FF355CD32C4644EA0844CCEBD8
:100C40000101A4FB0223994248D344D02046002648
:100C50006CE7C8F1200401FA08F305FA08F520FA58
:100C600004F7E1404FEA154E1F43B1FBFEF63A0C84
:100C70000EFB16111FFA85FC42EA01430CFB06F23B
:100C80009A4200FA08F407D95B1906F1FF3137D20E
:100C90009A4235D9023E2B449B1ABFB2B3FBFEF0F9
:100CA0000EFB103347EA03430CFB00F1994207D9CE
:100CB0005B1900F1FF3221D299421FD902382B442F
:100CC0005A1A40EA0646674650E7104616E70B46B2
:100CD00029E7134672E7B0409042B7D2601E002663
:100CE00024E7304622E7A94295D9A8F102081D441D
:100CF00092E78C45A0D9023C19449EE71046DFE7F5
:100D00000E46C9E70238294443E700BF000000004F
:100D10001E4B1B7883B90B88012B01D80320704729
:100D200070B41B4B19795A799C78DB7852EA01220E
:100D300004D1032070BC7047002070474178B1EBAC
:100D4000420FF6D143EA04210A44124BB2F5167F52
:100D50001B7819DC104D5C1E4FF49666043093B27C
:100D600006FB045510F8022C120225F8112010F889
:100D7000014C4E1C224325F81120B1B2994200F1DA
:100D80000200EFD10020D5E70220D3E7F85C002075
:100D9000CCA80020A9A800208C100020AFF3008070
:100DA00010B4202383F31188094C0A4B2268196878
:100DB000C31D23F00703891A8B429DBF9B18236034
:100DC00010460020002383F311885DF8044B704720
:100DD000C8AF002098AB0020AFF30080AFF30080D5
:100DE00010B4202383F31188037F072B0ED8DFE88C
:100DF00003F0270D0D2308040D08026A93680133E0
:100E0000936090E80C001A60026853604FF0FF3462
:100E1000002281680D4B046202771B689A688A423F
:100E2000FBD25A684260036000215860106081F371
:100E300011885DF8044B7047036A00221A60E5E7E9
:100E4000002383F311885DF8044B7047A0AB0020AA
:100E5000024B034A9B699A61FEE700BFA0AB0020EA
:100E600090550008AFF30080AFF30080AFF300802F
:100E7000202383F311880F4B5B6813F4006302D1C6
:100E800083F311887047EFF309834FF0807243F8C2
:100E9000042CA3F1200282F30988074A11689269A1
:100EA0008968926891428CBF044A054A43F8082C2D
:100EB000704700BF00ED00E0A0AB00200F06000867
:100EC00012060008AFF30080AFF30080AFF300809C
:100ED000F8B5294EB7683C6840F20F132340CBB1F8
:100EE00073681B69B3B114F0080F0CBF0021102107
:100EF000E00748BF41F00401A20748BF41F00801E4
:100F0000650748BF41F02001E00548BF41F04001BE
:100F100019489847FD68AA0601D5A30623D42806D8
:100F200001D5210613D46A060DD563060BD5134AE5
:100F300073684FF4807151835B680BB10E4898471A
:100F400025F04005FD60BDE8F840FFF791BF7368EC
:100F50001B680BB1084898477378074A022B04BFF7
:100F600000235370DFE773680348DB68002BD6D09B
:100F7000818989B29847D2E73CAE00200008024040
:100F80002DE9F8434FF0804400202061202585F3AF
:100F90001188DFF87C90616AD9F81C30D9F828E014
:100FA0009A68CEEB0106964238BF09F11C061CD3A5
:100FB000804609F11C061968DF687244C9F82820C8
:100FC0004E60C9F81C10C3F80C8088F311881869AA
:100FD000B84785F31188D9F81C30616AD9F828E040
:100FE0009A68CEEB01009042E5D2B3424FF08043C5
:100FF0000BD0012A14BF52188A1C5A63002383F3B2
:101000001188BDE8F843FFF733BF0022DA60F5E747
:10101000A0AB0020AFF30080AFF30080AFF30080FF
:10102000084B09485968826F890D01F03D0110B5E0
:101030008C05DC600AB1C06F9047BDE81040FFF737
:1010400017BF00BF0064024018AB0020AFF3008060
:10105000084B09485968026F090C01F03D0110B5B1
:101060000C04DC600AB1406F9047BDE81040FFF708
:10107000FFBE00BF0064024018AB0020AFF3008049
:10108000084B09485968826E890901F03D0110B585
:101090008C01DC600AB1C06E9047BDE81040FFF7DC
:1010A000E7BE00BF0064024018AB0020AFF3008031
:1010B00008B5074B07485968026E01F03D01D96039
:1010C0000AB1406E9047BDE80840FFF7D1BE00BFAF
:1010D0000064024018AB0020AFF30080AFF3008043
:1010E000084B09481968826D890D01F03D0110B562
:1010F0008C059C600AB1C06D9047BDE81040FFF7B9
:10110000B7BE00BF0064024018AB0020AFF3008000
:10111000084B09481968026D090C01F03D0110B532
:101120000C049C600AB1406D9047BDE81040FFF789
:101130009FBE00BF0064024018AB0020AFF30080E8
:10114000084B09481968826C890901F03D0110B506
:101150008C019C600AB1C06C9047BDE81040FFF75D
:1011600087BE00BF0064024018AB0020AFF30080D0
:1011700008B5074B07481968026C01F03D019960FA
:101180000AB1406C9047BDE80840FFF771BE00BF50
:101190000064024018AB0020AFF30080AFF3008082
:1011A000084B09485968826B890D01F03D0110B563
:1011B0008C05DC600AB1C06B9047BDE81040FFF7BA
:1011C00057BE00BF0060024018AB0020AFF30080A4
:1011D000084B09485968026B090C01F03D0110B534
:1011E0000C04DC600AB1406B9047BDE81040FFF78B
:1011F0003FBE00BF0060024018AB0020AFF300808C
:10120000084B09485968826A890901F03D0110B507
:101210008C01DC600AB1C06A9047BDE81040FFF75E
:1012200027BE00BF0060024018AB0020AFF3008073
:1012300008B5074B07485968026A01F03D01D960BB
:101240000AB1406A9047BDE80840FFF711BE00BFF1
:101250000060024018AB0020AFF30080AFF30080C5
:10126000084B094819688269890D01F03D0110B5E4
:101270008C059C600AB1C0699047BDE81040FFF73B
:10128000F7BD00BF0060024018AB0020AFF3008044
:10129000084B094819680269090C01F03D0110B5B5
:1012A0000C049C600AB140699047BDE81040FFF70C
:1012B000DFBD00BF0060024018AB0020AFF300802C
:1012C000084B094819688268890901F03D0110B589
:1012D0008C019C600AB1C0689047BDE81040FFF7E0
:1012E000C7BD00BF0060024018AB0020AFF3008014
:1012F00008B5074B074A196801F03D01996013686A
:101300000BB150689847BDE80840FFF7B1BD00BF7A
:101310000060024018AB0020AFF30080AFF3008004
:10132000EFF30983203383F30988002383F31188C3
:10133000704700BFAFF30080AFF30080AFF30080D1
:10134000FEE700BFAFF30080AFF30080AFF3008093
:1013500038B5364B364A4FF400704FF480615883ED
:1013600059831378DBB2022B41D0032B36D073B1F3
:10137000137803F0FF047BB11378022B05D01378A8
:10138000032B02D01378012B48D1002404E0294913
:10139000294B01240C701C700121284B11701A7804
:1013A000022A0ED1264A127802F0FF006AB3002208
:1013B0001A7001F05DF9234B1B78022B1DD02046DB
:1013C00038BD1A78022AF2D01A78002AEFD01E48C7
:1013D0001E4A1F4B40F2911101F0D2FC1D4D1548E1
:1013E000154B012410212C7004701970D4E711489A
:1013F0001149012404700B70CEE70E490E4B0124F5
:1014000004220C701A70204638BD124D094C0A4A4D
:1014100028701020217010700C46C8E70A480B4A4B
:101420000D4B40F27D1101F0ABFC00BF0008024003
:10143000B35C0020F95C0020C8A80020B25C00204A
:10144000F85C0020C85C0020985500083055000862
:1014500048560008A8A80020B8550008AFF300803F
:101460002DE9F843204E33889BB2FF2B35D83388C3
:101470009BB2032B02D80520BDE8F88333889BB2CA
:1014800003F1FF3E1FFA8EFE002BF4D0174BDFF85E
:101490007090DFF870800EF1010EFF279C469E448D
:1014A0001D463B4615F8014B5C40754519F8043064
:1014B00083EA070318F80470F4D143EA07231BB248
:1014C000002BD8D19CF8007034880770084DE01EBE
:1014D000108018460D60BDE8F8830648064A074BA1
:1014E000A42101F04DFC00BFB05C00208C5B00200B
:1014F0008D5B002098550008705500089056000834
:101500006058000860570008AFF30080AFF3008018
:10151000102801D902207047F8B5234B1B78DBB2A5
:10152000012B01D00520F8BD204C214D238001F86E
:10153000010C238812FA83F292B22280228892B29E
:10154000531E481E9BB2286052B3FF25194F1A4EF6
:1015500019442A4610F8013B53408842FA5C82EA5B
:101560000502F55CF6D142EA0522D0B2C2F30722A9
:101570002388124E124F9BB2591C89B22180F0541D
:1015800023889BB24FF0010E5D1CADB27146002066
:101590002580F25487F800E001F0BAF80020F8BD89
:1015A000FF221046E4E700BFB35C00208C5C002003
:1015B000B85C00206058000860570008CCA80020E4
:1015C000B25C0020AFF30080AFF30080AFF3008087
:1015D00008B50020014601F09BF8BDE8084001F085
:1015E00047B800BFAFF30080AFF30080AFF30080D7
:1015F000F8B51F4C237813B12378022B32D11D4B41
:101600001D4E1B689B685A683378D5B2032B11D8DE
:10161000DFE803F00E12020E184A13889BB2FF2B6C
:101620001DD8138816489BB2591C89B21180C55425
:1016300001F046F80020F8BD01F01AF80F4A104FEB
:1016400000232370138013889BB2591C89B2022097
:101650001180FD54307001F033F80020F8BD0323F1
:101660003370E5E70748084A084BEF2101F088FB93
:10167000B25C0020CC5C0020B35C0020B05C002099
:101680008C5B002098550008F0540008BC560008F8
:1016900008B5054A002319460120137001F038F8F7
:1016A000BDE8084001F00CB8B35C0020AFF3008047
:1016B00001230B8000207047AFF30080AFF3008060
:1016C000214B1B78CBB90B88012B16D92DE9F041A2
:1016D0001E4B41781D795C7993F80280DF7893F88E
:1016E00006C0DE7993F808E05A7A44EA0524B1EBA3
:1016F000440F04D00320BDE8F0810020704746EA83
:101700000C210131054689B203F10B0042EA0E2299
:10171000012301F095F8034628B1072B11D80C4A94
:10172000D05CBDE8F08147EA0821013189B2A81CEC
:10173000224601F085F803460028EED10020BDE8DE
:10174000F0810420BDE8F081F85C0020CCA80020E6
:1017500010550008AFF30080AFF30080AFF30080B6
:1017600038B5134B1A7802F0FF03EAB90A88012A48
:1017700001D8032038BD0F490C794A798D78C97892
:1017800052EA0422F5D04478B4EB420FF1D141EA99
:101790000521013189B2023001F052F820B1072849
:1017A00004D8054B185C38BD002038BD042038BD76
:1017B000F85C0020CCA8002010550008AFF3008092
:1017C00038B50B88052B04D0104B1B780BB90320C0
:1017D00038BD0F480279437981798578C47843EA26
:1017E0000222B1EB420FF2D144EA0521013189B264
:1017F0000730012301F024F800B938BD072802D8CA
:10180000044B185C38BD0420F7E700BFF85C0020EB
:10181000CCA8002010550008AFF30080AFF3008083
:1018200008B50B88052B01D0032008BD83784178CB
:1018300043EA01210131012289B20330134600F04D
:10184000FFFF00B908BD072802D8024B185C08BD8D
:101850000420F7E710550008AFF30080AFF30080D5
:101860000B88052B10B504D0144B1B780BB9032043
:1018700010BD0379C278124944788979807843EAA7
:10188000022253070ED0D3080133DBB29942EED1C6
:1018900040EA0421013189B20A48012300F080FFA7
:1018A00028B910BD002AE2D0C2F3C703EEE707282B
:1018B00002D8054B185C10BD0420F2E7F85C00204C
:1018C000CCA80020D3A8002010550008AFF300805A
:1018D0000B88052B01D0032070470379417882786B
:1018E000002BF8D110B5C478601EC0B2FD2882B0BC
:1018F00002D8032002B010BDFF2C42EA01228DF86D
:10190000053002F1010108BF012301228DF80430E6
:1019100089B2134601A800F043FF0028EAD0072847
:1019200002D8024B185CE5E70420E3E710550008F5
:1019300038B5174B1B780BBB0B88012B01D8032044
:1019400038BD14494B790A798C78C97843EA022268
:10195000530715D0D3080133DBB245789D42EED151
:1019600041EA0421013189B20230002300F018FF5E
:1019700020B1072809D8084B185C38BD002038BDB5
:10198000002ADCD0C2F3C703E7E7042038BD00BF5C
:10199000F85C0020CCA8002010550008AFF30080B0
:1019A000074B30B41A689969146808770125636099
:1019B00015771C60104630BC9A61FEF719BE00BF57
:1019C000A0AB0020AFF30080AFF30080AFF3008046
:1019D00072B6524880F30988022383F31488BFF358
:1019E0006F8F4F494F4B4FF080544FF440420C647F
:1019F0001A600B6843F001030B600A68484B9507B7
:101A0000FBD59A6822F003029A609A689A60194698
:101A10008B68434A13F00C03FAD1116801F0F90105
:101A200011609360536F43F001035367536F3C4958
:101A30009C07FBD53C4B4B600B683A4A43F08073E4
:101A40000B6053685904FCD535490A68344B920140
:101A5000FBD5364A3649996040F2037111609A68A5
:101A600042F002029A601A4693682D4903F00C0373
:101A7000082BF9D14C6C2F4B2F4A44F480444C6412
:101A80004C6E934244F480444C660BD2D9430A44D2
:101A900022F0030204321A444FF0553143F8041B7C
:101AA0009342FBD1254B83420CD2254A191D521A71
:101AB00022F0030204321A444FF0553143F8041B5C
:101AC0009342FBD11F4A204B9A420CD2D043184478
:101AD00020F003001D4B0430184453F8041B42F857
:101AE000041B8342F9D11A4B1A4A93420AD2D943B2
:101AF0000A4422F0030204321A44002143F8041B72
:101B00009342FBD1144C154DAC4204D254F8043B23
:101B10009847AC42FAD3FEF753FB00BF0008002001
:101B2000003802400070004010640108003C024090
:101B300000100838000000200004002000040020ED
:101B400003080020000800208C100020B85C00086A
:101B50008C10002008B00020C0010008C00100085F
:101B6000082AF8B5164616D8CC080122A518B240A6
:101B7000475D065D013AA1EBC40192B28A4046EA94
:101B8000072689B28B4026EA02021A4392B2130A50
:101B900002554355F8BD0348034A044B382101F070
:101BA000EFF800BF04570008205500082C57000824
:101BB000324B1B78BBB90B88012B01D8032070472F
:101BC0002DE9F04F2E4A117953799778D47843EA6A
:101BD000012313F0070683B007D1002B4BD103205C
:101BE00003B0BDE8F08F00207047DD086A1CD2B258
:101BF00041789142F3D144EA0724224A22491278DB
:101C000009882344102B34DC641A204BA4B2013A17
:101C1000A9B24FEAD40B009103EB420804F0070489
:101C200000F1020AD1B14B1E9BB203F103098144BA
:101C300001935546584615F8013B471C2146404440
:101C40000822FFF78DFFBFB24D453846F3D1009B08
:101C50009B44019B01331FFA8BFB9A443EB108EB76
:101C60000B00214632469AF80030FFF779FF00203A
:101C7000B6E70220B4E7DD08EAB2B9E7F85C002075
:101C8000CCA80020A9A80020B45C0020905C002013
:101C900001207047AFF30080AFF30080AFF3008006
:101CA00010B51046144600213C2203F011F84FF401
:101CB00000536360002010BDAFF30080AFF30080DD
:101CC00010B504460846FFF76BF800B110BD0C23B1
:101CD00023604FF0FF3010BDAFF30080AFF3008002
:101CE00000207047AFF30080AFF30080AFF30080B7
:101CF00018467047AFF30080AFF30080AFF3008069
:101D000000207047AFF30080AFF30080AFF3008096
:101D1000162303604FF0FF30704700BFAFF3008021
:101D200070B4202383F31188134B9D696C6A286279
:101D300005F12400844218BF002610D022680E4B03
:101D4000A1686A6226771B689A688A42FBD25A6841
:101D5000626023605C6014606C6A8442EED16B7FC9
:101D60009B0704D16B692A691A612A6953610F20A4
:101D700070BCFFF715BE00BFA0AB0020AFF3008022
:101D800002688368916830B4134C4568194423464F
:101D900091602A60016853F81C2F4D609A424FF001
:101DA00000014FF0FF35C160656210D09368012BD0
:101DB00006D9A26A4FF0804113444B6330BC704790
:101DC000A36A4FF080420233536330BC70474FF038
:101DD0008043D960F2E700BFA0AB0020AFF30080E2
:101DE000F0B51A4D2E464FF0804756F81C4FC26092
:101DF000012998BF0221B44203617A6A1BD0AE6AFE
:101E0000A368921B1144994203D211E02468C91AB5
:101E1000A3688B42FAD36368436004606060186013
:101E20008160A3684FF0FF32591AA1606A62F0BD69
:101E30000E447E63EDE78B18AA624FF0000E7B63C1
:101E400002266B6AC7F810E0FE60E2E7A0AB002054
:101E500038B53A4B1878C0B2012868D1384C23788D
:101E600003F0FF01002B33D001292FD1354A13880D
:101E70009BB28BBB344A354D1278B2FA82F20846D7
:101E8000520919462A7000F043FC022323702A7875
:101E9000012A31D02E4B4FF480621A83202383F322
:101EA00011882C4CE3683BB12046FFF769FFE368DB
:101EB00013B12046FFF764FF2648274A41F28831D4
:101EC0000023FFF78DFF002383F31188002038BD26
:101ED00000F01EFC002038BD2048214B01681C6822
:101EE00011F8013BA4680160DBB263601388013B19
:101EF0009BB21380002038BD1A4920220B7082F358
:101F00001188194CE3683BB12046FFF739FFE368BD
:101F100013B12046FFF734FF13480F4A4FF4FA611C
:101F20000023FFF75DFF002383F31188CEE70F48FE
:101F30000F4A104B40F2331100F022FFB35C002037
:101F4000B25C00208C5C0020CCA80020F85C002053
:101F500000080240E45C002091200008B85C0020EA
:101F6000CC5C0020C85C0020B4A800209855000874
:101F7000505500083C570008AFF30080AFF30080D5
:101F800000B5202387B083F31188431C14D00F4B76
:101F90000F4A9B69014601A8FFF722FF0820FFF7BF
:101FA000FFFC049B13B101A8FFF7EAFE002383F3B3
:101FB000118807B05DF804FB0820FFF7F1FC00234F
:101FC00083F3118807B05DF804FB00BFA0AB0020CD
:101FD000E10D0008AFF30080AFF30080AFF30080A5
:101FE0000D4A106870B403689469136001260025D7
:101FF000A1685A6006779061257700E01B689A68AF
:102000008A42FBD85A686260236021465C60146093
:1020100070BCFEF7EDBA00BFA0AB0020AFF30080AC
:102020000E4B0F495A688368F0B44F6FC668416819
:10203000D0E90445D31ADB1BE41845F1000501364D
:102040008B42C6608360C0E9044505D802689342AC
:1020500038BF0360F0BC70474360FBE7001000E04E
:10206000A0AB0020AFF30080AFF30080AFF300809F
:1020700000207047AFF30080AFF30080AFF3008023
:1020800004207047AFF30080AFF30080AFF300800F
:10209000014B1B68184700BFC05C0020AFF30080F5
:1020A000014B1B68184700BF84A80020AFF30080D5
:1020B000014B1B68184700BFD45C0020AFF30080C1
:1020C00008B5094B094A9B69094C9A6120252E469F
:1020D000668340F6B830FFF753FF258340F6B830EB
:1020E000FFF74EFFF4E700BFA0AB002060590008E7
:1020F00000000240AFF30080AFF30080AFF3008038
:102100002DE98848204B214A9B69214DDFF8A0909A
:10211000DFF8A0801F4F204E9A614FF00A0A14206A
:1021200089F805001D4885F800A0052103220180DB
:102130001B4989F80120012293230A70194A89F862
:10214000033000240823137089F8024089F8044002
:102150000A234FF4167B00E02B78B8F800201248D1
:1021600012492244013B0BFB0323013437F813309F
:1021700000F0F6FD3388A4B2A342EDD242F234104F
:10218000FFF7FEFECBE700BFA0AB002068590008B8
:10219000A9A80020FC5C0020D85C0020ACA800208E
:1021A000F95C0020C8A8002038AE0020785900084B
:1021B000CCA80020E05C0020AFF30080AFF30080EB
:1021C000AC4BAD4A9C69AD4EDFF830C3DFF830A3AD
:1021D000DFF83083AA4DAB49AB48AC4BDFF828930E
:1021E0002DE98048AA4FA761AA4F1760AA4ADFF8D5
:1021F0001CE3AA4CCCF8009014603360DFF8109315
:10220000DFF810C3A64FA74AC8F8009000234FF488
:1022100096444C6183B0CAF80030CEF800C02F60FD
:102220000260202484F3118810785160012800F0A6
:10223000798193689C4C0020A342D8604C69186156
:102240009070586150700CBF98489948B0FBF4F0FA
:10225000986088690C6ACD691968596840F404511E
:1022600045F0400544F00100002741F02C01022414
:102270001F601D6114705861D96087F311888D4B00
:10228000DFF894E28C4C8D4D8D488E498E4A4FF488
:10229000007C4FF02808A3F800800123AEF81AC094
:1022A00023702F7000F03CFD2378012B00F0DC80C0
:1022B000864A83488349DFF83C82854EDFF85CA27A
:1022C000DFF820927D4F00F02BFD03E04FF47A7091
:1022D000FFF756FE2378002BF8D12A78002AF5D094
:1022E00032783B70931E0E2BF0D801A252F823F0E7
:1022F00085230008CD22000847230008CD220008CE
:10230000CD220008CD2200082D230008CD22000890
:10231000CD220008CD220008CD220008CD220008E1
:10232000CD220008CD220008B1230008694B9AF89D
:1023300000001A88684BC9F800304F4B66491B688B
:1023400092B29847C2E7D9F80000644B0178DFF8F1
:10235000A8E1197001238EF800300B0639D4002350
:1023600018F833204FEAC30E01331AB1914247D017
:10237000102BF5D15A49022301220B7010232A7029
:102380003370A3E7DFF898B1434B56491B68564AB0
:102390005846984728B99BF800309AF800209A428E
:1023A00051D04F49012310220B702B7032708DE7F2
:1023B0004B4B494A1B78C9F80020012B1AD012D385
:1023C000022B83D1434B01221B882A7000233370D8
:1023D0007CE740788EF800000028CBD10122202332
:1023E0002A70337072E73B490122402309882A7022
:1023F00033706BE737492B7080220988327065E7AC
:102400003A4B3B491A7801230B700AB3394A964478
:10241000304ADEF804100191334912880A809B4645
:1024200001E0D9F800008AF800B0019B2E499847D6
:102430000BF1010B304BBBF1110F1870F1D12C4A8D
:1024400000231370C8E7012204232A7033703DE78C
:10245000284B25499E44DEF804309847264B244AF1
:10246000187000231370B7E7336898472770164A2F
:102470001FE700BFA0AB002088A80020B0A8002064
:10248000C05C002000080020CC5C002091160008F1
:10249000A459000811150008DC5C00206114000834
:1024A000511300083CAE00200010014000E1F5058A
:1024B00080F0FA02E25C002024080020F95C002091
:1024C00038AE0020B0590008905900089C59000807
:1024D000C8A80020ACA80020CDA80020AAA80020F1
:1024E000A8A80020C45C002080A80020F85C002080
:1024F000BC5C0020605A0008D05C0020FCA70020D3
:10250000A4A8002084A80020D1150008D45C0020D5
:10251000F1150008511E000800080240A9A800207B
:10252000A0A80020084F09487D6C936145F0100574
:102530004FF0C00E7D6480F825E3C0F8844144600C
:102540009381938275E600BF0038024000E100E00D
:10255000CB0710B50C461FD4880723D4610715D4C8
:1025600022070DD4E3061248124904D4124ABDE8EA
:10257000104000F0E5BB114ABDE8104000F0E0BBA0
:102580000C490F4A0A4800F0DBFBEBE709490D4A0A
:10259000074800F0D5FBE3E706490B4A044800F082
:1025A000CFFBDBE70349094A014800F0C9FBD5E747
:1025B00038AE0020C0590008045A0008F459000839
:1025C000E8590008DC590008C4590008D05900082F
:1025D000074B1B685BB1074B1B68DB0107D54FF04E
:1025E00060410B684FF06042002BFAD010707047CA
:1025F00058AE0020FCED00E0AFF30080AFF30080A8
:1026000070B516463AB10D46144615F8010BFFF7A2
:10261000DFFF013CF9D1304670BD00BFAFF3008051
:1026200008B50846FFF7D4FF002008BDAFF30080CF
:10263000704700BFAFF30080AFF30080AFF30080BE
:1026400001207047AFF30080AFF30080AFF300804C
:1026500072B6024B024ADA62FEE700BFA0AB00206E
:10266000105A0008AFF30080AFF30080AFF3008092
:1026700008B50E4B4FF400724FF480615A8320224C
:10268000598382F311880A48C3680BB1FFF778FBBE
:102690000848C3680BB1FFF773FB0748C3680BB169
:1026A000FFF76EFB002383F3118808BD000802408A
:1026B0008CA80020B4A80020E45C0020AFF30080C8
:1026C0000F4B104A00204FF4007110B518702023F2
:1026D000118383F311880C4CE3683BB12046FFF76C
:1026E0004FFBE36813B12046FFF74AFB0648074A51
:1026F00014210023FFF774FB002383F3118810BD1E
:10270000C85C0020000802408CA80020912000082E
:1027100038B51B4B1B689C680D46E368B8B143F0A5
:10272000200318481849194AE36000F009FBC5B9AD
:10273000E36814481449164A23F08003E360E36811
:1027400043F04003E360BDE8384000F0F9BA23F0FD
:1027500020030C480C490F4AE36000F0F1FA002D09
:10276000E6D00D4B074808490C4A4FF480751D838D
:10277000E36843F08003E360BDE8384000F0E0BA6E
:10278000CC5C002038AE0020C0590008185A000860
:10279000485A0008285A000800080240385A000821
:1027A0002DE9F04F01398DB21746214BAA18402A66
:1027B00083B01B7838DC1F4E013B06EBC306FB08D9
:1027C0004FEAD50B814605F0070500931AD0013B6F
:1027D0009BB200EB030800F1FF3A019358461AF848
:1027E000013F441C294630440822FFF7B9F9A4B23E
:1027F000C2452046F3D1009B9B44019B01331FFA45
:102800008BFB994417F0070203D1104603B0BDE8D3
:10281000F08F06EB0B00294699F80030FFF7A0F97E
:10282000002003B0BDE8F08F012003B0BDE8F08FB9
:10283000A9A8002000A80020AFF30080AFF300801B
:1028400070B4013989B2144C144B22808E18B6F53D
:10285000167F1B781DDC124C2180BAB1114A013B56
:102860004FF496640230B6B204FB032410F8023C25
:102870001B0224F8113010F8012C4D1C134324F8CE
:102880001130A9B2B14200F10200EFD1002070BCBA
:102890007047012070BC7047D85C0020A9A80020B8
:1028A000E05C0020FC5C0020AFF30080AFF3008010
:1028B000014B5B6883607047001000E0AFF300805D
:1028C000F0B400F10B073C460D46B1FBF2F602FBFB
:1028D000161101F13003392BC8BF01F13703DBB208
:1028E00004F8013DB5FBF2F53146002DEDD13A1B60
:1028F000024401E014F8013F00F8013B9042F9D195
:10290000F0BC7047AFF30080AFF30080AFF30080FE
:102910002DE9F04F87B00DF10D0303AA9B1A4FF07C
:10292000000882460D460193CDF800809AF8001009
:102930000AF1010391B1252916D0DFF8F882009A37
:10294000D8F800009A468468013240460092A047B9
:102950009AF800100AF101030029ECD1DDF800809B
:10296000404607B0BDE8F08F9AF801202D2A03BF3A
:102970009AF802200AF1020301270027302A03BF38
:102980005A78013330242024591C002606E02B7885
:1029900004359AF8002003EB40060131A2F1300320
:1029A000DBB2092B8A4606EB8600F2D92A2AEED042
:1029B0002E2A4FF0000143D002F0DF034C2B4ED003
:1029C000A2F14400342800F20481DFE810F0F7009F
:1029D0000201020102010201F700020102010201EB
:1029E00002010201F50002010201020102010201DD
:1029F000E90002010201FF000201020102010201DD
:102A0000020102010201020102010201BE00F700FF
:102A10000201020102010201F700020102010201AA
:102A200002010201F500020102010201710002012E
:102A3000E90002010201FF002B78043503EB40019D
:102A40001AF8012BA2F13003DBB2092B01EB810054
:102A5000F4D92A2AF0D002F0DF034C2BB0D19AF837
:102A60000030002B00F0B580A3F144020AF1010A06
:102A7000342A00F2AD80DFE802F0A1ABABABABA132
:102A8000ABABABABAB9FABABABABAB93ABABA9ABBC
:102A9000ABABABABABABABABAB68A1ABABABABA1DD
:102AA000ABABABABAB9FABABAB1BAB93ABABA900D7
:102AB000D5F800905E4BB9F1000F08BF9946043578
:102AC00099F80030002900F09E80002B00F0A080D3
:102AD0000139484601E0013903D410F8013F002BC9
:102AE000F9D1C9EB0000361A431E202426EAE67607
:102AF000002F39D01F1E16DBDFF83881BB46D8F80F
:102B000000304C489B6819F8011B0BF1FF3B9847BC
:102B1000BBF1FF3FF3D1009B03F101084346002FB7
:102B2000A8BFDB190093002E3FF400AFDFF804814B
:102B30003746D8F800303F489B6821469847013F08
:102B4000F7D1009B33440093F0E62B688DF80C30EE
:102B5000019B043518462024013B0DF10C09361A5F
:102B600026EAE676002FC5D11F46C6F1000BBBF161
:102B7000000F36D099F80010DFF8B8802D2934D036
:102B80005E46D8F800302B489B68214698470136AE
:102B9000F7D1009B002FCBEB03030093AEDAC5E621
:102BA0000A22296803A80435FFF78AFE03ABC01A7E
:102BB000431E0DF10C09D2E70822F2E7296800292B
:102BC00005F104052BDB03A80A22EDE71022E8E754
:102BD0001A46019B8DF80C2018460DF10C09013B9B
:102BE000BDE7002F5E4687DAA0E6302CC8D1D8F8C2
:102BF000003040469B689847009B013309F101096A
:102C00000093013FBCE747F6FE71002B7FF461AFF4
:102C100026EAE67657B94FF0FF372024A5E72D23A3
:102C200049428DF80C300DF10D00CDE720247AE7F4
:102C3000A85C000838AE0020AFF30080AFF300803E
:102C40002DE9F0419C460446202383F31188284D4A
:102C5000284BAE69D5F814E0243947180020E76006
:102C600044F801C03B627860A260B168256104F15C
:102C700028034FF002084FF0010C04F124078A42A8
:102C8000C4F814E06077E263A0636063A06184F835
:102C90001C8084F81EC06C61CEF810406762206210
:102CA000E362A36210D820772B461B6899688A429A
:102CB000FBD95A68626023605C601460002383F370
:102CC00011882046BDE8F08130772B461B689A6852
:102CD0009142FBD95A6872600127336031465E60C9
:102CE000204616602777AC61FDF782FCE6E700BF5F
:102CF000A0AB002001060008AFF30080AFF3008016
:102D00000EB400B582B004AB194604480193FFF736
:102D1000FFFD02B05DF804EB03B07047C059000836
:102D20000EB400B582B003A951F8040B0191FFF76E
:102D3000EFFD02B05DF804EB03B07047AFF3008025
:102D40000EB400B582B004AB194604480193FFF7F6
:102D5000DFFD02B05DF804EB03B07047C059000816
:102D60000EB400B582B004AB194604480193FFF7D6
:102D7000CFFD02B05DF804EB03B07047785900084E
:102D800000B50A4C2468054685B0E06852B1084C8D
:102D900002928DE812001A4606492B4600F010F800
:102DA00000F016FF044C2246F2E700BF500C002052
:102DB000105C0008205C00080C5B000800000000AC
:102DC0000EB410B583B005AB064C53F8042B019339
:102DD0000146206800F04CF803B0BDE8104003B095
:102DE000704700BF500C00200000000000000000F1
:102DF0004B6E2DE9F0479C040F4692462BD5936805
:102E0000126833B3804602F1080919E96000B60878
:102E100017D0043D002401E0A64210D0404655F8EA
:102E2000041F3A4601F03CF8431C04F10104F3D1BD
:102E30000023CAF80830CAF80430BDE8F087DAF891
:102E40000830A3EB8603CAF8083009F10809002B03
:102E5000DBD10020ECE701F0B3F90023CAF8083019
:102E6000CAF80430BDE8F087000000000000000050
:102E70002DE9F04FABB01C460091934604930190AE
:102E800018B1836B002B00F0E180009B99898AB216
:102E9000900408D418465B6E41F4005223F40053AA
:102EA0008281436692B2110740F1B080009B1B699A
:102EB000002B00F0AB8002F01A020A2A00F0B28068
:102EC00000230DF1680A09930F930E930293CDF836
:102ED00034A054469BF80030002B00F09D84252B35
:102EE00000F09A845A4601E0252B03D012F8013FE6
:102EF000002BF9D1CBEB0206154696B10E9B0F9A2B
:102F0000C4F800B001333244072B66600F920E9371
:102F100077DD002A40F0A984029B0E923344544688
:102F200002932B78002B00F0598300214FF0FF3CD7
:102F3000681C6B788DF82F1088460D46664600F1A8
:102F4000010BA3F12002582A00F2A782DFE812F059
:102F50009702A502A5029F02A502A502A502A5024D
:102F6000A502A50252025F02A5020C016A02A50297
:102F700028012E012E012E012E012E012E012E01DF
:102F80002E012E01A502A502A502A502A502A502F9
:102F9000A502A502A502A5023C01A502A502A50263
:102FA000A502A502A502A502A502A502A50273011C
:102FB000A502A502A502A502A5028A01A502A502F5
:102FC000A201A502A502A502A502A502A502A502CD
:102FD000A502A502A502C601D801A502A502A50267
:102FE0002201D801A502A5024902A502860212010A
:102FF000F1010502A5020B02A5028100A502A502AE
:1030000030020834029B334402938AE70198009906
:1030100000F076FDA8B9009B9A8902F01A020A2AEC
:103020007FF44EAF009BB3F90E30002BFFF648AF94
:10303000019800995A46234600F022FD2BB0BDE8C6
:10304000F08F4FF0FF302BB0BDE8F08F00F010FF95
:103050001BE718F0200F0395B44600F00B81049B8A
:10306000073323F0070303F10802D3E90067049252
:10307000012300228DF82F20E1461546BCF1000FF8
:10308000A8BF28F0800856EA070240F0C480BCF1CF
:10309000000F00F07D83012B00F0C580022B00F0B3
:1030A00083835146F20842EA4772F80806F00703A4
:1030B00007461646303356EA070201F8013DF1D1C2
:1030C00018F0010F079140F0F983C1EB0A09E145BF
:1030D0004E46B8BF664605B1013618F002030593A7
:1030E00018BF023618F08403069340F0F681039B64
:1030F0009D1B002D40F3F181102D40F38984DDF8F4
:1031000038E00F9AC44F2046102364467146844627
:1031100007E001F1020E0CF1080C0146103D102DE4
:1031200013DD481C103207280F92CCF80070CCF841
:1031300004300E90EDDD002A40F0BF81103D102DCF
:1031400011464FF0010ED446EBDC63467146A446AF
:103150001C462A4407290F92276065600E9100F3F0
:1031600043830834481CBBE1584648F004089BF8E8
:103170000030E4E618F020030395B44662D0049BC7
:10318000073323F0070303F10802D3E90067049231
:1031900000236EE748F040089BF800305846CEE622
:1031A00048F080089BF800305846C8E6A3F130028A
:1031B00000251BF8013B05EB850502EB4505A3F156
:1031C0003002092AF5D9BCE648F0100818F0200FA3
:1031D0000395B4468DF82F1000F09A8004990731BA
:1031E00021F00701D1E900230831049116461F465A
:1031F000002A73F10003C0F2A383BCF1000FA8BF43
:1032000028F0800856EA07029DF82F50E1464FF05B
:1032100001033FF43CAF012B7FF440AF002F08BF08
:103220000A2E80F031832AAB303603F8416DC3EBB0
:103230000A0907934BE748F0100818F0200303959C
:10324000B4469CD118F0100240F0F48218F040030C
:1032500000F0F082049913460A4604320E88049264
:10326000002706E748F0100818F0200F0395B44631
:103270007FF4F5AE049A18F0100F134640F0E18287
:1032800018F0400F00F0DD82168804320027012379
:103290000492EEE6614A039518F0200FB4468DF8CB
:1032A0002F10099200F08E80049A073222F0070254
:1032B000D2E9006702F10801049118F0010F00F053
:1032C0008C8256EA070200F0888230228DF8313075
:1032D00048F002088DF830200223CAE6049A0395CC
:1032E00013688DF8403013460433012600210493FF
:1032F00010AB8DF82F10B14607934FF0000CECE6A1
:1033000018F0200F0395B4468DF82F107FF466AFA8
:1033100018F0100F40F0A08218F0400F00F09C82CF
:103320000499B1F900600431F71732463B46049125
:103330005EE70499039530230A468DF830307823F0
:1033400004328DF83130364B0993B44648F0020808
:103350000E680492002702238BE648F020089BF8B1
:1033600000305846EBE5049A039513680793002153
:10337000B4468DF82F10161D002B00F04F83BCF1C2
:10338000000FC0F22983079DCDF810C06246284681
:10339000002101F0E5FBDDF810C0002800F04F83AC
:1033A000C5EB000904969DF82F504FF0000C8EE6F7
:1033B0001B4A039518F0200FB44609928DF82F1080
:1033C0007FF472AF049918F0100F0A4640F03F8264
:1033D00018F0400F00F03B8204320E880492002760
:1033E0006BE79BF800306C2B00F0E98248F0100886
:1033F0005846A4E5049A15681346002D03F104030A
:10340000C0F2E58204939BF80030584697E59BF89C
:10341000003058462B2192E5705C0008805C000863
:10342000945C00089BF800302A2B0BF1010000F09F
:103430000F83A3F13002092A83464FF000063FF6BE
:1034400080AD1BF8013B06EB860602EB4606A3F1B6
:103450003002092AF5D946EAE67672E518F0200F1F
:103460008DF82F1000F08382049A02991368CF1709
:103470000846043239460492C3E900012AE5584659
:103480009BF8003000297FF45AAD202157E548F021
:10349000010858469BF8003051E503958DF82F1030
:1034A000002B00F09B808DF84030002301268DF822
:1034B0002F3010ABB14607931FE70198009908938E
:1034C0000DAAFFF795FC002840F08F800E990F9A07
:1034D000089B01F1010ED44620E60E990F9A481C74
:1034E0009DF82F306BB101320DF12F030121072818
:1034F0000F920E902360616000F33481014608341E
:103500000130059B63B102320CA9022307280F92F8
:103510000E9084E80A0000F334810146083401303B
:10352000069B802B00F0D480C9EB0C07002F2BDD0D
:10353000102FAB4D1FDDA6461023019C07E001F1C3
:10354000020C0EF1080E0146103F102F11DD481C31
:10355000103207280F92CEF80050CEF804300E90AB
:10356000EDDD6ABB103F102F4FF0010C1146D6461F
:10357000EDDC744660463A4407280F9284E8A000C8
:103580000E903BDC0834013002EB0903079A0F93DD
:10359000072884E804020E903DDD002B40F03F81B7
:1035A00018F0040F0E9340F03081029B039A96426C
:1035B000ACBF9B199B18029300230E93544689E4D9
:1035C0002046009905930DAAFFF712FC68B90E99E1
:1035D0000F9A059B01F1010CD646B5E70F9B23B16D
:1035E000019800990DAAFFF703FC009B9B895B06DD
:1035F0003FF527AD02982BB0BDE8F08F002A40F0D0
:10360000928101220799CDF86C904B46CDF83C9001
:103610001A910E92544604F1080218F0040F39D0A2
:1036200003998D1B002D35DD102D40F303820E987C
:103630006C4FDDF80480DDF80090102406E000F106
:10364000020E08320846103D102D10DD411C1033CB
:1036500007290F93176054600E91F0DD002B2AD1DB
:10366000103D102D4FF0010E18465246EEDC2B4453
:10367000BEF1070F0F9317605560CDF838E009DDF4
:10368000002B92D0019800990DAAFFF7B1FB0028FA
:10369000ABD10F9B029A03998E42ACBF921952187C
:1036A0000292002B88D0019800990DAAFFF7A0FB89
:1036B000002881D099E7404649460DAAFFF798FBBC
:1036C000002892D10E980F9B00F1010E5246BAE7E6
:1036D000039B9F1B002F7FF727AF102F404D40F318
:1036E000B581204610236446844607E001F1020EAE
:1036F0000CF1080C0146103F102F11DD481C103250
:1037000007280F92CCF80050CCF804300E90EDDD75
:10371000C2B9103F102F4FF0010E1146D446EDDC18
:103720006346A4461C463A44BEF1070F0F9284E854
:10373000A000CDF838E000F3F08008340EF101006D
:103740007146F1E60198009905930DAAFFF750FB29
:1037500000287FF44AAF0E990F9A059B01F1010EE4
:10376000D446C8E7002A40F0C780059B002B00F034
:1037700087800CAA02231A9208461B931A465446C5
:10378000CBE6002A40F0A780012011465446C7E648
:1037900003BB18F0010F1DD02AAB302203F8412DD6
:1037A000C3EB0A09079392E40998D146330906F05E
:1037B0000F0143EA07733A091E461746435C09F8AE
:1037C000013D56EA0703F1D14B46CDF81C90C3EBFF
:1037D0000A097CE4CDF81CA079E4022349E400BF87
:1037E000605C0008705C0008002A40F0D7809DF8FB
:1037F0002F30002B00F0AE8001230DF12F01184671
:103800001B931A461A91544678E6039A951B002D8D
:1038100052463FF709AFC8E65D46FFF782BB019805
:1038200000990DAAFFF7E4FA00287FF4DEAE0F9BA3
:103830005246F2E604990A4604320E6804920027C2
:1038400017E404321E6804920123002711E416686D
:1038500004320492002730E5049A166813460433B4
:10386000F717049332463B46C2E4019800990DAA2B
:10387000FFF7BEFA00287FF4B8AE5446FFF7C2BB8C
:103880000846544611464BE6D146CDF814C03046A2
:1038900039460A220023FCF763FF303230463946AE
:1038A00009F8012D00230A22FCF75AFF06460F46AD
:1038B00056EA0703EBD1DDF814C085E7302B079BF0
:1038C00085D0013B1A4607933023C2EB0A0901F861
:1038D000013CFFF7FCBB01980099CDF814C00DAA7C
:1038E000FFF786FA00287FF480AE0E990F9ADDF874
:1038F00014C0481C544613E601980099CDF820C026
:103900000DAAFFF775FA00287FF46FAE0E990F9A93
:10391000DDF820C0481C5446F3E5002A67D1012099
:103920001146544600E6019800990DAAFFF760FA87
:1039300000287FF45AAE0E980F9A0130544623E6C1
:103940002D25764267EB47078DF82F50E14601237E
:10395000FFF794BB059B114601205446002B3FF412
:10396000E3AD0CAA02238AE80C001A46D5E518F04C
:10397000100F0BD118F0400F08D0049A13680432CE
:103980000492BDF808201A80FFF7A4BA049A1368BD
:1039900004320492029A1A60FFF79CBA01980099C7
:1039A000CDF820C00DAAFFF723FA00287FF41DAE42
:1039B0000E990F9ADDF820C0481C544690E548F057
:1039C00020080BF101009BF80130FFF7B8BA6D42F7
:1039D00004935846FFF7C9BB0798049601F078FC9A
:1039E0009DF82F5081464FF0000CFFF770BB0198F7
:1039F0000099CDF814C00DAAFFF7FAF900287FF45A
:103A0000F4AD0E990F9ADDF814C0481C54468BE5AE
:103A10000E990F9A154F0131FFF79BBBBCF1060FB2
:103A200028BF4FF0060C124B0496E1462CEAEC76C8
:103A3000079362E40E990D4F01F1010E17E6E1467E
:103A40009DF82F5004968446FFF741BB86466AE6F0
:103A5000049A9BF8013016680432002E0492BFF6D7
:103A60006EAA4FF0FF36FFF76ABA00BF705C00081D
:103A7000A85C00080000000000000000000000003A
:103A80002DE9F0420C46ADF58D6DB1F80CE0E7691B
:103A9000496EB4F80E9019911AAD4FF480662EF06D
:103AA000020E4FF0000C07976946676A009504956F
:103AB00002960596ADF80CE0ADF80E900997CDF89A
:103AC00018C00646FFF7D4F9051E07DB30466946E5
:103AD00000F036F9002818BF4FF0FF35BDF80C3064
:103AE0005B0603D5A38943F04003A38128460DF567
:103AF0008D6DBDE8F08200BF0000000000000000F6
:103B000038B52F4B1B6805460C4613B19A6B002A3B
:103B100036D0A28993B218070CD52069A8B113F04A
:103B200001021ED0636900225B42A361A260F0B172
:103B3000002038BDD9063BD5580725D4206942F06E
:103B40000803A3819BB20028E9D103F42072B2F5E7
:103B5000007FE4D02846214600F002FDA3892069B9
:103B6000DDE7990758BF6269A2600028E0D1A38908
:103B70001A06DED543F04003A3814FF0FF3038BD75
:103B8000184600F075F9C4E7216B49B104F1400310
:103B9000994203D0284600F03BFAA2890023236310
:103BA00022F0240200232069636092B22060C6E7FD
:103BB00042F0400209232B604FF0FF30A28138BD54
:103BC000500C002000000000000000000000000079
:103BD00008B5062001F004FB0120FEF739FD00BF07
:103BE0008B899AB22DE9F0410D46110780463CD4ED
:103BF0006A6843F40063002AAB8165DDAE6A002E7B
:103C00004BD09BB203F48052002192B2D8F800400E
:103C1000C8F80010002A5BD02A6D5F0705D56968D7
:103C20002B6B521A0BB1EB6BD21A4046E969002399
:103C3000B047461C56D0AB892A692A6023F400633A
:103C40009BB200226A60DA04AB813BD4296BC8F8CE
:103C5000004011B305F14003994202D0404600F004
:103C6000D7F900202863BDE8F0812E69AEB12C6839
:103C70002E6091070CBF6B690023A41BAB600AE0A8
:103C8000324623466F6AE9694046B8470028A4EBEC
:103C90000004064404DD002CF2DC0020BDE8F081C5
:103CA000AB8943F04003AB814FF0FF30BDE8F081BA
:103CB000AB892A69696023F400639BB2AB81DB04A2
:103CC0002A60C3D52865C1E7EA6B002A96DCE4E7E1
:103CD00001234046E969B047431C024619D0AB892D
:103CE000AE6A9AE7D8F800100029E1D01D2907D064
:103CF000162905D0AB8943F04003AB81BDE8F081C4
:103D0000AB892A692A6023F400630022AB816A60D0
:103D10009CE7D8F80030002BE1D01D2B07D0162BE4
:103D200005D0AB8943F04003AB81BDE8F081C8F812
:103D30000040B2E7000000000000000000000000AA
:103D400010B5044682B008B1836B53B1B1F90C00D1
:103D500008B902B010BD204602B0BDE81040FFF720
:103D60003FBF019100F084F80199EFE700000000E7
:103D7000014900F0B5BB00BF61540008000000001D
:103D80002DE9F04F354B4568C3630024074600F525
:103D90003B7204230321C0F8E412C0F8E822C0F803
:103DA000E04283B02C606C60AC606C66EC812C618E
:103DB0006C61AC61AB81214605F15C00082200F02A
:103DC00087FFBE68DFF898B0DFF898A0DFF898901A
:103DD000DFF89880C5F820B001230922C5F824A097
:103DE000C5F82890C5F82C80ED612146F381B28199
:103DF00006F15C0034607460B460746634617461B0
:103E0000B4610822019300F063FFFD68F66112209F
:103E10000222C6F820B0C6F824A0C6F82890C6F83A
:103E20002C802146A881EA812C606C60AC606C66B5
:103E30002C616C61AC6105F15C00082200F048FF68
:103E4000019BED61C5F820B0C5F824A0C5F8289005
:103E5000C5F82C80BB6303B0BDE8F08F713D00084E
:103E60003152000861520008A1520008C1520008F6
:103E7000836B03B17047FFF783BF00BF00000000F2
:103E8000704700BF000000000000000000000000BC
:103E9000704700BF000000000000000000000000AC
:103EA0002DE9F041938914469A0482B007460E46E4
:103EB00006D4626E43F4005342F40052A38162665A
:103EC00000F046FB012841D0384601A9324604F1F2
:103ED0005C0301F085FAB0F1FF3F80462FD0002847
:103EE0003CD09DF80410002509E023681970236870
:103EF000013323600135A84530D901AB595DA36872
:103F0000013B002BA360F0DAA269934207DB236830
:103F10001970236819780A2903F10103E9D1384699
:103F2000224601F005FAA0F1FF30B0FA80F0400916
:103F30000028DFD04FF0FF3002B0BDE8F081A38948
:103F400043F04003A38102B0BDE8F081731EFE2B55
:103F5000BAD8F1B280468DF80410C4E7304602B0FA
:103F6000BDE8F0810000000000000000000000003B
:103F7000F8B5234F0C46064600F0FAFEBB685D68B4
:103F800025F00305291B01F6EF7121F47F6121F073
:103F90000F01A1F58054B4F5805F07DB30460021A6
:103FA000FDF78EFEBB682B44984204D0304600F0EB
:103FB000E7FE0020F8BD30466142FDF781FE01308A
:103FC0000DD0104BBA6819682D1B45F0010530461D
:103FD000091B5560196000F0D3FE0120F8BD304682
:103FE0000021FDF76DFEBA68831A0F2BDEDD064C4B
:103FF0000449246843F00103001B53600860D5E7BF
:10400000780C0020DCAF00208410002000000000AD
:1040100000294ED02DE9F0410C46804600F0A8FE64
:1040200054F8047C624927F00102A4F10805AB189A
:104030008E6858689E4220F003005AD0FE075860F0
:104040000BD454F8087CED1B01F1080EAC687445E4
:104050003A4467D0EF68E760BC601C186468E40706
:104060000CD4544F9C68BC4202447CD0D868E060B9
:1040700042F0010384606B60AA5003E042F0010348
:104080006B60AA50B2F5007F14D2D20801EBC203D4
:1040900048689F68AF609210012404FA02F210434E
:1040A000EB6048609D60FD604046BDE8F04100F077
:1040B00067BE7047530A042B47D8930903F13804AD
:1040C000600001EB80003A498368834243D059681D
:1040D00021F00301914202D99B689842F7D1DA6836
:1040E000EA60AB6040469560DD60BDE8F04100F0FD
:1040F00047BEFF07024407D454F8083CED1A1A449F
:10410000A868EB68C36098602B4B1B6842F0010005
:104110009A4268608D60C7D3284B40461968FFF704
:1041200027FFC1E719184968C90709D4D9689B68EE
:10413000024442F00100D9608B606860AA50B3E786
:1041400042F001036B60AA50AEE7142B14D803F1C0
:104150005B046000B5E74A68A4100120A040024358
:104160004A601A46BCE742F001034D610D61EC6004
:10417000AC606B60AA5097E7542B04D8130B03F183
:104180006E0460009DE7B3F5AA7F04D8D30B03F15A
:104190007704600095E740F25450834204D8930CB2
:1041A00003F17C0460008CE7FC207E2489E700BFDB
:1041B000780C0020800C002080100020D8AF002058
:1041C0009368002B7AD02DE9F04FB1F80CE01EF087
:1041D000080F83B00C468146164626D00B6923B3E0
:1041E0000EF002081FFA88F0356870B34FF0000A2D
:1041F000DFF8E0B2D046D8454346524628BF5B467A
:104200004846B8F1000F53D0E169676AB847002803
:1042100073DDB3681B1A8244C0EB0808B360002B3F
:10422000E9D1002003B0BDE8F08F48462146FFF7F2
:1042300067FC002840F04581B4F80CE035680EF0CA
:1042400002081FFA88F00028D0D11EF0010B5DD1C2
:10425000D846B8F1000F25D01EF4007FA7682FD0F4
:10426000B845BA46C0F0A9801EF4906F40F0B68001
:1042700020685246594600F0C3FCA0682268C01B63
:1042800002EB0A03A06023604046B3681B1A834414
:10429000C0EB0808B360002BC3D0B4F80CE0B8F151
:1042A000000FD9D1D5F800B0D5F804800835D0E793
:1042B000D5F800A0D5F8048008359CE700207047A9
:1042C00020682369984203D86269904580F0B980DC
:1042D000474528BF47463A46594600F091FCA36837
:1042E0002268DB1B3A44A3602260002B4AD1484677
:1042F0002146FFF725FD002844D0A38943F0400361
:104300004FF0FF30A38103B0BDE8F08F80460090EE
:1043100083468246BAF1000F2CD0009B002B50D070
:1043200020682169D4F808E06269D045434628BF77
:10433000534688421F4604D90EEB020C634500F336
:104340009280934220DB1346676AE16948465A46E9
:10435000B847071ED1DDB8EB070825D0B368DB1BD3
:10436000BB44C7EB0A0AB360002B3FF45AAFBAF163
:10437000000FD2D10023D5F800B0D5F804A00093E7
:104380000835C7E7384680E71A465946019300F0DA
:1043900037FCA2682168019BB8EB0708A2EB030277
:1043A0000B44A2602360D9D148462146FFF7C8FCE0
:1043B0000028A2D1CDF80080D0E720684746C24649
:1043C00057E758460A21524600F0CAFB002873D02E
:1043D00001300123CBEB00080093A1E76769216955
:1043E000236807EB47075B1A07EBD777581C7F104A
:1043F000404487423A463CBF07463A461EF4806F27
:10440000009346D01146484600F01AF9009B8246B8
:10441000002859D01A4621690093FCF701F9A289B6
:10442000009B22F4906242F08002A2810AEB03001A
:10443000FB1AC4F810A067612060A3604746C2461B
:1044400017E76FF00043434528BF4346676A93FB75
:10445000F2F3484603FB02F3E1695A46B8470028E5
:104460003FF713AF49E762465946CDF804C000F064
:10447000C7FB2368DDF804C0634423604846214637
:10448000FFF75EFCDDF804C000287FF436AF674616
:1044900061E7484600F07CFC009B82460028C5D1BD
:1044A00048462169FFF7B4FDA3890C2223F080035D
:1044B0009BB2C9F8002021E701230AF1010800930B
:1044C0002EE74FF0FF30ADE60C23C9F80030A3898A
:1044D00014E700BF00FCFF7F0000000000000000A8
:1044E0002DE9F84310F538771FD0884606464FF07F
:1044F00000097D68BC68013D11D4A389012B05F139
:10450000FF3508D9B4F90E3001332146304602D0C8
:10451000C04749EA00096B1C04F16804EDD13F680B
:10452000002FE6D14846BDE8F883B9464846BDE8C5
:10453000F88300BF00000000000000000000000041
:1045400000487047540C00200000000000000000EC
:10455000014B1868704700BF740C00200000000079
:104560008B899AB212F0020F3CD1F0B50C46B1F92A
:104570000E10002991B0054619DB01AAFDF790FB4A
:10458000002812DB029B03F47043B3F5004FA3F540
:104590000057B7FA87F74FEA57172AD0A38943F491
:1045A0000063A3814FF480660BE0A3899AB212F0F6
:1045B000800F43F40063A3810CBF4FF48066402654
:1045C00000272846314600F03BF8A38940B31A4A39
:1045D000EA6343F08003A3812060206166619FB994
:1045E00011B0F0BD01F1430301220B600B614A6180
:1045F0007047124BA26A9A42D0D1A3894FF48066C9
:104600003343A381E664DCE72846B4F90E10FDF7D6
:104610003FFB0028E4D0A38943F00103A381DFE737
:104620009A05DDD404F1430243F002030121A38182
:10463000226022616161D3E7713D0008A152000848
:104640002DE9F04F01F10B05162D83B0064627D951
:1046500035F0070500F1B680A94200F2B38000F002
:1046600087FBB5F5FC7F22D2C24FE80807EBC003F9
:10467000DC689C4200F0C9816368E168A56823F0AA
:104680000303234430465A68E96042F001028D601A
:104690005A6000F075FB0834204603B0BDE8F08F87
:1046A000102900F28F8000F063FB1025DCE7680A18
:1046B00000F08F80042800F25481A80938304100AE
:1046C000AC4F07EB8101CC68A14206D10CE0002A77
:1046D00080F28280E468A14206D0636823F003037D
:1046E0005A1B0F2AF3DD01380130A2493C6901F160
:1046F000080E744500F07E81636823F003035A1BA3
:104700000F2A00F36481002AC1F814E0C1F810E018
:1047100073DAB3F5007F80F03981DB0801EBC30861
:104720004FEAA30C4A68D8F80890C4F8089001230F
:1047300003FA0CF31343C4F80C804B60C8F808402C
:10474000C9F80C408210012494409C4262D8234254
:1047500006D120F003006400234200F10400FAD0E7
:1047600007EBC008C4468146DCF80C309C4507D1F5
:1047700042E1002980F25281DB689C4500F03C81D7
:104780005A6822F00302511B0F29F2DD1C46D3F8B0
:104790000CC054F8088F5A1945F0010941F0010581
:1047A000C3F804903046C8F80CC0CCF808807A6191
:1047B0003A61C2F80CE0C2F808E05560515000F0D0
:1047C000DFFA69E700240C232046336003B0BDE81C
:1047D000F08F7E213F2073E72344E1685A68A56883
:1047E00042F00102E96030468D605A6000F0C8FA7C
:1047F0000834204603B0BDE8F08F234430465A68A1
:1048000042F001025A6000F0BBFA0834204603B0BF
:10481000BDE8F08FBC68636823F00308454504D801
:10482000C5EB08030F2B00F38C80534BDFF858A126
:104830001A68DAF8003001332A4404EB080B00F060
:10484000508102F580520F3222F47F6222F00F0273
:10485000114630460192FDF733FAB0F1FF3F814631
:10486000019A00F0F580834500F2EF80434B196810
:10487000CB451144196000F03D81DAF80000DFF803
:1048800008E101301BBFCBEB090B5944CEF8009077
:10489000196019F0070100F00781C1F10800C1F5A6
:1048A0008051814408314A44C2F30B02C2EB010A31
:1048B000514630460193FDF703FA431C019B00F07B
:1048C0002781C9EB0002524442F001021968C7F87F
:1048D00008905144BC42C9F804201960DFF89CA03C
:1048E00016D0B8F10F0F40F2E2806268A8F10C0315
:1048F00023F00703E01802F001024FF0050E1A43FF
:104900000F2B6260C0F804E0C0F808E000F20481F8
:104910001B4BBC681A68914288BF1960194B1A6812
:104920009142626888BF196022F003029542A2EBAF
:10493000050301D80F2B04DC304600F021FA0024D7
:10494000AAE6621943F0010345F0010565603046AF
:10495000BA60536000F014FA0834204603B0BDE892
:10496000F08F142869D9542800F29780280B6E30F4
:104970004100A5E6780C0020D8AF0020DCAF002075
:10498000D4AF0020D0AF0020841000205A0A042A9F
:1049900056D9142A00F2A7805B324FEA420C07EB8B
:1049A0008C0CDFF8B481DCF80810614500F08580DC
:1049B0004A6822F00302934202D289688C45F7D1FB
:1049C000CA687B68E260A1609460CC60BAE6631953
:1049D00042F0010745F00105656030464B610B610F
:1049E000C3F80CE0C3F808E05F609A50083400F0A8
:1049F000C7F951E64B68A5E609F1010919F0030F63
:104A00000CF1080C7FF4B0AE2BE004F108036469EC
:104A1000A34208BF02303FF468AE2DE61A441C469C
:104A20005168DB6854F8085F41F00101516030467D
:104A3000EB609D6000F0A4F92EE65B3041003FE69C
:104A40009A0938324FEA420CA9E7BC423FF40EAF54
:104A5000BC68626822F0030268E7D8F800809845D5
:104A600077D110F0030FA8F1080300F1FF30F4D163
:104A70007B6823EA04037B6064009C423FF6CAAE75
:104A8000002C3FF4C7AE234248467FF469AE640071
:104A9000234200F10400FAD062E6B0F5AA7F18D8EC
:104AA000E80B773041000BE64FF48051FBE6012321
:104AB000C9F804304C46002238E7D8F80430921088
:104AC0004FF0010C0CFA02F21343C8F804300A4606
:104AD00078E740F25453984217D8A80C7C30410034
:104AE000EEE51032B4E6542A1ED81A0B6E324FEAA5
:104AF000420C54E7CBF30B0000287FF4BEAE4244D7
:104B0000BB6842F001025A6002E7FC217E20D7E533
:104B100001224FF0000AD9E604F108013046FFF700
:104B200077FADAF80010F3E6B2F5AA7F04D8DA0BC8
:104B300077324FEA420C32E740F254518A4204D8AD
:104B40009A0C7C324FEA420C29E74FF0FC0C7E2293
:104B500025E77B6890E700BF780C0020000000008C
:104B6000830770B4C9B240D0541E002A3FD00378E6
:104B70008B4218BF431C06D11DE0F4B102788A4273
:104B800004F1FF3417D013F0030F184603F10103AB
:104B9000F3D1032C14D884B103788B420BD00519C0
:104BA000431C02E002788A4205D0AB42184603F16A
:104BB0000103F7D1002070BC7047204670BC7047DD
:104BC00041EA0126024646EA0646104604320368D8
:104BD0007340A3F1013525EA030313F0803FDAD1D6
:104BE000043C032C1046F0D8D5E71446D1E7104614
:104BF000E1E700BF0000000000000000000000002E
:104C00008842F0B50DD98B1898420AD28118002A33
:104C100054D09A1A13F8014D01F8014D9342F9D17D
:104C2000F0BD0F2A48D940EA01039B0747D100F1A4
:104C3000100401F11003154653F8106C44F8106C81
:104C400053F80C6C44F80C6C53F8086C44F8086C7E
:104C5000103D53F8046C44F8046C0F2D03F110035D
:104C600004F11004E8D8A2F1100323F00F0302F0BE
:104C70000F0E1033BEF1030F1944034421D91E1F38
:104C80000D467446043C55F8047B46F8047F032C1B
:104C9000F8D8AEF1040424F003040434234421447E
:104CA00002F0030252B1013B0A4411F8014B03F830
:104CB000014F9142F9D1F0BD0346F3E7F0BD034641
:104CC000F1E77246EEE700BF0000000000000000C0
:104CD00070B4840746D0541E002A41D0CDB203469A
:104CE00002E0621EE4B3144603F8015B9A07F8D1B0
:104CF000032C2ED9CDB245EA05250F2C45EA0545F2
:104D000019D903F110022646103E0F2E42F8105C0E
:104D100042F80C5C42F8085C42F8045C02F11002B4
:104D2000F2D8A4F1100222F00F0204F00F041032A6
:104D3000032C13440DD91E462246043A032A46F892
:104D4000045BFAD8221F22F003020432134404F059
:104D500003042CB1C9B21C4403F8011BA342FBD1CC
:104D600070BC704714460346C2E700BF0000000055
:104D7000704700BF000000000000000000000000BD
:104D8000704700BF000000000000000000000000AD
:104D90002DE9F04F174683B00E46002900F0E7805A
:104DA000814607F10B05FFF7E3FF56F8043C162D8B
:104DB00023F00304A6F108084CD810221546AF4290
:104DC0004DD8944280F28480DFF8ACB3DBF8080061
:104DD00008EB0401884200F0D680486820F0010EFC
:104DE0008E44DEF804E01EF0010F3FD120F00300F6
:104DF0002044904280F2C180DB0700F18F8056F89A
:104E0000083CC3EB080ADAF8043023F0030300EB94
:104E1000030E964534DBCB688A685746D3609A60A8
:104E200057F8081FDAF80C30CB60221F242A99604B
:104E300000F23681132A40F2FD803368CAF8083048
:104E40007368CAF80C301B2A00F2408108360AF158
:104E50001003F0E025F00705002D2A46AFDA0C23F9
:104E60000020C9F8003003B0BDE8F08FD90755D451
:104E700056F8083CC3EB080ADAF8043023F00303C1
:104E8000234493424ADB5746DAF80C1057F8080FD0
:104E9000221F242AC160886000F20E81132A40F28A
:104EA00009813168CAF808107168CAF80C101B2A09
:104EB00000F2218108360AF1100231681160716830
:104EC0005160B16891601C46DAF804303E46D04625
:104ED000621B0F2A03F001030ED823434444C8F891
:104EE0000430636843F0010363604846FFF748FFFE
:104EF000304603B0BDE8F08F08EB05011D4342F0DA
:104F000001030A44C8F804504B60536843F001039E
:104F1000083153604846FFF77BF8E6E739464846D4
:104F2000FFF78EFB0746D8B156F8043C23F0010288
:104F30004244A0F10801914200F0AC80221F242AD3
:104F400000F29980132A6AD8034632461168196024
:104F50005168596092689A6031464846FFF758F8A0
:104F60004846FFF70DFF384603B0BDE8F08F114605
:104F700003B0BDE8F04FFFF763BBCA688968044619
:104F8000CA609160A4E7416821F00301214405F162
:104F9000100081425BDADB07C0D456F8083CC3EB53
:104FA000080ADAF8043023F0030301EB030C604530
:104FB0003FF766AF5746DAF80C3057F8081F221F44
:104FC000242ACB60996000F2B880132A40F2A980AD
:104FD0003368CAF808307368CAF80C301B2A00F22C
:104FE000B58008360AF1100332681A6072685A6098
:104FF000B2689A600AEB0502C5EB0C0343F00103AB
:10500000CBF808205360DAF8043003F001031D43A5
:105010004846CAF80450FFF7B3FE384669E73368DC
:105020000360736843601B2A29D800F1080306F166
:1050300008028BE73B4632681A6072685A60B268B1
:105040009A603E467446DAF80430D04640E708EBF2
:1050500005024B1B43F00103CBF80820536056F8C0
:10506000043C03F001031D43484646F8045CFFF787
:1050700087FE30463DE73146FFF7C2FD6CE7B36877
:105080008360F368C360242A2CD000F1100306F17A
:1050900010025BE750F8042C22F00302144417E7D7
:1050A0003146384674463E46FFF7AAFDD046DAF848
:1050B00004300DE73A4600E7314638461C463E4686
:1050C000FFF79EFDD046DAF8043001E7B368CAF86E
:1050D0001030F368CAF81430242A18D010360AF1B8
:1050E0001803A8E7336903617369436106F1180285
:1050F00000F118032AE7B168CAF81010F168CAF87D
:105100001410242A0FD010360AF11802D5E633699C
:10511000CAF818307369CAF81C3018360AF120032F
:1051200089E73B4660E73269CAF818207269CAF815
:105130001C2018360AF12002BFE631463846CDF869
:1051400004C0FFF75DFDDDF804C053E7B368CAF89B
:105150001030F368CAF81430242A03D010360AF14C
:10516000180341E73369CAF818307369CAF81C306C
:1051700018360AF1200337E7780C00200000000001
:105180001F2938B522D8D0F8DC2205460C469AB142
:1051900052F8213083B1012B0CD0591C06D00025C8
:1051A000204642F824509847284638BD162303600D
:1051B000012038BD002038BD284600F031F82246D5
:1051C00001462846BDE8384000F012B816230360B7
:1051D0004FF0FF3038BD00BF0000000000000000AD
:1051E000024B01461868FFF7CBBF00BF500C0020F0
:1051F00038B5084C00230546084611462360FDF7E4
:1052000017FA431C00D038BD2368002BFBD02B605D
:1052100038BD00BF04B00020000000000000000006
:10522000FDF70EBA000000000000000000000000C2
:1052300010B50C46B1F90E10FCF76AFD002803DB2F
:10524000236D0344236510BDA38923F48053A381F8
:1052500010BD00BF000000000000000000000000C2
:105260002DE9F04116468A891D46D3050C460746AE
:1052700006D50022B1F90E100223FCF741FDA289E8
:10528000B4F90E1022F48052A281384632462B46E1
:10529000BDE8F041FCF72CBD00000000000000005C
:1052A00010B50C46B1F90E10FCF72AFDA389421C7B
:1052B0000EBF23F4805343F480532065A38110BDB7
:1052C000B1F90E10FCF70CBD00000000000000005A
:1052D00020F0030110F00300C0F1000051F8043B7E
:1052E00000F1040C4FEACC0C6FF000021CBF22FA54
:1052F0000CF213434FF0010C4CEA0C2C4CEA0C4C12
:10530000A3EB0C0222EA030212EACC1204BF51F80A
:10531000043B0430F4D0C2F1000102EA0102B2FA07
:1053200082F2C2F11F0200EBD200704700000000C1
:1053300070B50D461446064610B1836B002B48D05D
:10534000A289A369A36091B2080738D52369002B0D
:1053500035D08904EDB215D522686169D31A8B4224
:105360001CDA0133A168501C0139A160206015705E
:1053700062699A421AD0A389DB0701D50A2D15D09C
:10538000284670BD616E42F4005221F40051A281A2
:10539000226861666169D31A8B42E2DB304621469E
:1053A000FEF7CEFC40B922680123DBE730462146F8
:1053B000FEF7C6FC0028E3D04FF0FF3070BD30464A
:1053C0002146FEF79DFB0028F6D1A289236991B200
:1053D000BFE7FEF74DFDB3E700000000000000004E
:1053E0002DE9F041054686B01E460C46A1B1104B92
:1053F0001746D3F80080FFF7A3F80096034621462E
:105400003A462846C047431C03D100228A23326013
:105410002B6006B0BDE8F081054B1F68FFF790F8E0
:10542000009603462246284603A9B847EBE700BF8B
:1054300088100020000000000000000000000000B4
:1054400021B1FF2A04D80A7001207047084670472E
:105450008A2303604FF0FF30704700BF0000000058
:1054600000293DD070B505460C4608B1836B7BB36F
:10547000B4F90C300BB9002070BD28462146FEF768
:10548000AFFBE36A064633B12846E1699847002836
:10549000B8BF4FF0FF36A3891B061CD4216B41B166
:1054A00004F14003994202D02846FEF7B1FD0023E3
:1054B0002363616C21B12846FEF7AAFD00236364D3
:1054C000FEF7DEFC0023A381FEF7E2FC304670BD50
:1054D000FEF7CEFCCCE728462169FEF799FDDDE713
:1054E00000207047000000000000000000000000E5
:1054F000784D424D617374657252545552656365BF
:1055000069766546534D0000000000000000000071
:10551000000204040404040600000000000000006F
:10552000784D425574696C53657442697473000018
:10553000784D424D617374657252545554696D656E
:105540007245787069726564000000000000000018
:10555000784D424D61737465725254555472616E48
:10556000736D697446534D00000000000000000098
:10557000654D424D61737465725254555265636551
:1055800069766500000000000000000000000000D7
:1055900069646C6500000000467265654D6F646269
:1055A00075732F6D6F646275732F7274752F6D62D2
:1055B0007274755F6D2E6300282065526376537494
:1055C000617465203D3D2053544154455F4D5F5209
:1055D000585F494E49542029207C7C202820655260
:1055E00063765374617465203D3D205354415445A6
:1055F0005F4D5F52585F5243562029207C7C202803
:1056000020655263765374617465203D3D20535488
:105610004154455F4D5F52585F4552524F522029C9
:10562000207C7C2028206552637653746174652049
:105630003D3D2053544154455F4D5F52585F4944AE
:105640004C45202900000000282065536E645374E7
:10565000617465203D3D2053544154455F4D5F5476
:10566000585F584657522029207C7C2028206553BB
:105670006E645374617465203D3D2053544154451C
:105680005F4D5F54585F49444C452029000000009D
:1056900075734D61737465725263764275666665A3
:1056A00072506F73203C204D425F5345525F50440F
:1056B000555F53495A455F4D4158000028206553B6
:1056C0006E645374617465203D3D205354415445CC
:1056D0005F4D5F54585F49444C452029207C7C2015
:1056E000282065536E645374617465203D3D2053DA
:1056F000544154455F4D5F54585F584657522029D6
:1057000000000000467265654D6F646275732F6D11
:105710006F646275732F66756E6374696F6E732F35
:105720006D627574696C732E6300000075634E4280
:10573000697473203C3D2038000000006552637698
:105740005374617465203D3D2053544154455F4D71
:105750005F52585F49444C450000000000000000C3
:1057600000C0C101C30302C2C60607C705C5C40401
:10577000CC0C0DCD0FCFCE0E0ACACB0BC90908C871
:10578000D81819D91BDBDA1A1EDEDF1FDD1D1CDC61
:1057900014D4D515D71716D6D21213D311D1D010D1
:1057A000F03031F133F3F23236F6F737F53534F4C1
:1057B0003CFCFD3DFF3F3EFEFA3A3BFB39F9F83831
:1057C00028E8E929EB2B2AEAEE2E2FEF2DEDEC2C21
:1057D000E42425E527E7E62622E2E323E12120E091
:1057E000A06061A163A3A26266A6A767A56564A481
:1057F0006CACAD6DAF6F6EAEAA6A6BAB69A9A868F1
:1058000078B8B979BB7B7ABABE7E7FBF7DBDBC7CE0
:10581000B47475B577B7B67672B2B373B17170B050
:105820005090915193535292965657975595945440
:105830009C5C5D9D5F9F9E5E5A9A9B5B99595898B0
:10584000884849894B8B8A4A4E8E8F4F8D4D4C8CA0
:105850004484854587474686824243834181804010
:1058600000C1814001C0804101C0804100C1814030
:1058700001C0804100C1814000C1814001C0804120
:1058800001C0804100C1814000C1814001C0804110
:1058900000C1814001C0804101C0804100C1814000
:1058A00001C0804100C1814000C1814001C08041F0
:1058B00000C1814001C0804101C0804100C18140E0
:1058C00000C1814001C0804101C0804100C18140D0
:1058D00001C0804100C1814000C1814001C08041C0
:1058E00001C0804100C1814000C1814001C08041B0
:1058F00000C1814001C0804101C0804100C18140A0
:1059000000C1814001C0804101C0804100C181408F
:1059100001C0804100C1814000C1814001C080417F
:1059200000C1814001C0804101C0804100C181406F
:1059300001C0804100C1814000C1814001C080415F
:1059400001C0804100C1814000C1814001C080414F
:1059500000C1814001C0804101C0804100C181403F
:1059600073656E64657200006D6F646275735F725B
:10597000657175657374000075734D526567486F86
:105980006C644275665B25645D3A2025640A0000FC
:105990006E6F276572726F72000000006572726F21
:1059A000720000006D6F646275735F706F6C6C00E5
:1059B000655374617475733A2025730A0000000002
:1059C00025730A0070617269747920657272000033
:1059D0006672616D696E6720657272006E6F6973C1
:1059E00065206572720000006F76657272756E20B8
:1059F0006572720069646C65206C696E6520657201
:105A000072000000756172742072782065727200F5
:105A10005F6578697400000052656365697665208A
:105A2000456E61626C65000052656365697665204C
:105A300044697361626C65005472616E736D697460
:105A400020456E61626C65005472616E736D69749D
:105A50002044697361626C65000000000000000072
:105A600011000000B116000804000000110D00082C
:105A7000030000006117000810000000C1170008B3
:105A8000060000002118000817000000C1160008D9
:105A9000010000003119000805000000D1180008BD
:105AA0000F0000006118000802000000B11B000890
:105AB00000000000000000000000000000000000E6
:105AC00000000000000000000000000000000000D6
:105AD00000000000000000000000000000000000C6
